{
	"FundMe.sol": {
		"FundMe": {
			"abi": [
				{
					"inputs": [
						{
							"internalType": "address",
							"name": "funder",
							"type": "address"
						}
					],
					"name": "addressToAmoutFunded",
					"outputs": [
						{
							"internalType": "uint256",
							"name": "amountFunded",
							"type": "uint256"
						}
					],
					"stateMutability": "view",
					"type": "function"
				},
				{
					"inputs": [],
					"name": "fund",
					"outputs": [],
					"stateMutability": "payable",
					"type": "function"
				},
				{
					"inputs": [],
					"name": "minimunInDollars",
					"outputs": [
						{
							"internalType": "uint256",
							"name": "",
							"type": "uint256"
						}
					],
					"stateMutability": "view",
					"type": "function"
				},
				{
					"inputs": [],
					"name": "withdraw",
					"outputs": [],
					"stateMutability": "nonpayable",
					"type": "function"
				}
			],
			"devdoc": {
				"kind": "dev",
				"methods": {},
				"version": 1
			},
			"evm": {
				"assembly": "    /* \"FundMe.sol\":122:1342  contract FundMe {... */\n  mstore(0x40, 0x80)\n    /* \"FundMe.sol\":210:214  5e18 */\n  0x4563918244f40000\n    /* \"FundMe.sol\":179:214  uint public minimunInDollars = 5e18 */\n  0x00\n  sstore\n    /* \"FundMe.sol\":122:1342  contract FundMe {... */\n  callvalue\n  dup1\n  iszero\n  tag_1\n  jumpi\n  0x00\n  dup1\n  revert\ntag_1:\n  pop\n  dataSize(sub_0)\n  dup1\n  dataOffset(sub_0)\n  0x00\n  codecopy\n  0x00\n  return\nstop\n\nsub_0: assembly {\n        /* \"FundMe.sol\":122:1342  contract FundMe {... */\n      mstore(0x40, 0x80)\n      jumpi(tag_1, lt(calldatasize, 0x04))\n      shr(0xe0, calldataload(0x00))\n      dup1\n      0x3ccfd60b\n      eq\n      tag_2\n      jumpi\n      dup1\n      0xb60d4288\n      eq\n      tag_3\n      jumpi\n      dup1\n      0xcb78e6e1\n      eq\n      tag_4\n      jumpi\n      dup1\n      0xe875bc7c\n      eq\n      tag_5\n      jumpi\n    tag_1:\n      0x00\n      dup1\n      revert\n        /* \"FundMe.sol\":684:1340  function withdraw() public {        ... */\n    tag_2:\n      callvalue\n      dup1\n      iszero\n      tag_6\n      jumpi\n      0x00\n      dup1\n      revert\n    tag_6:\n      pop\n      tag_7\n      tag_8\n      jump\t// in\n    tag_7:\n      stop\n        /* \"FundMe.sol\":323:678  function fund() public payable {... */\n    tag_3:\n      tag_9\n      tag_10\n      jump\t// in\n    tag_9:\n      stop\n        /* \"FundMe.sol\":244:316  mapping(address funder => uint amountFunded) public addressToAmoutFunded */\n    tag_4:\n      callvalue\n      dup1\n      iszero\n      tag_11\n      jumpi\n      0x00\n      dup1\n      revert\n    tag_11:\n      pop\n      tag_12\n      0x04\n      dup1\n      calldatasize\n      sub\n      dup2\n      add\n      swap1\n      tag_13\n      swap2\n      swap1\n      tag_14\n      jump\t// in\n    tag_13:\n      tag_15\n      jump\t// in\n    tag_12:\n      mload(0x40)\n      tag_16\n      swap2\n      swap1\n      tag_17\n      jump\t// in\n    tag_16:\n      mload(0x40)\n      dup1\n      swap2\n      sub\n      swap1\n      return\n        /* \"FundMe.sol\":179:214  uint public minimunInDollars = 5e18 */\n    tag_5:\n      callvalue\n      dup1\n      iszero\n      tag_18\n      jumpi\n      0x00\n      dup1\n      revert\n    tag_18:\n      pop\n      tag_19\n      tag_20\n      jump\t// in\n    tag_19:\n      mload(0x40)\n      tag_21\n      swap2\n      swap1\n      tag_17\n      jump\t// in\n    tag_21:\n      mload(0x40)\n      dup1\n      swap2\n      sub\n      swap1\n      return\n        /* \"FundMe.sol\":684:1340  function withdraw() public {        ... */\n    tag_8:\n        /* \"FundMe.sol\":734:750  uint funderIndex */\n      0x00\n        /* \"FundMe.sol\":729:909  for (uint funderIndex = 0; funderIndex < funders.length; funderIndex++) {... */\n    tag_23:\n        /* \"FundMe.sol\":770:777  funders */\n      0x01\n        /* \"FundMe.sol\":770:784  funders.length */\n      dup1\n      sload\n      swap1\n      pop\n        /* \"FundMe.sol\":756:767  funderIndex */\n      dup2\n        /* \"FundMe.sol\":756:784  funderIndex < funders.length */\n      lt\n        /* \"FundMe.sol\":729:909  for (uint funderIndex = 0; funderIndex < funders.length; funderIndex++) {... */\n      iszero\n      tag_24\n      jumpi\n        /* \"FundMe.sol\":815:829  address funder */\n      0x00\n        /* \"FundMe.sol\":832:839  funders */\n      0x01\n        /* \"FundMe.sol\":840:851  funderIndex */\n      dup3\n        /* \"FundMe.sol\":832:852  funders[funderIndex] */\n      dup2\n      sload\n      dup2\n      lt\n      tag_26\n      jumpi\n      tag_27\n      tag_28\n      jump\t// in\n    tag_27:\n    tag_26:\n      swap1\n      0x00\n      mstore\n      keccak256(0x00, 0x20)\n      add\n      0x00\n      swap1\n      sload\n      swap1\n      0x0100\n      exp\n      swap1\n      div\n      0xffffffffffffffffffffffffffffffffffffffff\n      and\n        /* \"FundMe.sol\":815:852  address funder = funders[funderIndex] */\n      swap1\n      pop\n        /* \"FundMe.sol\":897:898  0 */\n      0x00\n        /* \"FundMe.sol\":866:886  addressToAmoutFunded */\n      0x02\n        /* \"FundMe.sol\":866:894  addressToAmoutFunded[funder] */\n      0x00\n        /* \"FundMe.sol\":887:893  funder */\n      dup4\n        /* \"FundMe.sol\":866:894  addressToAmoutFunded[funder] */\n      0xffffffffffffffffffffffffffffffffffffffff\n      and\n      0xffffffffffffffffffffffffffffffffffffffff\n      and\n      dup2\n      mstore\n      0x20\n      add\n      swap1\n      dup2\n      mstore\n      0x20\n      add\n      0x00\n      keccak256\n        /* \"FundMe.sol\":866:898  addressToAmoutFunded[funder] = 0 */\n      dup2\n      swap1\n      sstore\n      pop\n        /* \"FundMe.sol\":801:909  {... */\n      pop\n        /* \"FundMe.sol\":786:799  funderIndex++ */\n      dup1\n      dup1\n      0x01\n      add\n      swap2\n      pop\n      pop\n        /* \"FundMe.sol\":729:909  for (uint funderIndex = 0; funderIndex < funders.length; funderIndex++) {... */\n      jump(tag_23)\n    tag_24:\n      pop\n        /* \"FundMe.sol\":942:943  0 */\n      0x00\n        /* \"FundMe.sol\":928:944  new address[](0) */\n      0xffffffffffffffff\n      dup2\n      gt\n      iszero\n      tag_30\n      jumpi\n      tag_31\n      tag_32\n      jump\t// in\n    tag_31:\n    tag_30:\n      mload(0x40)\n      swap1\n      dup1\n      dup3\n      mstore\n      dup1\n      0x20\n      mul\n      0x20\n      add\n      dup3\n      add\n      0x40\n      mstore\n      dup1\n      iszero\n      tag_33\n      jumpi\n      dup2\n      0x20\n      add\n      0x20\n      dup3\n      mul\n      dup1\n      calldatasize\n      dup4\n      calldatacopy\n      dup1\n      dup3\n      add\n      swap2\n      pop\n      pop\n      swap1\n      pop\n    tag_33:\n      pop\n        /* \"FundMe.sol\":918:925  funders */\n      0x01\n        /* \"FundMe.sol\":918:944  funders = new address[](0) */\n      swap1\n      dup1\n      mload\n      swap1\n      0x20\n      add\n      swap1\n      tag_34\n      swap3\n      swap2\n      swap1\n      tag_35\n      jump\t// in\n    tag_34:\n      pop\n        /* \"FundMe.sol\":1208:1224  bool callSuccess */\n      0x00\n        /* \"FundMe.sol\":1238:1248  msg.sender */\n      caller\n        /* \"FundMe.sol\":1230:1254  payable(msg.sender).call */\n      0xffffffffffffffffffffffffffffffffffffffff\n      and\n        /* \"FundMe.sol\":1262:1283  address(this).balance */\n      selfbalance\n        /* \"FundMe.sol\":1230:1288  payable(msg.sender).call{value: address(this).balance}(\"\") */\n      mload(0x40)\n      tag_36\n      swap1\n      tag_37\n      jump\t// in\n    tag_36:\n      0x00\n      mload(0x40)\n      dup1\n      dup4\n      sub\n      dup2\n      dup6\n      dup8\n      gas\n      call\n      swap3\n      pop\n      pop\n      pop\n      returndatasize\n      dup1\n      0x00\n      dup2\n      eq\n      tag_40\n      jumpi\n      mload(0x40)\n      swap2\n      pop\n      and(add(returndatasize, 0x3f), not(0x1f))\n      dup3\n      add\n      0x40\n      mstore\n      returndatasize\n      dup3\n      mstore\n      returndatasize\n      0x00\n      0x20\n      dup5\n      add\n      returndatacopy\n      jump(tag_39)\n    tag_40:\n      0x60\n      swap2\n      pop\n    tag_39:\n      pop\n        /* \"FundMe.sol\":1207:1288  (bool callSuccess, ) = payable(msg.sender).call{value: address(this).balance}(\"\") */\n      pop\n      swap1\n      pop\n        /* \"FundMe.sol\":1306:1317  callSuccess */\n      dup1\n        /* \"FundMe.sol\":1298:1333  require(callSuccess, \"Call failed\") */\n      tag_41\n      jumpi\n      mload(0x40)\n      0x08c379a000000000000000000000000000000000000000000000000000000000\n      dup2\n      mstore\n      0x04\n      add\n      tag_42\n      swap1\n      tag_43\n      jump\t// in\n    tag_42:\n      mload(0x40)\n      dup1\n      swap2\n      sub\n      swap1\n      revert\n    tag_41:\n        /* \"FundMe.sol\":711:1340  {        ... */\n      pop\n        /* \"FundMe.sol\":684:1340  function withdraw() public {        ... */\n      jump\t// out\n        /* \"FundMe.sol\":323:678  function fund() public payable {... */\n    tag_10:\n        /* \"FundMe.sol\":364:377  uint ethValue */\n      0x00\n        /* \"FundMe.sol\":380:389  msg.value */\n      callvalue\n        /* \"FundMe.sol\":364:389  uint ethValue = msg.value */\n      swap1\n      pop\n        /* \"FundMe.sol\":440:444  1e18 */\n      0x0de0b6b3a7640000\n        /* \"FundMe.sol\":407:436  msg.value.getConversionRate() */\n      tag_45\n        /* \"FundMe.sol\":407:416  msg.value */\n      callvalue\n        /* \"FundMe.sol\":407:434  msg.value.getConversionRate */\n      tag_46\n        /* \"FundMe.sol\":407:436  msg.value.getConversionRate() */\n      jump\t// in\n    tag_45:\n        /* \"FundMe.sol\":407:444  msg.value.getConversionRate() >= 1e18 */\n      lt\n      iszero\n        /* \"FundMe.sol\":399:475  require(msg.value.getConversionRate() >= 1e18, \"You didn't send anough ETH\") */\n      tag_47\n      jumpi\n      mload(0x40)\n      0x08c379a000000000000000000000000000000000000000000000000000000000\n      dup2\n      mstore\n      0x04\n      add\n      tag_48\n      swap1\n      tag_49\n      jump\t// in\n    tag_48:\n      mload(0x40)\n      dup1\n      swap2\n      sub\n      swap1\n      revert\n    tag_47:\n        /* \"FundMe.sol\":533:547  address funder */\n      0x00\n        /* \"FundMe.sol\":550:560  msg.sender */\n      caller\n        /* \"FundMe.sol\":533:560  address funder = msg.sender */\n      swap1\n      pop\n        /* \"FundMe.sol\":571:578  funders */\n      0x01\n        /* \"FundMe.sol\":584:590  funder */\n      dup2\n        /* \"FundMe.sol\":571:591  funders.push(funder) */\n      swap1\n      dup1\n      0x01\n      dup2\n      sload\n      add\n      dup1\n      dup3\n      sstore\n      dup1\n      swap2\n      pop\n      pop\n      0x01\n      swap1\n      sub\n      swap1\n      0x00\n      mstore\n      keccak256(0x00, 0x20)\n      add\n      0x00\n      swap1\n      swap2\n      swap1\n      swap2\n      swap1\n      swap2\n      0x0100\n      exp\n      dup2\n      sload\n      dup2\n      0xffffffffffffffffffffffffffffffffffffffff\n      mul\n      not\n      and\n      swap1\n      dup4\n      0xffffffffffffffffffffffffffffffffffffffff\n      and\n      mul\n      or\n      swap1\n      sstore\n      pop\n        /* \"FundMe.sol\":663:671  ethValue */\n      dup2\n        /* \"FundMe.sol\":632:652  addressToAmoutFunded */\n      0x02\n        /* \"FundMe.sol\":632:660  addressToAmoutFunded[funder] */\n      0x00\n        /* \"FundMe.sol\":653:659  funder */\n      dup4\n        /* \"FundMe.sol\":632:660  addressToAmoutFunded[funder] */\n      0xffffffffffffffffffffffffffffffffffffffff\n      and\n      0xffffffffffffffffffffffffffffffffffffffff\n      and\n      dup2\n      mstore\n      0x20\n      add\n      swap1\n      dup2\n      mstore\n      0x20\n      add\n      0x00\n      keccak256\n      sload\n        /* \"FundMe.sol\":632:671  addressToAmoutFunded[funder] + ethValue */\n      tag_51\n      swap2\n      swap1\n      tag_52\n      jump\t// in\n    tag_51:\n        /* \"FundMe.sol\":601:621  addressToAmoutFunded */\n      0x02\n        /* \"FundMe.sol\":601:629  addressToAmoutFunded[funder] */\n      0x00\n        /* \"FundMe.sol\":622:628  funder */\n      dup4\n        /* \"FundMe.sol\":601:629  addressToAmoutFunded[funder] */\n      0xffffffffffffffffffffffffffffffffffffffff\n      and\n      0xffffffffffffffffffffffffffffffffffffffff\n      and\n      dup2\n      mstore\n      0x20\n      add\n      swap1\n      dup2\n      mstore\n      0x20\n      add\n      0x00\n      keccak256\n        /* \"FundMe.sol\":601:671  addressToAmoutFunded[funder] = addressToAmoutFunded[funder] + ethValue */\n      dup2\n      swap1\n      sstore\n      pop\n        /* \"FundMe.sol\":354:678  {... */\n      pop\n      pop\n        /* \"FundMe.sol\":323:678  function fund() public payable {... */\n      jump\t// out\n        /* \"FundMe.sol\":244:316  mapping(address funder => uint amountFunded) public addressToAmoutFunded */\n    tag_15:\n      mstore(0x20, 0x02)\n      dup1\n      0x00\n      mstore\n      keccak256(0x00, 0x40)\n      0x00\n      swap2\n      pop\n      swap1\n      pop\n      sload\n      dup2\n      jump\t// out\n        /* \"FundMe.sol\":179:214  uint public minimunInDollars = 5e18 */\n    tag_20:\n      sload(0x00)\n      dup2\n      jump\t// out\n        /* \"PriceConverter.sol\":632:838  function getConversionRate(uint ethAmount) internal view returns (uint){... */\n    tag_46:\n        /* \"PriceConverter.sol\":698:702  uint */\n      0x00\n        /* \"PriceConverter.sol\":713:726  uint ethPrice */\n      dup1\n        /* \"PriceConverter.sol\":729:739  getPrice() */\n      tag_54\n        /* \"PriceConverter.sol\":729:737  getPrice */\n      tag_55\n        /* \"PriceConverter.sol\":729:739  getPrice() */\n      jump\t// in\n    tag_54:\n        /* \"PriceConverter.sol\":713:739  uint ethPrice = getPrice() */\n      swap1\n      pop\n        /* \"PriceConverter.sol\":749:768  uint ethAmountInUsd */\n      0x00\n        /* \"PriceConverter.sol\":796:800  1e18 */\n      0x0de0b6b3a7640000\n        /* \"PriceConverter.sol\":784:792  ethPrice */\n      dup3\n        /* \"PriceConverter.sol\":772:781  ethAmount */\n      dup6\n        /* \"PriceConverter.sol\":772:792  ethAmount * ethPrice */\n      tag_56\n      swap2\n      swap1\n      tag_57\n      jump\t// in\n    tag_56:\n        /* \"PriceConverter.sol\":771:800  (ethAmount * ethPrice) / 1e18 */\n      tag_58\n      swap2\n      swap1\n      tag_59\n      jump\t// in\n    tag_58:\n        /* \"PriceConverter.sol\":749:800  uint ethAmountInUsd = (ethAmount * ethPrice) / 1e18 */\n      swap1\n      pop\n        /* \"PriceConverter.sol\":817:831  ethAmountInUsd */\n      dup1\n        /* \"PriceConverter.sol\":810:831  return ethAmountInUsd */\n      swap3\n      pop\n      pop\n      pop\n        /* \"PriceConverter.sol\":632:838  function getConversionRate(uint ethAmount) internal view returns (uint){... */\n      swap2\n      swap1\n      pop\n      jump\t// out\n        /* \"PriceConverter.sol\":205:626  function getPrice() internal view returns (uint256) {... */\n    tag_55:\n        /* \"PriceConverter.sol\":248:255  uint256 */\n      0x00\n        /* \"PriceConverter.sol\":267:298  AggregatorV3Interface priceFeed */\n      dup1\n        /* \"PriceConverter.sol\":323:365  0x694AA1769357215DE4FAC081bf1f309aDC325306 */\n      0x694aa1769357215de4fac081bf1f309adc325306\n        /* \"PriceConverter.sol\":267:366  AggregatorV3Interface priceFeed = AggregatorV3Interface(0x694AA1769357215DE4FAC081bf1f309aDC325306) */\n      swap1\n      pop\n        /* \"PriceConverter.sol\":424:434  int answer */\n      0x00\n        /* \"PriceConverter.sol\":551:560  priceFeed */\n      dup2\n        /* \"PriceConverter.sol\":551:576  priceFeed.latestRoundData */\n      0xffffffffffffffffffffffffffffffffffffffff\n      and\n      0xfeaf968c\n        /* \"PriceConverter.sol\":551:578  priceFeed.latestRoundData() */\n      mload(0x40)\n      dup2\n      0xffffffff\n      and\n      0xe0\n      shl\n      dup2\n      mstore\n      0x04\n      add\n      0xa0\n      mload(0x40)\n      dup1\n      dup4\n      sub\n      dup2\n      dup7\n      gas\n      staticcall\n      iszero\n      dup1\n      iszero\n      tag_62\n      jumpi\n      returndatasize\n      0x00\n      dup1\n      returndatacopy\n      revert(0x00, returndatasize)\n    tag_62:\n      pop\n      pop\n      pop\n      pop\n      mload(0x40)\n      returndatasize\n      not(0x1f)\n      0x1f\n      dup3\n      add\n      and\n      dup3\n      add\n      dup1\n      0x40\n      mstore\n      pop\n      dup2\n      add\n      swap1\n      tag_63\n      swap2\n      swap1\n      tag_64\n      jump\t// in\n    tag_63:\n        /* \"PriceConverter.sol\":376:578  (... */\n      pop\n      pop\n      pop\n      swap2\n      pop\n      pop\n        /* \"PriceConverter.sol\":614:618  1e10 */\n      0x02540be400\n        /* \"PriceConverter.sol\":605:611  answer */\n      dup2\n        /* \"PriceConverter.sol\":605:618  answer * 1e10 */\n      tag_65\n      swap2\n      swap1\n      tag_66\n      jump\t// in\n    tag_65:\n        /* \"PriceConverter.sol\":593:619  return uint(answer * 1e10) */\n      swap3\n      pop\n      pop\n      pop\n        /* \"PriceConverter.sol\":205:626  function getPrice() internal view returns (uint256) {... */\n      swap1\n      jump\t// out\n    tag_35:\n      dup3\n      dup1\n      sload\n      dup3\n      dup3\n      sstore\n      swap1\n      0x00\n      mstore\n      keccak256(0x00, 0x20)\n      swap1\n      dup2\n      add\n      swap3\n      dup3\n      iszero\n      tag_67\n      jumpi\n      swap2\n      0x20\n      mul\n      dup3\n      add\n    tag_68:\n      dup3\n      dup2\n      gt\n      iszero\n      tag_69\n      jumpi\n      dup3\n      mload\n      dup3\n      exp(0x0100, 0x00)\n      dup2\n      sload\n      dup2\n      0xffffffffffffffffffffffffffffffffffffffff\n      mul\n      not\n      and\n      swap1\n      dup4\n      0xffffffffffffffffffffffffffffffffffffffff\n      and\n      mul\n      or\n      swap1\n      sstore\n      pop\n      swap2\n      0x20\n      add\n      swap2\n      swap1\n      0x01\n      add\n      swap1\n      jump(tag_68)\n    tag_69:\n    tag_67:\n      pop\n      swap1\n      pop\n      tag_70\n      swap2\n      swap1\n      tag_71\n      jump\t// in\n    tag_70:\n      pop\n      swap1\n      jump\t// out\n    tag_71:\n    tag_72:\n      dup1\n      dup3\n      gt\n      iszero\n      tag_73\n      jumpi\n      0x00\n      dup2\n      0x00\n      swap1\n      sstore\n      pop\n      0x01\n      add\n      jump(tag_72)\n    tag_73:\n      pop\n      swap1\n      jump\t// out\n        /* \"#utility.yul\":88:205   */\n    tag_75:\n        /* \"#utility.yul\":197:198   */\n      0x00\n        /* \"#utility.yul\":194:195   */\n      dup1\n        /* \"#utility.yul\":187:199   */\n      revert\n        /* \"#utility.yul\":334:460   */\n    tag_77:\n        /* \"#utility.yul\":371:378   */\n      0x00\n        /* \"#utility.yul\":411:453   */\n      0xffffffffffffffffffffffffffffffffffffffff\n        /* \"#utility.yul\":404:409   */\n      dup3\n        /* \"#utility.yul\":400:454   */\n      and\n        /* \"#utility.yul\":389:454   */\n      swap1\n      pop\n        /* \"#utility.yul\":334:460   */\n      swap2\n      swap1\n      pop\n      jump\t// out\n        /* \"#utility.yul\":466:562   */\n    tag_78:\n        /* \"#utility.yul\":503:510   */\n      0x00\n        /* \"#utility.yul\":532:556   */\n      tag_107\n        /* \"#utility.yul\":550:555   */\n      dup3\n        /* \"#utility.yul\":532:556   */\n      tag_77\n      jump\t// in\n    tag_107:\n        /* \"#utility.yul\":521:556   */\n      swap1\n      pop\n        /* \"#utility.yul\":466:562   */\n      swap2\n      swap1\n      pop\n      jump\t// out\n        /* \"#utility.yul\":568:690   */\n    tag_79:\n        /* \"#utility.yul\":641:665   */\n      tag_109\n        /* \"#utility.yul\":659:664   */\n      dup2\n        /* \"#utility.yul\":641:665   */\n      tag_78\n      jump\t// in\n    tag_109:\n        /* \"#utility.yul\":634:639   */\n      dup2\n        /* \"#utility.yul\":631:666   */\n      eq\n        /* \"#utility.yul\":621:684   */\n      tag_110\n      jumpi\n        /* \"#utility.yul\":680:681   */\n      0x00\n        /* \"#utility.yul\":677:678   */\n      dup1\n        /* \"#utility.yul\":670:682   */\n      revert\n        /* \"#utility.yul\":621:684   */\n    tag_110:\n        /* \"#utility.yul\":568:690   */\n      pop\n      jump\t// out\n        /* \"#utility.yul\":696:835   */\n    tag_80:\n        /* \"#utility.yul\":742:747   */\n      0x00\n        /* \"#utility.yul\":780:786   */\n      dup2\n        /* \"#utility.yul\":767:787   */\n      calldataload\n        /* \"#utility.yul\":758:787   */\n      swap1\n      pop\n        /* \"#utility.yul\":796:829   */\n      tag_112\n        /* \"#utility.yul\":823:828   */\n      dup2\n        /* \"#utility.yul\":796:829   */\n      tag_79\n      jump\t// in\n    tag_112:\n        /* \"#utility.yul\":696:835   */\n      swap3\n      swap2\n      pop\n      pop\n      jump\t// out\n        /* \"#utility.yul\":841:1170   */\n    tag_14:\n        /* \"#utility.yul\":900:906   */\n      0x00\n        /* \"#utility.yul\":949:951   */\n      0x20\n        /* \"#utility.yul\":937:946   */\n      dup3\n        /* \"#utility.yul\":928:935   */\n      dup5\n        /* \"#utility.yul\":924:947   */\n      sub\n        /* \"#utility.yul\":920:952   */\n      slt\n        /* \"#utility.yul\":917:1036   */\n      iszero\n      tag_114\n      jumpi\n        /* \"#utility.yul\":955:1034   */\n      tag_115\n      tag_75\n      jump\t// in\n    tag_115:\n        /* \"#utility.yul\":917:1036   */\n    tag_114:\n        /* \"#utility.yul\":1075:1076   */\n      0x00\n        /* \"#utility.yul\":1100:1153   */\n      tag_116\n        /* \"#utility.yul\":1145:1152   */\n      dup5\n        /* \"#utility.yul\":1136:1142   */\n      dup3\n        /* \"#utility.yul\":1125:1134   */\n      dup6\n        /* \"#utility.yul\":1121:1143   */\n      add\n        /* \"#utility.yul\":1100:1153   */\n      tag_80\n      jump\t// in\n    tag_116:\n        /* \"#utility.yul\":1090:1153   */\n      swap2\n      pop\n        /* \"#utility.yul\":1046:1163   */\n      pop\n        /* \"#utility.yul\":841:1170   */\n      swap3\n      swap2\n      pop\n      pop\n      jump\t// out\n        /* \"#utility.yul\":1176:1253   */\n    tag_81:\n        /* \"#utility.yul\":1213:1220   */\n      0x00\n        /* \"#utility.yul\":1242:1247   */\n      dup2\n        /* \"#utility.yul\":1231:1247   */\n      swap1\n      pop\n        /* \"#utility.yul\":1176:1253   */\n      swap2\n      swap1\n      pop\n      jump\t// out\n        /* \"#utility.yul\":1259:1377   */\n    tag_82:\n        /* \"#utility.yul\":1346:1370   */\n      tag_119\n        /* \"#utility.yul\":1364:1369   */\n      dup2\n        /* \"#utility.yul\":1346:1370   */\n      tag_81\n      jump\t// in\n    tag_119:\n        /* \"#utility.yul\":1341:1344   */\n      dup3\n        /* \"#utility.yul\":1334:1371   */\n      mstore\n        /* \"#utility.yul\":1259:1377   */\n      pop\n      pop\n      jump\t// out\n        /* \"#utility.yul\":1383:1605   */\n    tag_17:\n        /* \"#utility.yul\":1476:1480   */\n      0x00\n        /* \"#utility.yul\":1514:1516   */\n      0x20\n        /* \"#utility.yul\":1503:1512   */\n      dup3\n        /* \"#utility.yul\":1499:1517   */\n      add\n        /* \"#utility.yul\":1491:1517   */\n      swap1\n      pop\n        /* \"#utility.yul\":1527:1598   */\n      tag_121\n        /* \"#utility.yul\":1595:1596   */\n      0x00\n        /* \"#utility.yul\":1584:1593   */\n      dup4\n        /* \"#utility.yul\":1580:1597   */\n      add\n        /* \"#utility.yul\":1571:1577   */\n      dup5\n        /* \"#utility.yul\":1527:1598   */\n      tag_82\n      jump\t// in\n    tag_121:\n        /* \"#utility.yul\":1383:1605   */\n      swap3\n      swap2\n      pop\n      pop\n      jump\t// out\n        /* \"#utility.yul\":1611:1791   */\n    tag_28:\n        /* \"#utility.yul\":1659:1736   */\n      0x4e487b7100000000000000000000000000000000000000000000000000000000\n        /* \"#utility.yul\":1656:1657   */\n      0x00\n        /* \"#utility.yul\":1649:1737   */\n      mstore\n        /* \"#utility.yul\":1756:1760   */\n      0x32\n        /* \"#utility.yul\":1753:1754   */\n      0x04\n        /* \"#utility.yul\":1746:1761   */\n      mstore\n        /* \"#utility.yul\":1780:1784   */\n      0x24\n        /* \"#utility.yul\":1777:1778   */\n      0x00\n        /* \"#utility.yul\":1770:1785   */\n      revert\n        /* \"#utility.yul\":1797:1977   */\n    tag_32:\n        /* \"#utility.yul\":1845:1922   */\n      0x4e487b7100000000000000000000000000000000000000000000000000000000\n        /* \"#utility.yul\":1842:1843   */\n      0x00\n        /* \"#utility.yul\":1835:1923   */\n      mstore\n        /* \"#utility.yul\":1942:1946   */\n      0x41\n        /* \"#utility.yul\":1939:1940   */\n      0x04\n        /* \"#utility.yul\":1932:1947   */\n      mstore\n        /* \"#utility.yul\":1966:1970   */\n      0x24\n        /* \"#utility.yul\":1963:1964   */\n      0x00\n        /* \"#utility.yul\":1956:1971   */\n      revert\n        /* \"#utility.yul\":1983:2130   */\n    tag_83:\n        /* \"#utility.yul\":2084:2095   */\n      0x00\n        /* \"#utility.yul\":2121:2124   */\n      dup2\n        /* \"#utility.yul\":2106:2124   */\n      swap1\n      pop\n        /* \"#utility.yul\":1983:2130   */\n      swap3\n      swap2\n      pop\n      pop\n      jump\t// out\n        /* \"#utility.yul\":2136:2250   */\n    tag_84:\n      pop\n      jump\t// out\n        /* \"#utility.yul\":2256:2654   */\n    tag_85:\n        /* \"#utility.yul\":2415:2418   */\n      0x00\n        /* \"#utility.yul\":2436:2519   */\n      tag_127\n        /* \"#utility.yul\":2517:2518   */\n      0x00\n        /* \"#utility.yul\":2512:2515   */\n      dup4\n        /* \"#utility.yul\":2436:2519   */\n      tag_83\n      jump\t// in\n    tag_127:\n        /* \"#utility.yul\":2429:2519   */\n      swap2\n      pop\n        /* \"#utility.yul\":2528:2621   */\n      tag_128\n        /* \"#utility.yul\":2617:2620   */\n      dup3\n        /* \"#utility.yul\":2528:2621   */\n      tag_84\n      jump\t// in\n    tag_128:\n        /* \"#utility.yul\":2646:2647   */\n      0x00\n        /* \"#utility.yul\":2641:2644   */\n      dup3\n        /* \"#utility.yul\":2637:2648   */\n      add\n        /* \"#utility.yul\":2630:2648   */\n      swap1\n      pop\n        /* \"#utility.yul\":2256:2654   */\n      swap2\n      swap1\n      pop\n      jump\t// out\n        /* \"#utility.yul\":2660:3039   */\n    tag_37:\n        /* \"#utility.yul\":2844:2847   */\n      0x00\n        /* \"#utility.yul\":2866:3013   */\n      tag_130\n        /* \"#utility.yul\":3009:3012   */\n      dup3\n        /* \"#utility.yul\":2866:3013   */\n      tag_85\n      jump\t// in\n    tag_130:\n        /* \"#utility.yul\":2859:3013   */\n      swap2\n      pop\n        /* \"#utility.yul\":3030:3033   */\n      dup2\n        /* \"#utility.yul\":3023:3033   */\n      swap1\n      pop\n        /* \"#utility.yul\":2660:3039   */\n      swap2\n      swap1\n      pop\n      jump\t// out\n        /* \"#utility.yul\":3045:3214   */\n    tag_86:\n        /* \"#utility.yul\":3129:3140   */\n      0x00\n        /* \"#utility.yul\":3163:3169   */\n      dup3\n        /* \"#utility.yul\":3158:3161   */\n      dup3\n        /* \"#utility.yul\":3151:3170   */\n      mstore\n        /* \"#utility.yul\":3203:3207   */\n      0x20\n        /* \"#utility.yul\":3198:3201   */\n      dup3\n        /* \"#utility.yul\":3194:3208   */\n      add\n        /* \"#utility.yul\":3179:3208   */\n      swap1\n      pop\n        /* \"#utility.yul\":3045:3214   */\n      swap3\n      swap2\n      pop\n      pop\n      jump\t// out\n        /* \"#utility.yul\":3220:3381   */\n    tag_87:\n        /* \"#utility.yul\":3360:3373   */\n      0x43616c6c206661696c6564000000000000000000000000000000000000000000\n        /* \"#utility.yul\":3356:3357   */\n      0x00\n        /* \"#utility.yul\":3348:3354   */\n      dup3\n        /* \"#utility.yul\":3344:3358   */\n      add\n        /* \"#utility.yul\":3337:3374   */\n      mstore\n        /* \"#utility.yul\":3220:3381   */\n      pop\n      jump\t// out\n        /* \"#utility.yul\":3387:3753   */\n    tag_88:\n        /* \"#utility.yul\":3529:3532   */\n      0x00\n        /* \"#utility.yul\":3550:3617   */\n      tag_134\n        /* \"#utility.yul\":3614:3616   */\n      0x0b\n        /* \"#utility.yul\":3609:3612   */\n      dup4\n        /* \"#utility.yul\":3550:3617   */\n      tag_86\n      jump\t// in\n    tag_134:\n        /* \"#utility.yul\":3543:3617   */\n      swap2\n      pop\n        /* \"#utility.yul\":3626:3719   */\n      tag_135\n        /* \"#utility.yul\":3715:3718   */\n      dup3\n        /* \"#utility.yul\":3626:3719   */\n      tag_87\n      jump\t// in\n    tag_135:\n        /* \"#utility.yul\":3744:3746   */\n      0x20\n        /* \"#utility.yul\":3739:3742   */\n      dup3\n        /* \"#utility.yul\":3735:3747   */\n      add\n        /* \"#utility.yul\":3728:3747   */\n      swap1\n      pop\n        /* \"#utility.yul\":3387:3753   */\n      swap2\n      swap1\n      pop\n      jump\t// out\n        /* \"#utility.yul\":3759:4178   */\n    tag_43:\n        /* \"#utility.yul\":3925:3929   */\n      0x00\n        /* \"#utility.yul\":3963:3965   */\n      0x20\n        /* \"#utility.yul\":3952:3961   */\n      dup3\n        /* \"#utility.yul\":3948:3966   */\n      add\n        /* \"#utility.yul\":3940:3966   */\n      swap1\n      pop\n        /* \"#utility.yul\":4012:4021   */\n      dup2\n        /* \"#utility.yul\":4006:4010   */\n      dup2\n        /* \"#utility.yul\":4002:4022   */\n      sub\n        /* \"#utility.yul\":3998:3999   */\n      0x00\n        /* \"#utility.yul\":3987:3996   */\n      dup4\n        /* \"#utility.yul\":3983:4000   */\n      add\n        /* \"#utility.yul\":3976:4023   */\n      mstore\n        /* \"#utility.yul\":4040:4171   */\n      tag_137\n        /* \"#utility.yul\":4166:4170   */\n      dup2\n        /* \"#utility.yul\":4040:4171   */\n      tag_88\n      jump\t// in\n    tag_137:\n        /* \"#utility.yul\":4032:4171   */\n      swap1\n      pop\n        /* \"#utility.yul\":3759:4178   */\n      swap2\n      swap1\n      pop\n      jump\t// out\n        /* \"#utility.yul\":4184:4360   */\n    tag_89:\n        /* \"#utility.yul\":4324:4352   */\n      0x596f75206469646e27742073656e6420616e6f75676820455448000000000000\n        /* \"#utility.yul\":4320:4321   */\n      0x00\n        /* \"#utility.yul\":4312:4318   */\n      dup3\n        /* \"#utility.yul\":4308:4322   */\n      add\n        /* \"#utility.yul\":4301:4353   */\n      mstore\n        /* \"#utility.yul\":4184:4360   */\n      pop\n      jump\t// out\n        /* \"#utility.yul\":4366:4732   */\n    tag_90:\n        /* \"#utility.yul\":4508:4511   */\n      0x00\n        /* \"#utility.yul\":4529:4596   */\n      tag_140\n        /* \"#utility.yul\":4593:4595   */\n      0x1a\n        /* \"#utility.yul\":4588:4591   */\n      dup4\n        /* \"#utility.yul\":4529:4596   */\n      tag_86\n      jump\t// in\n    tag_140:\n        /* \"#utility.yul\":4522:4596   */\n      swap2\n      pop\n        /* \"#utility.yul\":4605:4698   */\n      tag_141\n        /* \"#utility.yul\":4694:4697   */\n      dup3\n        /* \"#utility.yul\":4605:4698   */\n      tag_89\n      jump\t// in\n    tag_141:\n        /* \"#utility.yul\":4723:4725   */\n      0x20\n        /* \"#utility.yul\":4718:4721   */\n      dup3\n        /* \"#utility.yul\":4714:4726   */\n      add\n        /* \"#utility.yul\":4707:4726   */\n      swap1\n      pop\n        /* \"#utility.yul\":4366:4732   */\n      swap2\n      swap1\n      pop\n      jump\t// out\n        /* \"#utility.yul\":4738:5157   */\n    tag_49:\n        /* \"#utility.yul\":4904:4908   */\n      0x00\n        /* \"#utility.yul\":4942:4944   */\n      0x20\n        /* \"#utility.yul\":4931:4940   */\n      dup3\n        /* \"#utility.yul\":4927:4945   */\n      add\n        /* \"#utility.yul\":4919:4945   */\n      swap1\n      pop\n        /* \"#utility.yul\":4991:5000   */\n      dup2\n        /* \"#utility.yul\":4985:4989   */\n      dup2\n        /* \"#utility.yul\":4981:5001   */\n      sub\n        /* \"#utility.yul\":4977:4978   */\n      0x00\n        /* \"#utility.yul\":4966:4975   */\n      dup4\n        /* \"#utility.yul\":4962:4979   */\n      add\n        /* \"#utility.yul\":4955:5002   */\n      mstore\n        /* \"#utility.yul\":5019:5150   */\n      tag_143\n        /* \"#utility.yul\":5145:5149   */\n      dup2\n        /* \"#utility.yul\":5019:5150   */\n      tag_90\n      jump\t// in\n    tag_143:\n        /* \"#utility.yul\":5011:5150   */\n      swap1\n      pop\n        /* \"#utility.yul\":4738:5157   */\n      swap2\n      swap1\n      pop\n      jump\t// out\n        /* \"#utility.yul\":5163:5343   */\n    tag_91:\n        /* \"#utility.yul\":5211:5288   */\n      0x4e487b7100000000000000000000000000000000000000000000000000000000\n        /* \"#utility.yul\":5208:5209   */\n      0x00\n        /* \"#utility.yul\":5201:5289   */\n      mstore\n        /* \"#utility.yul\":5308:5312   */\n      0x11\n        /* \"#utility.yul\":5305:5306   */\n      0x04\n        /* \"#utility.yul\":5298:5313   */\n      mstore\n        /* \"#utility.yul\":5332:5336   */\n      0x24\n        /* \"#utility.yul\":5329:5330   */\n      0x00\n        /* \"#utility.yul\":5322:5337   */\n      revert\n        /* \"#utility.yul\":5349:5540   */\n    tag_52:\n        /* \"#utility.yul\":5389:5392   */\n      0x00\n        /* \"#utility.yul\":5408:5428   */\n      tag_146\n        /* \"#utility.yul\":5426:5427   */\n      dup3\n        /* \"#utility.yul\":5408:5428   */\n      tag_81\n      jump\t// in\n    tag_146:\n        /* \"#utility.yul\":5403:5428   */\n      swap2\n      pop\n        /* \"#utility.yul\":5442:5462   */\n      tag_147\n        /* \"#utility.yul\":5460:5461   */\n      dup4\n        /* \"#utility.yul\":5442:5462   */\n      tag_81\n      jump\t// in\n    tag_147:\n        /* \"#utility.yul\":5437:5462   */\n      swap3\n      pop\n        /* \"#utility.yul\":5485:5486   */\n      dup3\n        /* \"#utility.yul\":5482:5483   */\n      dup3\n        /* \"#utility.yul\":5478:5487   */\n      add\n        /* \"#utility.yul\":5471:5487   */\n      swap1\n      pop\n        /* \"#utility.yul\":5506:5509   */\n      dup1\n        /* \"#utility.yul\":5503:5504   */\n      dup3\n        /* \"#utility.yul\":5500:5510   */\n      gt\n        /* \"#utility.yul\":5497:5533   */\n      iszero\n      tag_148\n      jumpi\n        /* \"#utility.yul\":5513:5531   */\n      tag_149\n      tag_91\n      jump\t// in\n    tag_149:\n        /* \"#utility.yul\":5497:5533   */\n    tag_148:\n        /* \"#utility.yul\":5349:5540   */\n      swap3\n      swap2\n      pop\n      pop\n      jump\t// out\n        /* \"#utility.yul\":5546:5956   */\n    tag_57:\n        /* \"#utility.yul\":5586:5593   */\n      0x00\n        /* \"#utility.yul\":5609:5629   */\n      tag_151\n        /* \"#utility.yul\":5627:5628   */\n      dup3\n        /* \"#utility.yul\":5609:5629   */\n      tag_81\n      jump\t// in\n    tag_151:\n        /* \"#utility.yul\":5604:5629   */\n      swap2\n      pop\n        /* \"#utility.yul\":5643:5663   */\n      tag_152\n        /* \"#utility.yul\":5661:5662   */\n      dup4\n        /* \"#utility.yul\":5643:5663   */\n      tag_81\n      jump\t// in\n    tag_152:\n        /* \"#utility.yul\":5638:5663   */\n      swap3\n      pop\n        /* \"#utility.yul\":5698:5699   */\n      dup3\n        /* \"#utility.yul\":5695:5696   */\n      dup3\n        /* \"#utility.yul\":5691:5700   */\n      mul\n        /* \"#utility.yul\":5720:5750   */\n      tag_153\n        /* \"#utility.yul\":5738:5749   */\n      dup2\n        /* \"#utility.yul\":5720:5750   */\n      tag_81\n      jump\t// in\n    tag_153:\n        /* \"#utility.yul\":5709:5750   */\n      swap2\n      pop\n        /* \"#utility.yul\":5899:5900   */\n      dup3\n        /* \"#utility.yul\":5890:5897   */\n      dup3\n        /* \"#utility.yul\":5886:5901   */\n      div\n        /* \"#utility.yul\":5883:5884   */\n      dup5\n        /* \"#utility.yul\":5880:5902   */\n      eq\n        /* \"#utility.yul\":5860:5861   */\n      dup4\n        /* \"#utility.yul\":5853:5862   */\n      iszero\n        /* \"#utility.yul\":5833:5916   */\n      or\n        /* \"#utility.yul\":5810:5949   */\n      tag_154\n      jumpi\n        /* \"#utility.yul\":5929:5947   */\n      tag_155\n      tag_91\n      jump\t// in\n    tag_155:\n        /* \"#utility.yul\":5810:5949   */\n    tag_154:\n        /* \"#utility.yul\":5594:5956   */\n      pop\n        /* \"#utility.yul\":5546:5956   */\n      swap3\n      swap2\n      pop\n      pop\n      jump\t// out\n        /* \"#utility.yul\":5962:6142   */\n    tag_92:\n        /* \"#utility.yul\":6010:6087   */\n      0x4e487b7100000000000000000000000000000000000000000000000000000000\n        /* \"#utility.yul\":6007:6008   */\n      0x00\n        /* \"#utility.yul\":6000:6088   */\n      mstore\n        /* \"#utility.yul\":6107:6111   */\n      0x12\n        /* \"#utility.yul\":6104:6105   */\n      0x04\n        /* \"#utility.yul\":6097:6112   */\n      mstore\n        /* \"#utility.yul\":6131:6135   */\n      0x24\n        /* \"#utility.yul\":6128:6129   */\n      0x00\n        /* \"#utility.yul\":6121:6136   */\n      revert\n        /* \"#utility.yul\":6148:6333   */\n    tag_59:\n        /* \"#utility.yul\":6188:6189   */\n      0x00\n        /* \"#utility.yul\":6205:6225   */\n      tag_158\n        /* \"#utility.yul\":6223:6224   */\n      dup3\n        /* \"#utility.yul\":6205:6225   */\n      tag_81\n      jump\t// in\n    tag_158:\n        /* \"#utility.yul\":6200:6225   */\n      swap2\n      pop\n        /* \"#utility.yul\":6239:6259   */\n      tag_159\n        /* \"#utility.yul\":6257:6258   */\n      dup4\n        /* \"#utility.yul\":6239:6259   */\n      tag_81\n      jump\t// in\n    tag_159:\n        /* \"#utility.yul\":6234:6259   */\n      swap3\n      pop\n        /* \"#utility.yul\":6278:6279   */\n      dup3\n        /* \"#utility.yul\":6268:6303   */\n      tag_160\n      jumpi\n        /* \"#utility.yul\":6283:6301   */\n      tag_161\n      tag_92\n      jump\t// in\n    tag_161:\n        /* \"#utility.yul\":6268:6303   */\n    tag_160:\n        /* \"#utility.yul\":6325:6326   */\n      dup3\n        /* \"#utility.yul\":6322:6323   */\n      dup3\n        /* \"#utility.yul\":6318:6327   */\n      div\n        /* \"#utility.yul\":6313:6327   */\n      swap1\n      pop\n        /* \"#utility.yul\":6148:6333   */\n      swap3\n      swap2\n      pop\n      pop\n      jump\t// out\n        /* \"#utility.yul\":6339:6444   */\n    tag_93:\n        /* \"#utility.yul\":6375:6382   */\n      0x00\n        /* \"#utility.yul\":6415:6437   */\n      0xffffffffffffffffffff\n        /* \"#utility.yul\":6408:6413   */\n      dup3\n        /* \"#utility.yul\":6404:6438   */\n      and\n        /* \"#utility.yul\":6393:6438   */\n      swap1\n      pop\n        /* \"#utility.yul\":6339:6444   */\n      swap2\n      swap1\n      pop\n      jump\t// out\n        /* \"#utility.yul\":6450:6570   */\n    tag_94:\n        /* \"#utility.yul\":6522:6545   */\n      tag_164\n        /* \"#utility.yul\":6539:6544   */\n      dup2\n        /* \"#utility.yul\":6522:6545   */\n      tag_93\n      jump\t// in\n    tag_164:\n        /* \"#utility.yul\":6515:6520   */\n      dup2\n        /* \"#utility.yul\":6512:6546   */\n      eq\n        /* \"#utility.yul\":6502:6564   */\n      tag_165\n      jumpi\n        /* \"#utility.yul\":6560:6561   */\n      0x00\n        /* \"#utility.yul\":6557:6558   */\n      dup1\n        /* \"#utility.yul\":6550:6562   */\n      revert\n        /* \"#utility.yul\":6502:6564   */\n    tag_165:\n        /* \"#utility.yul\":6450:6570   */\n      pop\n      jump\t// out\n        /* \"#utility.yul\":6576:6717   */\n    tag_95:\n        /* \"#utility.yul\":6632:6637   */\n      0x00\n        /* \"#utility.yul\":6663:6669   */\n      dup2\n        /* \"#utility.yul\":6657:6670   */\n      mload\n        /* \"#utility.yul\":6648:6670   */\n      swap1\n      pop\n        /* \"#utility.yul\":6679:6711   */\n      tag_167\n        /* \"#utility.yul\":6705:6710   */\n      dup2\n        /* \"#utility.yul\":6679:6711   */\n      tag_94\n      jump\t// in\n    tag_167:\n        /* \"#utility.yul\":6576:6717   */\n      swap3\n      swap2\n      pop\n      pop\n      jump\t// out\n        /* \"#utility.yul\":6723:6799   */\n    tag_96:\n        /* \"#utility.yul\":6759:6766   */\n      0x00\n        /* \"#utility.yul\":6788:6793   */\n      dup2\n        /* \"#utility.yul\":6777:6793   */\n      swap1\n      pop\n        /* \"#utility.yul\":6723:6799   */\n      swap2\n      swap1\n      pop\n      jump\t// out\n        /* \"#utility.yul\":6805:6925   */\n    tag_97:\n        /* \"#utility.yul\":6877:6900   */\n      tag_170\n        /* \"#utility.yul\":6894:6899   */\n      dup2\n        /* \"#utility.yul\":6877:6900   */\n      tag_96\n      jump\t// in\n    tag_170:\n        /* \"#utility.yul\":6870:6875   */\n      dup2\n        /* \"#utility.yul\":6867:6901   */\n      eq\n        /* \"#utility.yul\":6857:6919   */\n      tag_171\n      jumpi\n        /* \"#utility.yul\":6915:6916   */\n      0x00\n        /* \"#utility.yul\":6912:6913   */\n      dup1\n        /* \"#utility.yul\":6905:6917   */\n      revert\n        /* \"#utility.yul\":6857:6919   */\n    tag_171:\n        /* \"#utility.yul\":6805:6925   */\n      pop\n      jump\t// out\n        /* \"#utility.yul\":6931:7072   */\n    tag_98:\n        /* \"#utility.yul\":6987:6992   */\n      0x00\n        /* \"#utility.yul\":7018:7024   */\n      dup2\n        /* \"#utility.yul\":7012:7025   */\n      mload\n        /* \"#utility.yul\":7003:7025   */\n      swap1\n      pop\n        /* \"#utility.yul\":7034:7066   */\n      tag_173\n        /* \"#utility.yul\":7060:7065   */\n      dup2\n        /* \"#utility.yul\":7034:7066   */\n      tag_97\n      jump\t// in\n    tag_173:\n        /* \"#utility.yul\":6931:7072   */\n      swap3\n      swap2\n      pop\n      pop\n      jump\t// out\n        /* \"#utility.yul\":7078:7200   */\n    tag_99:\n        /* \"#utility.yul\":7151:7175   */\n      tag_175\n        /* \"#utility.yul\":7169:7174   */\n      dup2\n        /* \"#utility.yul\":7151:7175   */\n      tag_81\n      jump\t// in\n    tag_175:\n        /* \"#utility.yul\":7144:7149   */\n      dup2\n        /* \"#utility.yul\":7141:7176   */\n      eq\n        /* \"#utility.yul\":7131:7194   */\n      tag_176\n      jumpi\n        /* \"#utility.yul\":7190:7191   */\n      0x00\n        /* \"#utility.yul\":7187:7188   */\n      dup1\n        /* \"#utility.yul\":7180:7192   */\n      revert\n        /* \"#utility.yul\":7131:7194   */\n    tag_176:\n        /* \"#utility.yul\":7078:7200   */\n      pop\n      jump\t// out\n        /* \"#utility.yul\":7206:7349   */\n    tag_100:\n        /* \"#utility.yul\":7263:7268   */\n      0x00\n        /* \"#utility.yul\":7294:7300   */\n      dup2\n        /* \"#utility.yul\":7288:7301   */\n      mload\n        /* \"#utility.yul\":7279:7301   */\n      swap1\n      pop\n        /* \"#utility.yul\":7310:7343   */\n      tag_178\n        /* \"#utility.yul\":7337:7342   */\n      dup2\n        /* \"#utility.yul\":7310:7343   */\n      tag_99\n      jump\t// in\n    tag_178:\n        /* \"#utility.yul\":7206:7349   */\n      swap3\n      swap2\n      pop\n      pop\n      jump\t// out\n        /* \"#utility.yul\":7355:8326   */\n    tag_64:\n        /* \"#utility.yul\":7458:7464   */\n      0x00\n        /* \"#utility.yul\":7466:7472   */\n      dup1\n        /* \"#utility.yul\":7474:7480   */\n      0x00\n        /* \"#utility.yul\":7482:7488   */\n      dup1\n        /* \"#utility.yul\":7490:7496   */\n      0x00\n        /* \"#utility.yul\":7539:7542   */\n      0xa0\n        /* \"#utility.yul\":7527:7536   */\n      dup7\n        /* \"#utility.yul\":7518:7525   */\n      dup9\n        /* \"#utility.yul\":7514:7537   */\n      sub\n        /* \"#utility.yul\":7510:7543   */\n      slt\n        /* \"#utility.yul\":7507:7627   */\n      iszero\n      tag_180\n      jumpi\n        /* \"#utility.yul\":7546:7625   */\n      tag_181\n      tag_75\n      jump\t// in\n    tag_181:\n        /* \"#utility.yul\":7507:7627   */\n    tag_180:\n        /* \"#utility.yul\":7666:7667   */\n      0x00\n        /* \"#utility.yul\":7691:7754   */\n      tag_182\n        /* \"#utility.yul\":7746:7753   */\n      dup9\n        /* \"#utility.yul\":7737:7743   */\n      dup3\n        /* \"#utility.yul\":7726:7735   */\n      dup10\n        /* \"#utility.yul\":7722:7744   */\n      add\n        /* \"#utility.yul\":7691:7754   */\n      tag_95\n      jump\t// in\n    tag_182:\n        /* \"#utility.yul\":7681:7754   */\n      swap6\n      pop\n        /* \"#utility.yul\":7637:7764   */\n      pop\n        /* \"#utility.yul\":7803:7805   */\n      0x20\n        /* \"#utility.yul\":7829:7892   */\n      tag_183\n        /* \"#utility.yul\":7884:7891   */\n      dup9\n        /* \"#utility.yul\":7875:7881   */\n      dup3\n        /* \"#utility.yul\":7864:7873   */\n      dup10\n        /* \"#utility.yul\":7860:7882   */\n      add\n        /* \"#utility.yul\":7829:7892   */\n      tag_98\n      jump\t// in\n    tag_183:\n        /* \"#utility.yul\":7819:7892   */\n      swap5\n      pop\n        /* \"#utility.yul\":7774:7902   */\n      pop\n        /* \"#utility.yul\":7941:7943   */\n      0x40\n        /* \"#utility.yul\":7967:8031   */\n      tag_184\n        /* \"#utility.yul\":8023:8030   */\n      dup9\n        /* \"#utility.yul\":8014:8020   */\n      dup3\n        /* \"#utility.yul\":8003:8012   */\n      dup10\n        /* \"#utility.yul\":7999:8021   */\n      add\n        /* \"#utility.yul\":7967:8031   */\n      tag_100\n      jump\t// in\n    tag_184:\n        /* \"#utility.yul\":7957:8031   */\n      swap4\n      pop\n        /* \"#utility.yul\":7912:8041   */\n      pop\n        /* \"#utility.yul\":8080:8082   */\n      0x60\n        /* \"#utility.yul\":8106:8170   */\n      tag_185\n        /* \"#utility.yul\":8162:8169   */\n      dup9\n        /* \"#utility.yul\":8153:8159   */\n      dup3\n        /* \"#utility.yul\":8142:8151   */\n      dup10\n        /* \"#utility.yul\":8138:8160   */\n      add\n        /* \"#utility.yul\":8106:8170   */\n      tag_100\n      jump\t// in\n    tag_185:\n        /* \"#utility.yul\":8096:8170   */\n      swap3\n      pop\n        /* \"#utility.yul\":8051:8180   */\n      pop\n        /* \"#utility.yul\":8219:8222   */\n      0x80\n        /* \"#utility.yul\":8246:8309   */\n      tag_186\n        /* \"#utility.yul\":8301:8308   */\n      dup9\n        /* \"#utility.yul\":8292:8298   */\n      dup3\n        /* \"#utility.yul\":8281:8290   */\n      dup10\n        /* \"#utility.yul\":8277:8299   */\n      add\n        /* \"#utility.yul\":8246:8309   */\n      tag_95\n      jump\t// in\n    tag_186:\n        /* \"#utility.yul\":8236:8309   */\n      swap2\n      pop\n        /* \"#utility.yul\":8190:8319   */\n      pop\n        /* \"#utility.yul\":7355:8326   */\n      swap3\n      swap6\n      pop\n      swap3\n      swap6\n      swap1\n      swap4\n      pop\n      jump\t// out\n        /* \"#utility.yul\":8332:8888   */\n    tag_66:\n        /* \"#utility.yul\":8371:8378   */\n      0x00\n        /* \"#utility.yul\":8394:8413   */\n      tag_188\n        /* \"#utility.yul\":8411:8412   */\n      dup3\n        /* \"#utility.yul\":8394:8413   */\n      tag_96\n      jump\t// in\n    tag_188:\n        /* \"#utility.yul\":8389:8413   */\n      swap2\n      pop\n        /* \"#utility.yul\":8427:8446   */\n      tag_189\n        /* \"#utility.yul\":8444:8445   */\n      dup4\n        /* \"#utility.yul\":8427:8446   */\n      tag_96\n      jump\t// in\n    tag_189:\n        /* \"#utility.yul\":8422:8446   */\n      swap3\n      pop\n        /* \"#utility.yul\":8481:8482   */\n      dup3\n        /* \"#utility.yul\":8478:8479   */\n      dup3\n        /* \"#utility.yul\":8474:8483   */\n      mul\n        /* \"#utility.yul\":8503:8532   */\n      tag_190\n        /* \"#utility.yul\":8520:8531   */\n      dup2\n        /* \"#utility.yul\":8503:8532   */\n      tag_96\n      jump\t// in\n    tag_190:\n        /* \"#utility.yul\":8492:8532   */\n      swap2\n      pop\n        /* \"#utility.yul\":8590:8656   */\n      0x8000000000000000000000000000000000000000000000000000000000000000\n        /* \"#utility.yul\":8587:8588   */\n      dup5\n        /* \"#utility.yul\":8584:8657   */\n      eq\n        /* \"#utility.yul\":8580:8581   */\n      0x00\n        /* \"#utility.yul\":8577:8578   */\n      dup5\n        /* \"#utility.yul\":8573:8582   */\n      slt\n        /* \"#utility.yul\":8569:8658   */\n      and\n        /* \"#utility.yul\":8566:8681   */\n      iszero\n      tag_191\n      jumpi\n        /* \"#utility.yul\":8661:8679   */\n      tag_192\n      tag_91\n      jump\t// in\n    tag_192:\n        /* \"#utility.yul\":8566:8681   */\n    tag_191:\n        /* \"#utility.yul\":8831:8832   */\n      dup3\n        /* \"#utility.yul\":8822:8829   */\n      dup3\n        /* \"#utility.yul\":8817:8833   */\n      sdiv\n        /* \"#utility.yul\":8814:8815   */\n      dup5\n        /* \"#utility.yul\":8811:8834   */\n      eq\n        /* \"#utility.yul\":8791:8792   */\n      dup4\n        /* \"#utility.yul\":8784:8793   */\n      iszero\n        /* \"#utility.yul\":8764:8848   */\n      or\n        /* \"#utility.yul\":8741:8881   */\n      tag_193\n      jumpi\n        /* \"#utility.yul\":8861:8879   */\n      tag_194\n      tag_91\n      jump\t// in\n    tag_194:\n        /* \"#utility.yul\":8741:8881   */\n    tag_193:\n        /* \"#utility.yul\":8379:8888   */\n      pop\n        /* \"#utility.yul\":8332:8888   */\n      swap3\n      swap2\n      pop\n      pop\n      jump\t// out\n\n    auxdata: 0xa264697066735822122055d10c4287735abdd30a6c57b8c8b1ac4ae340fa40ab1d1a0e02e92613d5db9664736f6c63430008160033\n}\n",
				"bytecode": {
					"linkReferences": {},
					"object": "6080604052674563918244f400005f5534801561001a575f80fd5b50610a45806100285f395ff3fe60806040526004361061003e575f3560e01c80633ccfd60b14610042578063b60d428814610058578063cb78e6e114610062578063e875bc7c1461009e575b5f80fd5b34801561004d575f80fd5b506100566100c8565b005b610060610271565b005b34801561006d575f80fd5b50610088600480360381019061008391906105b1565b6103ba565b60405161009591906105f4565b60405180910390f35b3480156100a9575f80fd5b506100b26103cf565b6040516100bf91906105f4565b60405180910390f35b5f5b600180549050811015610166575f600182815481106100ec576100eb61060d565b5b905f5260205f20015f9054906101000a900473ffffffffffffffffffffffffffffffffffffffff1690505f60025f8373ffffffffffffffffffffffffffffffffffffffff1673ffffffffffffffffffffffffffffffffffffffff1681526020019081526020015f20819055505080806001019150506100ca565b505f67ffffffffffffffff8111156101815761018061063a565b5b6040519080825280602002602001820160405280156101af5781602001602082028036833780820191505090505b50600190805190602001906101c59291906104b1565b505f3373ffffffffffffffffffffffffffffffffffffffff16476040516101eb90610694565b5f6040518083038185875af1925050503d805f8114610225576040519150601f19603f3d011682016040523d82523d5f602084013e61022a565b606091505b505090508061026e576040517f08c379a000000000000000000000000000000000000000000000000000000000815260040161026590610702565b60405180910390fd5b50565b5f349050670de0b6b3a7640000610287346103d4565b10156102c8576040517f08c379a00000000000000000000000000000000000000000000000000000000081526004016102bf9061076a565b60405180910390fd5b5f339050600181908060018154018082558091505060019003905f5260205f20015f9091909190916101000a81548173ffffffffffffffffffffffffffffffffffffffff021916908373ffffffffffffffffffffffffffffffffffffffff1602179055508160025f8373ffffffffffffffffffffffffffffffffffffffff1673ffffffffffffffffffffffffffffffffffffffff1681526020019081526020015f205461037591906107b5565b60025f8373ffffffffffffffffffffffffffffffffffffffff1673ffffffffffffffffffffffffffffffffffffffff1681526020019081526020015f20819055505050565b6002602052805f5260405f205f915090505481565b5f5481565b5f806103de61040c565b90505f670de0b6b3a764000082856103f691906107e8565b6104009190610856565b90508092505050919050565b5f8073694aa1769357215de4fac081bf1f309adc32530690505f8173ffffffffffffffffffffffffffffffffffffffff1663feaf968c6040518163ffffffff1660e01b815260040160a060405180830381865afa15801561046f573d5f803e3d5ffd5b505050506040513d601f19601f820116820180604052508101906104939190610922565b5050509150506402540be400816104aa9190610999565b9250505090565b828054828255905f5260205f20908101928215610527579160200282015b82811115610526578251825f6101000a81548173ffffffffffffffffffffffffffffffffffffffff021916908373ffffffffffffffffffffffffffffffffffffffff160217905550916020019190600101906104cf565b5b5090506105349190610538565b5090565b5b8082111561054f575f815f905550600101610539565b5090565b5f80fd5b5f73ffffffffffffffffffffffffffffffffffffffff82169050919050565b5f61058082610557565b9050919050565b61059081610576565b811461059a575f80fd5b50565b5f813590506105ab81610587565b92915050565b5f602082840312156105c6576105c5610553565b5b5f6105d38482850161059d565b91505092915050565b5f819050919050565b6105ee816105dc565b82525050565b5f6020820190506106075f8301846105e5565b92915050565b7f4e487b71000000000000000000000000000000000000000000000000000000005f52603260045260245ffd5b7f4e487b71000000000000000000000000000000000000000000000000000000005f52604160045260245ffd5b5f81905092915050565b50565b5f61067f5f83610667565b915061068a82610671565b5f82019050919050565b5f61069e82610674565b9150819050919050565b5f82825260208201905092915050565b7f43616c6c206661696c65640000000000000000000000000000000000000000005f82015250565b5f6106ec600b836106a8565b91506106f7826106b8565b602082019050919050565b5f6020820190508181035f830152610719816106e0565b9050919050565b7f596f75206469646e27742073656e6420616e6f756768204554480000000000005f82015250565b5f610754601a836106a8565b915061075f82610720565b602082019050919050565b5f6020820190508181035f83015261078181610748565b9050919050565b7f4e487b71000000000000000000000000000000000000000000000000000000005f52601160045260245ffd5b5f6107bf826105dc565b91506107ca836105dc565b92508282019050808211156107e2576107e1610788565b5b92915050565b5f6107f2826105dc565b91506107fd836105dc565b925082820261080b816105dc565b9150828204841483151761082257610821610788565b5b5092915050565b7f4e487b71000000000000000000000000000000000000000000000000000000005f52601260045260245ffd5b5f610860826105dc565b915061086b836105dc565b92508261087b5761087a610829565b5b828204905092915050565b5f69ffffffffffffffffffff82169050919050565b6108a481610886565b81146108ae575f80fd5b50565b5f815190506108bf8161089b565b92915050565b5f819050919050565b6108d7816108c5565b81146108e1575f80fd5b50565b5f815190506108f2816108ce565b92915050565b610901816105dc565b811461090b575f80fd5b50565b5f8151905061091c816108f8565b92915050565b5f805f805f60a0868803121561093b5761093a610553565b5b5f610948888289016108b1565b9550506020610959888289016108e4565b945050604061096a8882890161090e565b935050606061097b8882890161090e565b925050608061098c888289016108b1565b9150509295509295909350565b5f6109a3826108c5565b91506109ae836108c5565b92508282026109bc816108c5565b91507f800000000000000000000000000000000000000000000000000000000000000084145f841216156109f3576109f2610788565b5b8282058414831517610a0857610a07610788565b5b509291505056fea264697066735822122055d10c4287735abdd30a6c57b8c8b1ac4ae340fa40ab1d1a0e02e92613d5db9664736f6c63430008160033",
					"opcodes": "PUSH1 0x80 PUSH1 0x40 MSTORE PUSH8 0x4563918244F40000 PUSH0 SSTORE CALLVALUE DUP1 ISZERO PUSH2 0x1A JUMPI PUSH0 DUP1 REVERT JUMPDEST POP PUSH2 0xA45 DUP1 PUSH2 0x28 PUSH0 CODECOPY PUSH0 RETURN INVALID PUSH1 0x80 PUSH1 0x40 MSTORE PUSH1 0x4 CALLDATASIZE LT PUSH2 0x3E JUMPI PUSH0 CALLDATALOAD PUSH1 0xE0 SHR DUP1 PUSH4 0x3CCFD60B EQ PUSH2 0x42 JUMPI DUP1 PUSH4 0xB60D4288 EQ PUSH2 0x58 JUMPI DUP1 PUSH4 0xCB78E6E1 EQ PUSH2 0x62 JUMPI DUP1 PUSH4 0xE875BC7C EQ PUSH2 0x9E JUMPI JUMPDEST PUSH0 DUP1 REVERT JUMPDEST CALLVALUE DUP1 ISZERO PUSH2 0x4D JUMPI PUSH0 DUP1 REVERT JUMPDEST POP PUSH2 0x56 PUSH2 0xC8 JUMP JUMPDEST STOP JUMPDEST PUSH2 0x60 PUSH2 0x271 JUMP JUMPDEST STOP JUMPDEST CALLVALUE DUP1 ISZERO PUSH2 0x6D JUMPI PUSH0 DUP1 REVERT JUMPDEST POP PUSH2 0x88 PUSH1 0x4 DUP1 CALLDATASIZE SUB DUP2 ADD SWAP1 PUSH2 0x83 SWAP2 SWAP1 PUSH2 0x5B1 JUMP JUMPDEST PUSH2 0x3BA JUMP JUMPDEST PUSH1 0x40 MLOAD PUSH2 0x95 SWAP2 SWAP1 PUSH2 0x5F4 JUMP JUMPDEST PUSH1 0x40 MLOAD DUP1 SWAP2 SUB SWAP1 RETURN JUMPDEST CALLVALUE DUP1 ISZERO PUSH2 0xA9 JUMPI PUSH0 DUP1 REVERT JUMPDEST POP PUSH2 0xB2 PUSH2 0x3CF JUMP JUMPDEST PUSH1 0x40 MLOAD PUSH2 0xBF SWAP2 SWAP1 PUSH2 0x5F4 JUMP JUMPDEST PUSH1 0x40 MLOAD DUP1 SWAP2 SUB SWAP1 RETURN JUMPDEST PUSH0 JUMPDEST PUSH1 0x1 DUP1 SLOAD SWAP1 POP DUP2 LT ISZERO PUSH2 0x166 JUMPI PUSH0 PUSH1 0x1 DUP3 DUP2 SLOAD DUP2 LT PUSH2 0xEC JUMPI PUSH2 0xEB PUSH2 0x60D JUMP JUMPDEST JUMPDEST SWAP1 PUSH0 MSTORE PUSH1 0x20 PUSH0 KECCAK256 ADD PUSH0 SWAP1 SLOAD SWAP1 PUSH2 0x100 EXP SWAP1 DIV PUSH20 0xFFFFFFFFFFFFFFFFFFFFFFFFFFFFFFFFFFFFFFFF AND SWAP1 POP PUSH0 PUSH1 0x2 PUSH0 DUP4 PUSH20 0xFFFFFFFFFFFFFFFFFFFFFFFFFFFFFFFFFFFFFFFF AND PUSH20 0xFFFFFFFFFFFFFFFFFFFFFFFFFFFFFFFFFFFFFFFF AND DUP2 MSTORE PUSH1 0x20 ADD SWAP1 DUP2 MSTORE PUSH1 0x20 ADD PUSH0 KECCAK256 DUP2 SWAP1 SSTORE POP POP DUP1 DUP1 PUSH1 0x1 ADD SWAP2 POP POP PUSH2 0xCA JUMP JUMPDEST POP PUSH0 PUSH8 0xFFFFFFFFFFFFFFFF DUP2 GT ISZERO PUSH2 0x181 JUMPI PUSH2 0x180 PUSH2 0x63A JUMP JUMPDEST JUMPDEST PUSH1 0x40 MLOAD SWAP1 DUP1 DUP3 MSTORE DUP1 PUSH1 0x20 MUL PUSH1 0x20 ADD DUP3 ADD PUSH1 0x40 MSTORE DUP1 ISZERO PUSH2 0x1AF JUMPI DUP2 PUSH1 0x20 ADD PUSH1 0x20 DUP3 MUL DUP1 CALLDATASIZE DUP4 CALLDATACOPY DUP1 DUP3 ADD SWAP2 POP POP SWAP1 POP JUMPDEST POP PUSH1 0x1 SWAP1 DUP1 MLOAD SWAP1 PUSH1 0x20 ADD SWAP1 PUSH2 0x1C5 SWAP3 SWAP2 SWAP1 PUSH2 0x4B1 JUMP JUMPDEST POP PUSH0 CALLER PUSH20 0xFFFFFFFFFFFFFFFFFFFFFFFFFFFFFFFFFFFFFFFF AND SELFBALANCE PUSH1 0x40 MLOAD PUSH2 0x1EB SWAP1 PUSH2 0x694 JUMP JUMPDEST PUSH0 PUSH1 0x40 MLOAD DUP1 DUP4 SUB DUP2 DUP6 DUP8 GAS CALL SWAP3 POP POP POP RETURNDATASIZE DUP1 PUSH0 DUP2 EQ PUSH2 0x225 JUMPI PUSH1 0x40 MLOAD SWAP2 POP PUSH1 0x1F NOT PUSH1 0x3F RETURNDATASIZE ADD AND DUP3 ADD PUSH1 0x40 MSTORE RETURNDATASIZE DUP3 MSTORE RETURNDATASIZE PUSH0 PUSH1 0x20 DUP5 ADD RETURNDATACOPY PUSH2 0x22A JUMP JUMPDEST PUSH1 0x60 SWAP2 POP JUMPDEST POP POP SWAP1 POP DUP1 PUSH2 0x26E JUMPI PUSH1 0x40 MLOAD PUSH32 0x8C379A000000000000000000000000000000000000000000000000000000000 DUP2 MSTORE PUSH1 0x4 ADD PUSH2 0x265 SWAP1 PUSH2 0x702 JUMP JUMPDEST PUSH1 0x40 MLOAD DUP1 SWAP2 SUB SWAP1 REVERT JUMPDEST POP JUMP JUMPDEST PUSH0 CALLVALUE SWAP1 POP PUSH8 0xDE0B6B3A7640000 PUSH2 0x287 CALLVALUE PUSH2 0x3D4 JUMP JUMPDEST LT ISZERO PUSH2 0x2C8 JUMPI PUSH1 0x40 MLOAD PUSH32 0x8C379A000000000000000000000000000000000000000000000000000000000 DUP2 MSTORE PUSH1 0x4 ADD PUSH2 0x2BF SWAP1 PUSH2 0x76A JUMP JUMPDEST PUSH1 0x40 MLOAD DUP1 SWAP2 SUB SWAP1 REVERT JUMPDEST PUSH0 CALLER SWAP1 POP PUSH1 0x1 DUP2 SWAP1 DUP1 PUSH1 0x1 DUP2 SLOAD ADD DUP1 DUP3 SSTORE DUP1 SWAP2 POP POP PUSH1 0x1 SWAP1 SUB SWAP1 PUSH0 MSTORE PUSH1 0x20 PUSH0 KECCAK256 ADD PUSH0 SWAP1 SWAP2 SWAP1 SWAP2 SWAP1 SWAP2 PUSH2 0x100 EXP DUP2 SLOAD DUP2 PUSH20 0xFFFFFFFFFFFFFFFFFFFFFFFFFFFFFFFFFFFFFFFF MUL NOT AND SWAP1 DUP4 PUSH20 0xFFFFFFFFFFFFFFFFFFFFFFFFFFFFFFFFFFFFFFFF AND MUL OR SWAP1 SSTORE POP DUP2 PUSH1 0x2 PUSH0 DUP4 PUSH20 0xFFFFFFFFFFFFFFFFFFFFFFFFFFFFFFFFFFFFFFFF AND PUSH20 0xFFFFFFFFFFFFFFFFFFFFFFFFFFFFFFFFFFFFFFFF AND DUP2 MSTORE PUSH1 0x20 ADD SWAP1 DUP2 MSTORE PUSH1 0x20 ADD PUSH0 KECCAK256 SLOAD PUSH2 0x375 SWAP2 SWAP1 PUSH2 0x7B5 JUMP JUMPDEST PUSH1 0x2 PUSH0 DUP4 PUSH20 0xFFFFFFFFFFFFFFFFFFFFFFFFFFFFFFFFFFFFFFFF AND PUSH20 0xFFFFFFFFFFFFFFFFFFFFFFFFFFFFFFFFFFFFFFFF AND DUP2 MSTORE PUSH1 0x20 ADD SWAP1 DUP2 MSTORE PUSH1 0x20 ADD PUSH0 KECCAK256 DUP2 SWAP1 SSTORE POP POP POP JUMP JUMPDEST PUSH1 0x2 PUSH1 0x20 MSTORE DUP1 PUSH0 MSTORE PUSH1 0x40 PUSH0 KECCAK256 PUSH0 SWAP2 POP SWAP1 POP SLOAD DUP2 JUMP JUMPDEST PUSH0 SLOAD DUP2 JUMP JUMPDEST PUSH0 DUP1 PUSH2 0x3DE PUSH2 0x40C JUMP JUMPDEST SWAP1 POP PUSH0 PUSH8 0xDE0B6B3A7640000 DUP3 DUP6 PUSH2 0x3F6 SWAP2 SWAP1 PUSH2 0x7E8 JUMP JUMPDEST PUSH2 0x400 SWAP2 SWAP1 PUSH2 0x856 JUMP JUMPDEST SWAP1 POP DUP1 SWAP3 POP POP POP SWAP2 SWAP1 POP JUMP JUMPDEST PUSH0 DUP1 PUSH20 0x694AA1769357215DE4FAC081BF1F309ADC325306 SWAP1 POP PUSH0 DUP2 PUSH20 0xFFFFFFFFFFFFFFFFFFFFFFFFFFFFFFFFFFFFFFFF AND PUSH4 0xFEAF968C PUSH1 0x40 MLOAD DUP2 PUSH4 0xFFFFFFFF AND PUSH1 0xE0 SHL DUP2 MSTORE PUSH1 0x4 ADD PUSH1 0xA0 PUSH1 0x40 MLOAD DUP1 DUP4 SUB DUP2 DUP7 GAS STATICCALL ISZERO DUP1 ISZERO PUSH2 0x46F JUMPI RETURNDATASIZE PUSH0 DUP1 RETURNDATACOPY RETURNDATASIZE PUSH0 REVERT JUMPDEST POP POP POP POP PUSH1 0x40 MLOAD RETURNDATASIZE PUSH1 0x1F NOT PUSH1 0x1F DUP3 ADD AND DUP3 ADD DUP1 PUSH1 0x40 MSTORE POP DUP2 ADD SWAP1 PUSH2 0x493 SWAP2 SWAP1 PUSH2 0x922 JUMP JUMPDEST POP POP POP SWAP2 POP POP PUSH5 0x2540BE400 DUP2 PUSH2 0x4AA SWAP2 SWAP1 PUSH2 0x999 JUMP JUMPDEST SWAP3 POP POP POP SWAP1 JUMP JUMPDEST DUP3 DUP1 SLOAD DUP3 DUP3 SSTORE SWAP1 PUSH0 MSTORE PUSH1 0x20 PUSH0 KECCAK256 SWAP1 DUP2 ADD SWAP3 DUP3 ISZERO PUSH2 0x527 JUMPI SWAP2 PUSH1 0x20 MUL DUP3 ADD JUMPDEST DUP3 DUP2 GT ISZERO PUSH2 0x526 JUMPI DUP3 MLOAD DUP3 PUSH0 PUSH2 0x100 EXP DUP2 SLOAD DUP2 PUSH20 0xFFFFFFFFFFFFFFFFFFFFFFFFFFFFFFFFFFFFFFFF MUL NOT AND SWAP1 DUP4 PUSH20 0xFFFFFFFFFFFFFFFFFFFFFFFFFFFFFFFFFFFFFFFF AND MUL OR SWAP1 SSTORE POP SWAP2 PUSH1 0x20 ADD SWAP2 SWAP1 PUSH1 0x1 ADD SWAP1 PUSH2 0x4CF JUMP JUMPDEST JUMPDEST POP SWAP1 POP PUSH2 0x534 SWAP2 SWAP1 PUSH2 0x538 JUMP JUMPDEST POP SWAP1 JUMP JUMPDEST JUMPDEST DUP1 DUP3 GT ISZERO PUSH2 0x54F JUMPI PUSH0 DUP2 PUSH0 SWAP1 SSTORE POP PUSH1 0x1 ADD PUSH2 0x539 JUMP JUMPDEST POP SWAP1 JUMP JUMPDEST PUSH0 DUP1 REVERT JUMPDEST PUSH0 PUSH20 0xFFFFFFFFFFFFFFFFFFFFFFFFFFFFFFFFFFFFFFFF DUP3 AND SWAP1 POP SWAP2 SWAP1 POP JUMP JUMPDEST PUSH0 PUSH2 0x580 DUP3 PUSH2 0x557 JUMP JUMPDEST SWAP1 POP SWAP2 SWAP1 POP JUMP JUMPDEST PUSH2 0x590 DUP2 PUSH2 0x576 JUMP JUMPDEST DUP2 EQ PUSH2 0x59A JUMPI PUSH0 DUP1 REVERT JUMPDEST POP JUMP JUMPDEST PUSH0 DUP2 CALLDATALOAD SWAP1 POP PUSH2 0x5AB DUP2 PUSH2 0x587 JUMP JUMPDEST SWAP3 SWAP2 POP POP JUMP JUMPDEST PUSH0 PUSH1 0x20 DUP3 DUP5 SUB SLT ISZERO PUSH2 0x5C6 JUMPI PUSH2 0x5C5 PUSH2 0x553 JUMP JUMPDEST JUMPDEST PUSH0 PUSH2 0x5D3 DUP5 DUP3 DUP6 ADD PUSH2 0x59D JUMP JUMPDEST SWAP2 POP POP SWAP3 SWAP2 POP POP JUMP JUMPDEST PUSH0 DUP2 SWAP1 POP SWAP2 SWAP1 POP JUMP JUMPDEST PUSH2 0x5EE DUP2 PUSH2 0x5DC JUMP JUMPDEST DUP3 MSTORE POP POP JUMP JUMPDEST PUSH0 PUSH1 0x20 DUP3 ADD SWAP1 POP PUSH2 0x607 PUSH0 DUP4 ADD DUP5 PUSH2 0x5E5 JUMP JUMPDEST SWAP3 SWAP2 POP POP JUMP JUMPDEST PUSH32 0x4E487B7100000000000000000000000000000000000000000000000000000000 PUSH0 MSTORE PUSH1 0x32 PUSH1 0x4 MSTORE PUSH1 0x24 PUSH0 REVERT JUMPDEST PUSH32 0x4E487B7100000000000000000000000000000000000000000000000000000000 PUSH0 MSTORE PUSH1 0x41 PUSH1 0x4 MSTORE PUSH1 0x24 PUSH0 REVERT JUMPDEST PUSH0 DUP2 SWAP1 POP SWAP3 SWAP2 POP POP JUMP JUMPDEST POP JUMP JUMPDEST PUSH0 PUSH2 0x67F PUSH0 DUP4 PUSH2 0x667 JUMP JUMPDEST SWAP2 POP PUSH2 0x68A DUP3 PUSH2 0x671 JUMP JUMPDEST PUSH0 DUP3 ADD SWAP1 POP SWAP2 SWAP1 POP JUMP JUMPDEST PUSH0 PUSH2 0x69E DUP3 PUSH2 0x674 JUMP JUMPDEST SWAP2 POP DUP2 SWAP1 POP SWAP2 SWAP1 POP JUMP JUMPDEST PUSH0 DUP3 DUP3 MSTORE PUSH1 0x20 DUP3 ADD SWAP1 POP SWAP3 SWAP2 POP POP JUMP JUMPDEST PUSH32 0x43616C6C206661696C6564000000000000000000000000000000000000000000 PUSH0 DUP3 ADD MSTORE POP JUMP JUMPDEST PUSH0 PUSH2 0x6EC PUSH1 0xB DUP4 PUSH2 0x6A8 JUMP JUMPDEST SWAP2 POP PUSH2 0x6F7 DUP3 PUSH2 0x6B8 JUMP JUMPDEST PUSH1 0x20 DUP3 ADD SWAP1 POP SWAP2 SWAP1 POP JUMP JUMPDEST PUSH0 PUSH1 0x20 DUP3 ADD SWAP1 POP DUP2 DUP2 SUB PUSH0 DUP4 ADD MSTORE PUSH2 0x719 DUP2 PUSH2 0x6E0 JUMP JUMPDEST SWAP1 POP SWAP2 SWAP1 POP JUMP JUMPDEST PUSH32 0x596F75206469646E27742073656E6420616E6F75676820455448000000000000 PUSH0 DUP3 ADD MSTORE POP JUMP JUMPDEST PUSH0 PUSH2 0x754 PUSH1 0x1A DUP4 PUSH2 0x6A8 JUMP JUMPDEST SWAP2 POP PUSH2 0x75F DUP3 PUSH2 0x720 JUMP JUMPDEST PUSH1 0x20 DUP3 ADD SWAP1 POP SWAP2 SWAP1 POP JUMP JUMPDEST PUSH0 PUSH1 0x20 DUP3 ADD SWAP1 POP DUP2 DUP2 SUB PUSH0 DUP4 ADD MSTORE PUSH2 0x781 DUP2 PUSH2 0x748 JUMP JUMPDEST SWAP1 POP SWAP2 SWAP1 POP JUMP JUMPDEST PUSH32 0x4E487B7100000000000000000000000000000000000000000000000000000000 PUSH0 MSTORE PUSH1 0x11 PUSH1 0x4 MSTORE PUSH1 0x24 PUSH0 REVERT JUMPDEST PUSH0 PUSH2 0x7BF DUP3 PUSH2 0x5DC JUMP JUMPDEST SWAP2 POP PUSH2 0x7CA DUP4 PUSH2 0x5DC JUMP JUMPDEST SWAP3 POP DUP3 DUP3 ADD SWAP1 POP DUP1 DUP3 GT ISZERO PUSH2 0x7E2 JUMPI PUSH2 0x7E1 PUSH2 0x788 JUMP JUMPDEST JUMPDEST SWAP3 SWAP2 POP POP JUMP JUMPDEST PUSH0 PUSH2 0x7F2 DUP3 PUSH2 0x5DC JUMP JUMPDEST SWAP2 POP PUSH2 0x7FD DUP4 PUSH2 0x5DC JUMP JUMPDEST SWAP3 POP DUP3 DUP3 MUL PUSH2 0x80B DUP2 PUSH2 0x5DC JUMP JUMPDEST SWAP2 POP DUP3 DUP3 DIV DUP5 EQ DUP4 ISZERO OR PUSH2 0x822 JUMPI PUSH2 0x821 PUSH2 0x788 JUMP JUMPDEST JUMPDEST POP SWAP3 SWAP2 POP POP JUMP JUMPDEST PUSH32 0x4E487B7100000000000000000000000000000000000000000000000000000000 PUSH0 MSTORE PUSH1 0x12 PUSH1 0x4 MSTORE PUSH1 0x24 PUSH0 REVERT JUMPDEST PUSH0 PUSH2 0x860 DUP3 PUSH2 0x5DC JUMP JUMPDEST SWAP2 POP PUSH2 0x86B DUP4 PUSH2 0x5DC JUMP JUMPDEST SWAP3 POP DUP3 PUSH2 0x87B JUMPI PUSH2 0x87A PUSH2 0x829 JUMP JUMPDEST JUMPDEST DUP3 DUP3 DIV SWAP1 POP SWAP3 SWAP2 POP POP JUMP JUMPDEST PUSH0 PUSH10 0xFFFFFFFFFFFFFFFFFFFF DUP3 AND SWAP1 POP SWAP2 SWAP1 POP JUMP JUMPDEST PUSH2 0x8A4 DUP2 PUSH2 0x886 JUMP JUMPDEST DUP2 EQ PUSH2 0x8AE JUMPI PUSH0 DUP1 REVERT JUMPDEST POP JUMP JUMPDEST PUSH0 DUP2 MLOAD SWAP1 POP PUSH2 0x8BF DUP2 PUSH2 0x89B JUMP JUMPDEST SWAP3 SWAP2 POP POP JUMP JUMPDEST PUSH0 DUP2 SWAP1 POP SWAP2 SWAP1 POP JUMP JUMPDEST PUSH2 0x8D7 DUP2 PUSH2 0x8C5 JUMP JUMPDEST DUP2 EQ PUSH2 0x8E1 JUMPI PUSH0 DUP1 REVERT JUMPDEST POP JUMP JUMPDEST PUSH0 DUP2 MLOAD SWAP1 POP PUSH2 0x8F2 DUP2 PUSH2 0x8CE JUMP JUMPDEST SWAP3 SWAP2 POP POP JUMP JUMPDEST PUSH2 0x901 DUP2 PUSH2 0x5DC JUMP JUMPDEST DUP2 EQ PUSH2 0x90B JUMPI PUSH0 DUP1 REVERT JUMPDEST POP JUMP JUMPDEST PUSH0 DUP2 MLOAD SWAP1 POP PUSH2 0x91C DUP2 PUSH2 0x8F8 JUMP JUMPDEST SWAP3 SWAP2 POP POP JUMP JUMPDEST PUSH0 DUP1 PUSH0 DUP1 PUSH0 PUSH1 0xA0 DUP7 DUP9 SUB SLT ISZERO PUSH2 0x93B JUMPI PUSH2 0x93A PUSH2 0x553 JUMP JUMPDEST JUMPDEST PUSH0 PUSH2 0x948 DUP9 DUP3 DUP10 ADD PUSH2 0x8B1 JUMP JUMPDEST SWAP6 POP POP PUSH1 0x20 PUSH2 0x959 DUP9 DUP3 DUP10 ADD PUSH2 0x8E4 JUMP JUMPDEST SWAP5 POP POP PUSH1 0x40 PUSH2 0x96A DUP9 DUP3 DUP10 ADD PUSH2 0x90E JUMP JUMPDEST SWAP4 POP POP PUSH1 0x60 PUSH2 0x97B DUP9 DUP3 DUP10 ADD PUSH2 0x90E JUMP JUMPDEST SWAP3 POP POP PUSH1 0x80 PUSH2 0x98C DUP9 DUP3 DUP10 ADD PUSH2 0x8B1 JUMP JUMPDEST SWAP2 POP POP SWAP3 SWAP6 POP SWAP3 SWAP6 SWAP1 SWAP4 POP JUMP JUMPDEST PUSH0 PUSH2 0x9A3 DUP3 PUSH2 0x8C5 JUMP JUMPDEST SWAP2 POP PUSH2 0x9AE DUP4 PUSH2 0x8C5 JUMP JUMPDEST SWAP3 POP DUP3 DUP3 MUL PUSH2 0x9BC DUP2 PUSH2 0x8C5 JUMP JUMPDEST SWAP2 POP PUSH32 0x8000000000000000000000000000000000000000000000000000000000000000 DUP5 EQ PUSH0 DUP5 SLT AND ISZERO PUSH2 0x9F3 JUMPI PUSH2 0x9F2 PUSH2 0x788 JUMP JUMPDEST JUMPDEST DUP3 DUP3 SDIV DUP5 EQ DUP4 ISZERO OR PUSH2 0xA08 JUMPI PUSH2 0xA07 PUSH2 0x788 JUMP JUMPDEST JUMPDEST POP SWAP3 SWAP2 POP POP JUMP INVALID LOG2 PUSH5 0x6970667358 0x22 SLT KECCAK256 SSTORE 0xD1 0xC TIMESTAMP DUP8 PUSH20 0x5ABDD30A6C57B8C8B1AC4AE340FA40AB1D1A0E02 0xE9 0x26 SGT 0xD5 0xDB SWAP7 PUSH5 0x736F6C6343 STOP ADDMOD AND STOP CALLER "
				},
				"gasEstimates": {
					"creation": {
						"codeDepositCost": "525800",
						"executionCost": "22665",
						"totalCost": "548465"
					},
					"external": {
						"addressToAmoutFunded(address)": "2824",
						"fund()": "infinite",
						"minimunInDollars()": "2468",
						"withdraw()": "infinite"
					}
				},
				"methodIdentifiers": {
					"addressToAmoutFunded(address)": "cb78e6e1",
					"fund()": "b60d4288",
					"minimunInDollars()": "e875bc7c",
					"withdraw()": "3ccfd60b"
				}
			},
			"storageLayout": {
				"storage": [
					{
						"astId": 55,
						"contract": "FundMe.sol:FundMe",
						"label": "minimunInDollars",
						"offset": 0,
						"slot": "0",
						"type": "t_uint256"
					},
					{
						"astId": 58,
						"contract": "FundMe.sol:FundMe",
						"label": "funders",
						"offset": 0,
						"slot": "1",
						"type": "t_array(t_address)dyn_storage"
					},
					{
						"astId": 62,
						"contract": "FundMe.sol:FundMe",
						"label": "addressToAmoutFunded",
						"offset": 0,
						"slot": "2",
						"type": "t_mapping(t_address,t_uint256)"
					}
				],
				"types": {
					"t_address": {
						"encoding": "inplace",
						"label": "address",
						"numberOfBytes": "20"
					},
					"t_array(t_address)dyn_storage": {
						"base": "t_address",
						"encoding": "dynamic_array",
						"label": "address[]",
						"numberOfBytes": "32"
					},
					"t_mapping(t_address,t_uint256)": {
						"encoding": "mapping",
						"key": "t_address",
						"label": "mapping(address => uint256)",
						"numberOfBytes": "32",
						"value": "t_uint256"
					},
					"t_uint256": {
						"encoding": "inplace",
						"label": "uint256",
						"numberOfBytes": "32"
					}
				}
			},
			"userdoc": {
				"kind": "user",
				"methods": {},
				"version": 1
			}
		}
	}
}