{
	"FundMe.sol": {
		"FundMe": {
			"abi": [
				{
					"inputs": [
						{
							"internalType": "address",
							"name": "funder",
							"type": "address"
						}
					],
					"name": "addressToAmoutFunded",
					"outputs": [
						{
							"internalType": "uint256",
							"name": "amountFunded",
							"type": "uint256"
						}
					],
					"stateMutability": "view",
					"type": "function"
				},
				{
					"inputs": [],
					"name": "fund",
					"outputs": [],
					"stateMutability": "payable",
					"type": "function"
				},
				{
					"inputs": [],
					"name": "minimunInDollars",
					"outputs": [
						{
							"internalType": "uint256",
							"name": "",
							"type": "uint256"
						}
					],
					"stateMutability": "view",
					"type": "function"
				}
			],
			"devdoc": {
				"kind": "dev",
				"methods": {},
				"version": 1
			},
			"evm": {
				"assembly": "    /* \"FundMe.sol\":122:685  contract FundMe {... */\n  mstore(0x40, 0x80)\n    /* \"FundMe.sol\":210:214  5e18 */\n  0x4563918244f40000\n    /* \"FundMe.sol\":179:214  uint public minimunInDollars = 5e18 */\n  0x00\n  sstore\n    /* \"FundMe.sol\":122:685  contract FundMe {... */\n  callvalue\n  dup1\n  iszero\n  tag_1\n  jumpi\n  0x00\n  dup1\n  revert\ntag_1:\n  pop\n  dataSize(sub_0)\n  dup1\n  dataOffset(sub_0)\n  0x00\n  codecopy\n  0x00\n  return\nstop\n\nsub_0: assembly {\n        /* \"FundMe.sol\":122:685  contract FundMe {... */\n      mstore(0x40, 0x80)\n      jumpi(tag_1, lt(calldatasize, 0x04))\n      shr(0xe0, calldataload(0x00))\n      dup1\n      0xb60d4288\n      eq\n      tag_2\n      jumpi\n      dup1\n      0xcb78e6e1\n      eq\n      tag_3\n      jumpi\n      dup1\n      0xe875bc7c\n      eq\n      tag_4\n      jumpi\n    tag_1:\n      0x00\n      dup1\n      revert\n        /* \"FundMe.sol\":323:678  function fund() public payable {... */\n    tag_2:\n      tag_5\n      tag_6\n      jump\t// in\n    tag_5:\n      stop\n        /* \"FundMe.sol\":244:316  mapping(address funder => uint amountFunded) public addressToAmoutFunded */\n    tag_3:\n      callvalue\n      dup1\n      iszero\n      tag_7\n      jumpi\n      0x00\n      dup1\n      revert\n    tag_7:\n      pop\n      tag_8\n      0x04\n      dup1\n      calldatasize\n      sub\n      dup2\n      add\n      swap1\n      tag_9\n      swap2\n      swap1\n      tag_10\n      jump\t// in\n    tag_9:\n      tag_11\n      jump\t// in\n    tag_8:\n      mload(0x40)\n      tag_12\n      swap2\n      swap1\n      tag_13\n      jump\t// in\n    tag_12:\n      mload(0x40)\n      dup1\n      swap2\n      sub\n      swap1\n      return\n        /* \"FundMe.sol\":179:214  uint public minimunInDollars = 5e18 */\n    tag_4:\n      callvalue\n      dup1\n      iszero\n      tag_14\n      jumpi\n      0x00\n      dup1\n      revert\n    tag_14:\n      pop\n      tag_15\n      tag_16\n      jump\t// in\n    tag_15:\n      mload(0x40)\n      tag_17\n      swap2\n      swap1\n      tag_13\n      jump\t// in\n    tag_17:\n      mload(0x40)\n      dup1\n      swap2\n      sub\n      swap1\n      return\n        /* \"FundMe.sol\":323:678  function fund() public payable {... */\n    tag_6:\n        /* \"FundMe.sol\":364:377  uint ethValue */\n      0x00\n        /* \"FundMe.sol\":380:389  msg.value */\n      callvalue\n        /* \"FundMe.sol\":364:389  uint ethValue = msg.value */\n      swap1\n      pop\n        /* \"FundMe.sol\":440:444  1e18 */\n      0x0de0b6b3a7640000\n        /* \"FundMe.sol\":407:436  msg.value.getConversionRate() */\n      tag_19\n        /* \"FundMe.sol\":407:416  msg.value */\n      callvalue\n        /* \"FundMe.sol\":407:434  msg.value.getConversionRate */\n      tag_20\n        /* \"FundMe.sol\":407:436  msg.value.getConversionRate() */\n      jump\t// in\n    tag_19:\n        /* \"FundMe.sol\":407:444  msg.value.getConversionRate() >= 1e18 */\n      lt\n      iszero\n        /* \"FundMe.sol\":399:475  require(msg.value.getConversionRate() >= 1e18, \"You didn't send anough ETH\") */\n      tag_21\n      jumpi\n      mload(0x40)\n      0x08c379a000000000000000000000000000000000000000000000000000000000\n      dup2\n      mstore\n      0x04\n      add\n      tag_22\n      swap1\n      tag_23\n      jump\t// in\n    tag_22:\n      mload(0x40)\n      dup1\n      swap2\n      sub\n      swap1\n      revert\n    tag_21:\n        /* \"FundMe.sol\":533:547  address funder */\n      0x00\n        /* \"FundMe.sol\":550:560  msg.sender */\n      caller\n        /* \"FundMe.sol\":533:560  address funder = msg.sender */\n      swap1\n      pop\n        /* \"FundMe.sol\":571:578  funders */\n      0x01\n        /* \"FundMe.sol\":584:590  funder */\n      dup2\n        /* \"FundMe.sol\":571:591  funders.push(funder) */\n      swap1\n      dup1\n      0x01\n      dup2\n      sload\n      add\n      dup1\n      dup3\n      sstore\n      dup1\n      swap2\n      pop\n      pop\n      0x01\n      swap1\n      sub\n      swap1\n      0x00\n      mstore\n      keccak256(0x00, 0x20)\n      add\n      0x00\n      swap1\n      swap2\n      swap1\n      swap2\n      swap1\n      swap2\n      0x0100\n      exp\n      dup2\n      sload\n      dup2\n      0xffffffffffffffffffffffffffffffffffffffff\n      mul\n      not\n      and\n      swap1\n      dup4\n      0xffffffffffffffffffffffffffffffffffffffff\n      and\n      mul\n      or\n      swap1\n      sstore\n      pop\n        /* \"FundMe.sol\":663:671  ethValue */\n      dup2\n        /* \"FundMe.sol\":632:652  addressToAmoutFunded */\n      0x02\n        /* \"FundMe.sol\":632:660  addressToAmoutFunded[funder] */\n      0x00\n        /* \"FundMe.sol\":653:659  funder */\n      dup4\n        /* \"FundMe.sol\":632:660  addressToAmoutFunded[funder] */\n      0xffffffffffffffffffffffffffffffffffffffff\n      and\n      0xffffffffffffffffffffffffffffffffffffffff\n      and\n      dup2\n      mstore\n      0x20\n      add\n      swap1\n      dup2\n      mstore\n      0x20\n      add\n      0x00\n      keccak256\n      sload\n        /* \"FundMe.sol\":632:671  addressToAmoutFunded[funder] + ethValue */\n      tag_25\n      swap2\n      swap1\n      tag_26\n      jump\t// in\n    tag_25:\n        /* \"FundMe.sol\":601:621  addressToAmoutFunded */\n      0x02\n        /* \"FundMe.sol\":601:629  addressToAmoutFunded[funder] */\n      0x00\n        /* \"FundMe.sol\":622:628  funder */\n      dup4\n        /* \"FundMe.sol\":601:629  addressToAmoutFunded[funder] */\n      0xffffffffffffffffffffffffffffffffffffffff\n      and\n      0xffffffffffffffffffffffffffffffffffffffff\n      and\n      dup2\n      mstore\n      0x20\n      add\n      swap1\n      dup2\n      mstore\n      0x20\n      add\n      0x00\n      keccak256\n        /* \"FundMe.sol\":601:671  addressToAmoutFunded[funder] = addressToAmoutFunded[funder] + ethValue */\n      dup2\n      swap1\n      sstore\n      pop\n        /* \"FundMe.sol\":354:678  {... */\n      pop\n      pop\n        /* \"FundMe.sol\":323:678  function fund() public payable {... */\n      jump\t// out\n        /* \"FundMe.sol\":244:316  mapping(address funder => uint amountFunded) public addressToAmoutFunded */\n    tag_11:\n      mstore(0x20, 0x02)\n      dup1\n      0x00\n      mstore\n      keccak256(0x00, 0x40)\n      0x00\n      swap2\n      pop\n      swap1\n      pop\n      sload\n      dup2\n      jump\t// out\n        /* \"FundMe.sol\":179:214  uint public minimunInDollars = 5e18 */\n    tag_16:\n      sload(0x00)\n      dup2\n      jump\t// out\n        /* \"PriceConverter.sol\":632:838  function getConversionRate(uint ethAmount) internal view returns (uint){... */\n    tag_20:\n        /* \"PriceConverter.sol\":698:702  uint */\n      0x00\n        /* \"PriceConverter.sol\":713:726  uint ethPrice */\n      dup1\n        /* \"PriceConverter.sol\":729:739  getPrice() */\n      tag_28\n        /* \"PriceConverter.sol\":729:737  getPrice */\n      tag_29\n        /* \"PriceConverter.sol\":729:739  getPrice() */\n      jump\t// in\n    tag_28:\n        /* \"PriceConverter.sol\":713:739  uint ethPrice = getPrice() */\n      swap1\n      pop\n        /* \"PriceConverter.sol\":749:768  uint ethAmountInUsd */\n      0x00\n        /* \"PriceConverter.sol\":796:800  1e18 */\n      0x0de0b6b3a7640000\n        /* \"PriceConverter.sol\":784:792  ethPrice */\n      dup3\n        /* \"PriceConverter.sol\":772:781  ethAmount */\n      dup6\n        /* \"PriceConverter.sol\":772:792  ethAmount * ethPrice */\n      tag_30\n      swap2\n      swap1\n      tag_31\n      jump\t// in\n    tag_30:\n        /* \"PriceConverter.sol\":771:800  (ethAmount * ethPrice) / 1e18 */\n      tag_32\n      swap2\n      swap1\n      tag_33\n      jump\t// in\n    tag_32:\n        /* \"PriceConverter.sol\":749:800  uint ethAmountInUsd = (ethAmount * ethPrice) / 1e18 */\n      swap1\n      pop\n        /* \"PriceConverter.sol\":817:831  ethAmountInUsd */\n      dup1\n        /* \"PriceConverter.sol\":810:831  return ethAmountInUsd */\n      swap3\n      pop\n      pop\n      pop\n        /* \"PriceConverter.sol\":632:838  function getConversionRate(uint ethAmount) internal view returns (uint){... */\n      swap2\n      swap1\n      pop\n      jump\t// out\n        /* \"PriceConverter.sol\":205:626  function getPrice() internal view returns (uint256) {... */\n    tag_29:\n        /* \"PriceConverter.sol\":248:255  uint256 */\n      0x00\n        /* \"PriceConverter.sol\":267:298  AggregatorV3Interface priceFeed */\n      dup1\n        /* \"PriceConverter.sol\":323:365  0x694AA1769357215DE4FAC081bf1f309aDC325306 */\n      0x694aa1769357215de4fac081bf1f309adc325306\n        /* \"PriceConverter.sol\":267:366  AggregatorV3Interface priceFeed = AggregatorV3Interface(0x694AA1769357215DE4FAC081bf1f309aDC325306) */\n      swap1\n      pop\n        /* \"PriceConverter.sol\":424:434  int answer */\n      0x00\n        /* \"PriceConverter.sol\":551:560  priceFeed */\n      dup2\n        /* \"PriceConverter.sol\":551:576  priceFeed.latestRoundData */\n      0xffffffffffffffffffffffffffffffffffffffff\n      and\n      0xfeaf968c\n        /* \"PriceConverter.sol\":551:578  priceFeed.latestRoundData() */\n      mload(0x40)\n      dup2\n      0xffffffff\n      and\n      0xe0\n      shl\n      dup2\n      mstore\n      0x04\n      add\n      0xa0\n      mload(0x40)\n      dup1\n      dup4\n      sub\n      dup2\n      dup7\n      gas\n      staticcall\n      iszero\n      dup1\n      iszero\n      tag_36\n      jumpi\n      returndatasize\n      0x00\n      dup1\n      returndatacopy\n      revert(0x00, returndatasize)\n    tag_36:\n      pop\n      pop\n      pop\n      pop\n      mload(0x40)\n      returndatasize\n      not(0x1f)\n      0x1f\n      dup3\n      add\n      and\n      dup3\n      add\n      dup1\n      0x40\n      mstore\n      pop\n      dup2\n      add\n      swap1\n      tag_37\n      swap2\n      swap1\n      tag_38\n      jump\t// in\n    tag_37:\n        /* \"PriceConverter.sol\":376:578  (... */\n      pop\n      pop\n      pop\n      swap2\n      pop\n      pop\n        /* \"PriceConverter.sol\":614:618  1e10 */\n      0x02540be400\n        /* \"PriceConverter.sol\":605:611  answer */\n      dup2\n        /* \"PriceConverter.sol\":605:618  answer * 1e10 */\n      tag_39\n      swap2\n      swap1\n      tag_40\n      jump\t// in\n    tag_39:\n        /* \"PriceConverter.sol\":593:619  return uint(answer * 1e10) */\n      swap3\n      pop\n      pop\n      pop\n        /* \"PriceConverter.sol\":205:626  function getPrice() internal view returns (uint256) {... */\n      swap1\n      jump\t// out\n        /* \"#utility.yul\":88:205   */\n    tag_42:\n        /* \"#utility.yul\":197:198   */\n      0x00\n        /* \"#utility.yul\":194:195   */\n      dup1\n        /* \"#utility.yul\":187:199   */\n      revert\n        /* \"#utility.yul\":334:460   */\n    tag_44:\n        /* \"#utility.yul\":371:378   */\n      0x00\n        /* \"#utility.yul\":411:453   */\n      0xffffffffffffffffffffffffffffffffffffffff\n        /* \"#utility.yul\":404:409   */\n      dup3\n        /* \"#utility.yul\":400:454   */\n      and\n        /* \"#utility.yul\":389:454   */\n      swap1\n      pop\n        /* \"#utility.yul\":334:460   */\n      swap2\n      swap1\n      pop\n      jump\t// out\n        /* \"#utility.yul\":466:562   */\n    tag_45:\n        /* \"#utility.yul\":503:510   */\n      0x00\n        /* \"#utility.yul\":532:556   */\n      tag_69\n        /* \"#utility.yul\":550:555   */\n      dup3\n        /* \"#utility.yul\":532:556   */\n      tag_44\n      jump\t// in\n    tag_69:\n        /* \"#utility.yul\":521:556   */\n      swap1\n      pop\n        /* \"#utility.yul\":466:562   */\n      swap2\n      swap1\n      pop\n      jump\t// out\n        /* \"#utility.yul\":568:690   */\n    tag_46:\n        /* \"#utility.yul\":641:665   */\n      tag_71\n        /* \"#utility.yul\":659:664   */\n      dup2\n        /* \"#utility.yul\":641:665   */\n      tag_45\n      jump\t// in\n    tag_71:\n        /* \"#utility.yul\":634:639   */\n      dup2\n        /* \"#utility.yul\":631:666   */\n      eq\n        /* \"#utility.yul\":621:684   */\n      tag_72\n      jumpi\n        /* \"#utility.yul\":680:681   */\n      0x00\n        /* \"#utility.yul\":677:678   */\n      dup1\n        /* \"#utility.yul\":670:682   */\n      revert\n        /* \"#utility.yul\":621:684   */\n    tag_72:\n        /* \"#utility.yul\":568:690   */\n      pop\n      jump\t// out\n        /* \"#utility.yul\":696:835   */\n    tag_47:\n        /* \"#utility.yul\":742:747   */\n      0x00\n        /* \"#utility.yul\":780:786   */\n      dup2\n        /* \"#utility.yul\":767:787   */\n      calldataload\n        /* \"#utility.yul\":758:787   */\n      swap1\n      pop\n        /* \"#utility.yul\":796:829   */\n      tag_74\n        /* \"#utility.yul\":823:828   */\n      dup2\n        /* \"#utility.yul\":796:829   */\n      tag_46\n      jump\t// in\n    tag_74:\n        /* \"#utility.yul\":696:835   */\n      swap3\n      swap2\n      pop\n      pop\n      jump\t// out\n        /* \"#utility.yul\":841:1170   */\n    tag_10:\n        /* \"#utility.yul\":900:906   */\n      0x00\n        /* \"#utility.yul\":949:951   */\n      0x20\n        /* \"#utility.yul\":937:946   */\n      dup3\n        /* \"#utility.yul\":928:935   */\n      dup5\n        /* \"#utility.yul\":924:947   */\n      sub\n        /* \"#utility.yul\":920:952   */\n      slt\n        /* \"#utility.yul\":917:1036   */\n      iszero\n      tag_76\n      jumpi\n        /* \"#utility.yul\":955:1034   */\n      tag_77\n      tag_42\n      jump\t// in\n    tag_77:\n        /* \"#utility.yul\":917:1036   */\n    tag_76:\n        /* \"#utility.yul\":1075:1076   */\n      0x00\n        /* \"#utility.yul\":1100:1153   */\n      tag_78\n        /* \"#utility.yul\":1145:1152   */\n      dup5\n        /* \"#utility.yul\":1136:1142   */\n      dup3\n        /* \"#utility.yul\":1125:1134   */\n      dup6\n        /* \"#utility.yul\":1121:1143   */\n      add\n        /* \"#utility.yul\":1100:1153   */\n      tag_47\n      jump\t// in\n    tag_78:\n        /* \"#utility.yul\":1090:1153   */\n      swap2\n      pop\n        /* \"#utility.yul\":1046:1163   */\n      pop\n        /* \"#utility.yul\":841:1170   */\n      swap3\n      swap2\n      pop\n      pop\n      jump\t// out\n        /* \"#utility.yul\":1176:1253   */\n    tag_48:\n        /* \"#utility.yul\":1213:1220   */\n      0x00\n        /* \"#utility.yul\":1242:1247   */\n      dup2\n        /* \"#utility.yul\":1231:1247   */\n      swap1\n      pop\n        /* \"#utility.yul\":1176:1253   */\n      swap2\n      swap1\n      pop\n      jump\t// out\n        /* \"#utility.yul\":1259:1377   */\n    tag_49:\n        /* \"#utility.yul\":1346:1370   */\n      tag_81\n        /* \"#utility.yul\":1364:1369   */\n      dup2\n        /* \"#utility.yul\":1346:1370   */\n      tag_48\n      jump\t// in\n    tag_81:\n        /* \"#utility.yul\":1341:1344   */\n      dup3\n        /* \"#utility.yul\":1334:1371   */\n      mstore\n        /* \"#utility.yul\":1259:1377   */\n      pop\n      pop\n      jump\t// out\n        /* \"#utility.yul\":1383:1605   */\n    tag_13:\n        /* \"#utility.yul\":1476:1480   */\n      0x00\n        /* \"#utility.yul\":1514:1516   */\n      0x20\n        /* \"#utility.yul\":1503:1512   */\n      dup3\n        /* \"#utility.yul\":1499:1517   */\n      add\n        /* \"#utility.yul\":1491:1517   */\n      swap1\n      pop\n        /* \"#utility.yul\":1527:1598   */\n      tag_83\n        /* \"#utility.yul\":1595:1596   */\n      0x00\n        /* \"#utility.yul\":1584:1593   */\n      dup4\n        /* \"#utility.yul\":1580:1597   */\n      add\n        /* \"#utility.yul\":1571:1577   */\n      dup5\n        /* \"#utility.yul\":1527:1598   */\n      tag_49\n      jump\t// in\n    tag_83:\n        /* \"#utility.yul\":1383:1605   */\n      swap3\n      swap2\n      pop\n      pop\n      jump\t// out\n        /* \"#utility.yul\":1611:1780   */\n    tag_50:\n        /* \"#utility.yul\":1695:1706   */\n      0x00\n        /* \"#utility.yul\":1729:1735   */\n      dup3\n        /* \"#utility.yul\":1724:1727   */\n      dup3\n        /* \"#utility.yul\":1717:1736   */\n      mstore\n        /* \"#utility.yul\":1769:1773   */\n      0x20\n        /* \"#utility.yul\":1764:1767   */\n      dup3\n        /* \"#utility.yul\":1760:1774   */\n      add\n        /* \"#utility.yul\":1745:1774   */\n      swap1\n      pop\n        /* \"#utility.yul\":1611:1780   */\n      swap3\n      swap2\n      pop\n      pop\n      jump\t// out\n        /* \"#utility.yul\":1786:1962   */\n    tag_51:\n        /* \"#utility.yul\":1926:1954   */\n      0x596f75206469646e27742073656e6420616e6f75676820455448000000000000\n        /* \"#utility.yul\":1922:1923   */\n      0x00\n        /* \"#utility.yul\":1914:1920   */\n      dup3\n        /* \"#utility.yul\":1910:1924   */\n      add\n        /* \"#utility.yul\":1903:1955   */\n      mstore\n        /* \"#utility.yul\":1786:1962   */\n      pop\n      jump\t// out\n        /* \"#utility.yul\":1968:2334   */\n    tag_52:\n        /* \"#utility.yul\":2110:2113   */\n      0x00\n        /* \"#utility.yul\":2131:2198   */\n      tag_87\n        /* \"#utility.yul\":2195:2197   */\n      0x1a\n        /* \"#utility.yul\":2190:2193   */\n      dup4\n        /* \"#utility.yul\":2131:2198   */\n      tag_50\n      jump\t// in\n    tag_87:\n        /* \"#utility.yul\":2124:2198   */\n      swap2\n      pop\n        /* \"#utility.yul\":2207:2300   */\n      tag_88\n        /* \"#utility.yul\":2296:2299   */\n      dup3\n        /* \"#utility.yul\":2207:2300   */\n      tag_51\n      jump\t// in\n    tag_88:\n        /* \"#utility.yul\":2325:2327   */\n      0x20\n        /* \"#utility.yul\":2320:2323   */\n      dup3\n        /* \"#utility.yul\":2316:2328   */\n      add\n        /* \"#utility.yul\":2309:2328   */\n      swap1\n      pop\n        /* \"#utility.yul\":1968:2334   */\n      swap2\n      swap1\n      pop\n      jump\t// out\n        /* \"#utility.yul\":2340:2759   */\n    tag_23:\n        /* \"#utility.yul\":2506:2510   */\n      0x00\n        /* \"#utility.yul\":2544:2546   */\n      0x20\n        /* \"#utility.yul\":2533:2542   */\n      dup3\n        /* \"#utility.yul\":2529:2547   */\n      add\n        /* \"#utility.yul\":2521:2547   */\n      swap1\n      pop\n        /* \"#utility.yul\":2593:2602   */\n      dup2\n        /* \"#utility.yul\":2587:2591   */\n      dup2\n        /* \"#utility.yul\":2583:2603   */\n      sub\n        /* \"#utility.yul\":2579:2580   */\n      0x00\n        /* \"#utility.yul\":2568:2577   */\n      dup4\n        /* \"#utility.yul\":2564:2581   */\n      add\n        /* \"#utility.yul\":2557:2604   */\n      mstore\n        /* \"#utility.yul\":2621:2752   */\n      tag_90\n        /* \"#utility.yul\":2747:2751   */\n      dup2\n        /* \"#utility.yul\":2621:2752   */\n      tag_52\n      jump\t// in\n    tag_90:\n        /* \"#utility.yul\":2613:2752   */\n      swap1\n      pop\n        /* \"#utility.yul\":2340:2759   */\n      swap2\n      swap1\n      pop\n      jump\t// out\n        /* \"#utility.yul\":2765:2945   */\n    tag_53:\n        /* \"#utility.yul\":2813:2890   */\n      0x4e487b7100000000000000000000000000000000000000000000000000000000\n        /* \"#utility.yul\":2810:2811   */\n      0x00\n        /* \"#utility.yul\":2803:2891   */\n      mstore\n        /* \"#utility.yul\":2910:2914   */\n      0x11\n        /* \"#utility.yul\":2907:2908   */\n      0x04\n        /* \"#utility.yul\":2900:2915   */\n      mstore\n        /* \"#utility.yul\":2934:2938   */\n      0x24\n        /* \"#utility.yul\":2931:2932   */\n      0x00\n        /* \"#utility.yul\":2924:2939   */\n      revert\n        /* \"#utility.yul\":2951:3142   */\n    tag_26:\n        /* \"#utility.yul\":2991:2994   */\n      0x00\n        /* \"#utility.yul\":3010:3030   */\n      tag_93\n        /* \"#utility.yul\":3028:3029   */\n      dup3\n        /* \"#utility.yul\":3010:3030   */\n      tag_48\n      jump\t// in\n    tag_93:\n        /* \"#utility.yul\":3005:3030   */\n      swap2\n      pop\n        /* \"#utility.yul\":3044:3064   */\n      tag_94\n        /* \"#utility.yul\":3062:3063   */\n      dup4\n        /* \"#utility.yul\":3044:3064   */\n      tag_48\n      jump\t// in\n    tag_94:\n        /* \"#utility.yul\":3039:3064   */\n      swap3\n      pop\n        /* \"#utility.yul\":3087:3088   */\n      dup3\n        /* \"#utility.yul\":3084:3085   */\n      dup3\n        /* \"#utility.yul\":3080:3089   */\n      add\n        /* \"#utility.yul\":3073:3089   */\n      swap1\n      pop\n        /* \"#utility.yul\":3108:3111   */\n      dup1\n        /* \"#utility.yul\":3105:3106   */\n      dup3\n        /* \"#utility.yul\":3102:3112   */\n      gt\n        /* \"#utility.yul\":3099:3135   */\n      iszero\n      tag_95\n      jumpi\n        /* \"#utility.yul\":3115:3133   */\n      tag_96\n      tag_53\n      jump\t// in\n    tag_96:\n        /* \"#utility.yul\":3099:3135   */\n    tag_95:\n        /* \"#utility.yul\":2951:3142   */\n      swap3\n      swap2\n      pop\n      pop\n      jump\t// out\n        /* \"#utility.yul\":3148:3558   */\n    tag_31:\n        /* \"#utility.yul\":3188:3195   */\n      0x00\n        /* \"#utility.yul\":3211:3231   */\n      tag_98\n        /* \"#utility.yul\":3229:3230   */\n      dup3\n        /* \"#utility.yul\":3211:3231   */\n      tag_48\n      jump\t// in\n    tag_98:\n        /* \"#utility.yul\":3206:3231   */\n      swap2\n      pop\n        /* \"#utility.yul\":3245:3265   */\n      tag_99\n        /* \"#utility.yul\":3263:3264   */\n      dup4\n        /* \"#utility.yul\":3245:3265   */\n      tag_48\n      jump\t// in\n    tag_99:\n        /* \"#utility.yul\":3240:3265   */\n      swap3\n      pop\n        /* \"#utility.yul\":3300:3301   */\n      dup3\n        /* \"#utility.yul\":3297:3298   */\n      dup3\n        /* \"#utility.yul\":3293:3302   */\n      mul\n        /* \"#utility.yul\":3322:3352   */\n      tag_100\n        /* \"#utility.yul\":3340:3351   */\n      dup2\n        /* \"#utility.yul\":3322:3352   */\n      tag_48\n      jump\t// in\n    tag_100:\n        /* \"#utility.yul\":3311:3352   */\n      swap2\n      pop\n        /* \"#utility.yul\":3501:3502   */\n      dup3\n        /* \"#utility.yul\":3492:3499   */\n      dup3\n        /* \"#utility.yul\":3488:3503   */\n      div\n        /* \"#utility.yul\":3485:3486   */\n      dup5\n        /* \"#utility.yul\":3482:3504   */\n      eq\n        /* \"#utility.yul\":3462:3463   */\n      dup4\n        /* \"#utility.yul\":3455:3464   */\n      iszero\n        /* \"#utility.yul\":3435:3518   */\n      or\n        /* \"#utility.yul\":3412:3551   */\n      tag_101\n      jumpi\n        /* \"#utility.yul\":3531:3549   */\n      tag_102\n      tag_53\n      jump\t// in\n    tag_102:\n        /* \"#utility.yul\":3412:3551   */\n    tag_101:\n        /* \"#utility.yul\":3196:3558   */\n      pop\n        /* \"#utility.yul\":3148:3558   */\n      swap3\n      swap2\n      pop\n      pop\n      jump\t// out\n        /* \"#utility.yul\":3564:3744   */\n    tag_54:\n        /* \"#utility.yul\":3612:3689   */\n      0x4e487b7100000000000000000000000000000000000000000000000000000000\n        /* \"#utility.yul\":3609:3610   */\n      0x00\n        /* \"#utility.yul\":3602:3690   */\n      mstore\n        /* \"#utility.yul\":3709:3713   */\n      0x12\n        /* \"#utility.yul\":3706:3707   */\n      0x04\n        /* \"#utility.yul\":3699:3714   */\n      mstore\n        /* \"#utility.yul\":3733:3737   */\n      0x24\n        /* \"#utility.yul\":3730:3731   */\n      0x00\n        /* \"#utility.yul\":3723:3738   */\n      revert\n        /* \"#utility.yul\":3750:3935   */\n    tag_33:\n        /* \"#utility.yul\":3790:3791   */\n      0x00\n        /* \"#utility.yul\":3807:3827   */\n      tag_105\n        /* \"#utility.yul\":3825:3826   */\n      dup3\n        /* \"#utility.yul\":3807:3827   */\n      tag_48\n      jump\t// in\n    tag_105:\n        /* \"#utility.yul\":3802:3827   */\n      swap2\n      pop\n        /* \"#utility.yul\":3841:3861   */\n      tag_106\n        /* \"#utility.yul\":3859:3860   */\n      dup4\n        /* \"#utility.yul\":3841:3861   */\n      tag_48\n      jump\t// in\n    tag_106:\n        /* \"#utility.yul\":3836:3861   */\n      swap3\n      pop\n        /* \"#utility.yul\":3880:3881   */\n      dup3\n        /* \"#utility.yul\":3870:3905   */\n      tag_107\n      jumpi\n        /* \"#utility.yul\":3885:3903   */\n      tag_108\n      tag_54\n      jump\t// in\n    tag_108:\n        /* \"#utility.yul\":3870:3905   */\n    tag_107:\n        /* \"#utility.yul\":3927:3928   */\n      dup3\n        /* \"#utility.yul\":3924:3925   */\n      dup3\n        /* \"#utility.yul\":3920:3929   */\n      div\n        /* \"#utility.yul\":3915:3929   */\n      swap1\n      pop\n        /* \"#utility.yul\":3750:3935   */\n      swap3\n      swap2\n      pop\n      pop\n      jump\t// out\n        /* \"#utility.yul\":3941:4046   */\n    tag_55:\n        /* \"#utility.yul\":3977:3984   */\n      0x00\n        /* \"#utility.yul\":4017:4039   */\n      0xffffffffffffffffffff\n        /* \"#utility.yul\":4010:4015   */\n      dup3\n        /* \"#utility.yul\":4006:4040   */\n      and\n        /* \"#utility.yul\":3995:4040   */\n      swap1\n      pop\n        /* \"#utility.yul\":3941:4046   */\n      swap2\n      swap1\n      pop\n      jump\t// out\n        /* \"#utility.yul\":4052:4172   */\n    tag_56:\n        /* \"#utility.yul\":4124:4147   */\n      tag_111\n        /* \"#utility.yul\":4141:4146   */\n      dup2\n        /* \"#utility.yul\":4124:4147   */\n      tag_55\n      jump\t// in\n    tag_111:\n        /* \"#utility.yul\":4117:4122   */\n      dup2\n        /* \"#utility.yul\":4114:4148   */\n      eq\n        /* \"#utility.yul\":4104:4166   */\n      tag_112\n      jumpi\n        /* \"#utility.yul\":4162:4163   */\n      0x00\n        /* \"#utility.yul\":4159:4160   */\n      dup1\n        /* \"#utility.yul\":4152:4164   */\n      revert\n        /* \"#utility.yul\":4104:4166   */\n    tag_112:\n        /* \"#utility.yul\":4052:4172   */\n      pop\n      jump\t// out\n        /* \"#utility.yul\":4178:4319   */\n    tag_57:\n        /* \"#utility.yul\":4234:4239   */\n      0x00\n        /* \"#utility.yul\":4265:4271   */\n      dup2\n        /* \"#utility.yul\":4259:4272   */\n      mload\n        /* \"#utility.yul\":4250:4272   */\n      swap1\n      pop\n        /* \"#utility.yul\":4281:4313   */\n      tag_114\n        /* \"#utility.yul\":4307:4312   */\n      dup2\n        /* \"#utility.yul\":4281:4313   */\n      tag_56\n      jump\t// in\n    tag_114:\n        /* \"#utility.yul\":4178:4319   */\n      swap3\n      swap2\n      pop\n      pop\n      jump\t// out\n        /* \"#utility.yul\":4325:4401   */\n    tag_58:\n        /* \"#utility.yul\":4361:4368   */\n      0x00\n        /* \"#utility.yul\":4390:4395   */\n      dup2\n        /* \"#utility.yul\":4379:4395   */\n      swap1\n      pop\n        /* \"#utility.yul\":4325:4401   */\n      swap2\n      swap1\n      pop\n      jump\t// out\n        /* \"#utility.yul\":4407:4527   */\n    tag_59:\n        /* \"#utility.yul\":4479:4502   */\n      tag_117\n        /* \"#utility.yul\":4496:4501   */\n      dup2\n        /* \"#utility.yul\":4479:4502   */\n      tag_58\n      jump\t// in\n    tag_117:\n        /* \"#utility.yul\":4472:4477   */\n      dup2\n        /* \"#utility.yul\":4469:4503   */\n      eq\n        /* \"#utility.yul\":4459:4521   */\n      tag_118\n      jumpi\n        /* \"#utility.yul\":4517:4518   */\n      0x00\n        /* \"#utility.yul\":4514:4515   */\n      dup1\n        /* \"#utility.yul\":4507:4519   */\n      revert\n        /* \"#utility.yul\":4459:4521   */\n    tag_118:\n        /* \"#utility.yul\":4407:4527   */\n      pop\n      jump\t// out\n        /* \"#utility.yul\":4533:4674   */\n    tag_60:\n        /* \"#utility.yul\":4589:4594   */\n      0x00\n        /* \"#utility.yul\":4620:4626   */\n      dup2\n        /* \"#utility.yul\":4614:4627   */\n      mload\n        /* \"#utility.yul\":4605:4627   */\n      swap1\n      pop\n        /* \"#utility.yul\":4636:4668   */\n      tag_120\n        /* \"#utility.yul\":4662:4667   */\n      dup2\n        /* \"#utility.yul\":4636:4668   */\n      tag_59\n      jump\t// in\n    tag_120:\n        /* \"#utility.yul\":4533:4674   */\n      swap3\n      swap2\n      pop\n      pop\n      jump\t// out\n        /* \"#utility.yul\":4680:4802   */\n    tag_61:\n        /* \"#utility.yul\":4753:4777   */\n      tag_122\n        /* \"#utility.yul\":4771:4776   */\n      dup2\n        /* \"#utility.yul\":4753:4777   */\n      tag_48\n      jump\t// in\n    tag_122:\n        /* \"#utility.yul\":4746:4751   */\n      dup2\n        /* \"#utility.yul\":4743:4778   */\n      eq\n        /* \"#utility.yul\":4733:4796   */\n      tag_123\n      jumpi\n        /* \"#utility.yul\":4792:4793   */\n      0x00\n        /* \"#utility.yul\":4789:4790   */\n      dup1\n        /* \"#utility.yul\":4782:4794   */\n      revert\n        /* \"#utility.yul\":4733:4796   */\n    tag_123:\n        /* \"#utility.yul\":4680:4802   */\n      pop\n      jump\t// out\n        /* \"#utility.yul\":4808:4951   */\n    tag_62:\n        /* \"#utility.yul\":4865:4870   */\n      0x00\n        /* \"#utility.yul\":4896:4902   */\n      dup2\n        /* \"#utility.yul\":4890:4903   */\n      mload\n        /* \"#utility.yul\":4881:4903   */\n      swap1\n      pop\n        /* \"#utility.yul\":4912:4945   */\n      tag_125\n        /* \"#utility.yul\":4939:4944   */\n      dup2\n        /* \"#utility.yul\":4912:4945   */\n      tag_61\n      jump\t// in\n    tag_125:\n        /* \"#utility.yul\":4808:4951   */\n      swap3\n      swap2\n      pop\n      pop\n      jump\t// out\n        /* \"#utility.yul\":4957:5928   */\n    tag_38:\n        /* \"#utility.yul\":5060:5066   */\n      0x00\n        /* \"#utility.yul\":5068:5074   */\n      dup1\n        /* \"#utility.yul\":5076:5082   */\n      0x00\n        /* \"#utility.yul\":5084:5090   */\n      dup1\n        /* \"#utility.yul\":5092:5098   */\n      0x00\n        /* \"#utility.yul\":5141:5144   */\n      0xa0\n        /* \"#utility.yul\":5129:5138   */\n      dup7\n        /* \"#utility.yul\":5120:5127   */\n      dup9\n        /* \"#utility.yul\":5116:5139   */\n      sub\n        /* \"#utility.yul\":5112:5145   */\n      slt\n        /* \"#utility.yul\":5109:5229   */\n      iszero\n      tag_127\n      jumpi\n        /* \"#utility.yul\":5148:5227   */\n      tag_128\n      tag_42\n      jump\t// in\n    tag_128:\n        /* \"#utility.yul\":5109:5229   */\n    tag_127:\n        /* \"#utility.yul\":5268:5269   */\n      0x00\n        /* \"#utility.yul\":5293:5356   */\n      tag_129\n        /* \"#utility.yul\":5348:5355   */\n      dup9\n        /* \"#utility.yul\":5339:5345   */\n      dup3\n        /* \"#utility.yul\":5328:5337   */\n      dup10\n        /* \"#utility.yul\":5324:5346   */\n      add\n        /* \"#utility.yul\":5293:5356   */\n      tag_57\n      jump\t// in\n    tag_129:\n        /* \"#utility.yul\":5283:5356   */\n      swap6\n      pop\n        /* \"#utility.yul\":5239:5366   */\n      pop\n        /* \"#utility.yul\":5405:5407   */\n      0x20\n        /* \"#utility.yul\":5431:5494   */\n      tag_130\n        /* \"#utility.yul\":5486:5493   */\n      dup9\n        /* \"#utility.yul\":5477:5483   */\n      dup3\n        /* \"#utility.yul\":5466:5475   */\n      dup10\n        /* \"#utility.yul\":5462:5484   */\n      add\n        /* \"#utility.yul\":5431:5494   */\n      tag_60\n      jump\t// in\n    tag_130:\n        /* \"#utility.yul\":5421:5494   */\n      swap5\n      pop\n        /* \"#utility.yul\":5376:5504   */\n      pop\n        /* \"#utility.yul\":5543:5545   */\n      0x40\n        /* \"#utility.yul\":5569:5633   */\n      tag_131\n        /* \"#utility.yul\":5625:5632   */\n      dup9\n        /* \"#utility.yul\":5616:5622   */\n      dup3\n        /* \"#utility.yul\":5605:5614   */\n      dup10\n        /* \"#utility.yul\":5601:5623   */\n      add\n        /* \"#utility.yul\":5569:5633   */\n      tag_62\n      jump\t// in\n    tag_131:\n        /* \"#utility.yul\":5559:5633   */\n      swap4\n      pop\n        /* \"#utility.yul\":5514:5643   */\n      pop\n        /* \"#utility.yul\":5682:5684   */\n      0x60\n        /* \"#utility.yul\":5708:5772   */\n      tag_132\n        /* \"#utility.yul\":5764:5771   */\n      dup9\n        /* \"#utility.yul\":5755:5761   */\n      dup3\n        /* \"#utility.yul\":5744:5753   */\n      dup10\n        /* \"#utility.yul\":5740:5762   */\n      add\n        /* \"#utility.yul\":5708:5772   */\n      tag_62\n      jump\t// in\n    tag_132:\n        /* \"#utility.yul\":5698:5772   */\n      swap3\n      pop\n        /* \"#utility.yul\":5653:5782   */\n      pop\n        /* \"#utility.yul\":5821:5824   */\n      0x80\n        /* \"#utility.yul\":5848:5911   */\n      tag_133\n        /* \"#utility.yul\":5903:5910   */\n      dup9\n        /* \"#utility.yul\":5894:5900   */\n      dup3\n        /* \"#utility.yul\":5883:5892   */\n      dup10\n        /* \"#utility.yul\":5879:5901   */\n      add\n        /* \"#utility.yul\":5848:5911   */\n      tag_57\n      jump\t// in\n    tag_133:\n        /* \"#utility.yul\":5838:5911   */\n      swap2\n      pop\n        /* \"#utility.yul\":5792:5921   */\n      pop\n        /* \"#utility.yul\":4957:5928   */\n      swap3\n      swap6\n      pop\n      swap3\n      swap6\n      swap1\n      swap4\n      pop\n      jump\t// out\n        /* \"#utility.yul\":5934:6490   */\n    tag_40:\n        /* \"#utility.yul\":5973:5980   */\n      0x00\n        /* \"#utility.yul\":5996:6015   */\n      tag_135\n        /* \"#utility.yul\":6013:6014   */\n      dup3\n        /* \"#utility.yul\":5996:6015   */\n      tag_58\n      jump\t// in\n    tag_135:\n        /* \"#utility.yul\":5991:6015   */\n      swap2\n      pop\n        /* \"#utility.yul\":6029:6048   */\n      tag_136\n        /* \"#utility.yul\":6046:6047   */\n      dup4\n        /* \"#utility.yul\":6029:6048   */\n      tag_58\n      jump\t// in\n    tag_136:\n        /* \"#utility.yul\":6024:6048   */\n      swap3\n      pop\n        /* \"#utility.yul\":6083:6084   */\n      dup3\n        /* \"#utility.yul\":6080:6081   */\n      dup3\n        /* \"#utility.yul\":6076:6085   */\n      mul\n        /* \"#utility.yul\":6105:6134   */\n      tag_137\n        /* \"#utility.yul\":6122:6133   */\n      dup2\n        /* \"#utility.yul\":6105:6134   */\n      tag_58\n      jump\t// in\n    tag_137:\n        /* \"#utility.yul\":6094:6134   */\n      swap2\n      pop\n        /* \"#utility.yul\":6192:6258   */\n      0x8000000000000000000000000000000000000000000000000000000000000000\n        /* \"#utility.yul\":6189:6190   */\n      dup5\n        /* \"#utility.yul\":6186:6259   */\n      eq\n        /* \"#utility.yul\":6182:6183   */\n      0x00\n        /* \"#utility.yul\":6179:6180   */\n      dup5\n        /* \"#utility.yul\":6175:6184   */\n      slt\n        /* \"#utility.yul\":6171:6260   */\n      and\n        /* \"#utility.yul\":6168:6283   */\n      iszero\n      tag_138\n      jumpi\n        /* \"#utility.yul\":6263:6281   */\n      tag_139\n      tag_53\n      jump\t// in\n    tag_139:\n        /* \"#utility.yul\":6168:6283   */\n    tag_138:\n        /* \"#utility.yul\":6433:6434   */\n      dup3\n        /* \"#utility.yul\":6424:6431   */\n      dup3\n        /* \"#utility.yul\":6419:6435   */\n      sdiv\n        /* \"#utility.yul\":6416:6417   */\n      dup5\n        /* \"#utility.yul\":6413:6436   */\n      eq\n        /* \"#utility.yul\":6393:6394   */\n      dup4\n        /* \"#utility.yul\":6386:6395   */\n      iszero\n        /* \"#utility.yul\":6366:6450   */\n      or\n        /* \"#utility.yul\":6343:6483   */\n      tag_140\n      jumpi\n        /* \"#utility.yul\":6463:6481   */\n      tag_141\n      tag_53\n      jump\t// in\n    tag_141:\n        /* \"#utility.yul\":6343:6483   */\n    tag_140:\n        /* \"#utility.yul\":5981:6490   */\n      pop\n        /* \"#utility.yul\":5934:6490   */\n      swap3\n      swap2\n      pop\n      pop\n      jump\t// out\n\n    auxdata: 0xa264697066735822122097b356b387185a1e7167d8a45e33860b2449a9a0b63b8a5702d0045385f81c0e64736f6c63430008160033\n}\n",
				"bytecode": {
					"linkReferences": {},
					"object": "6080604052674563918244f400005f5534801561001a575f80fd5b506106d6806100285f395ff3fe608060405260043610610033575f3560e01c8063b60d428814610037578063cb78e6e114610041578063e875bc7c1461007d575b5f80fd5b61003f6100a7565b005b34801561004c575f80fd5b5061006760048036038101906100629190610345565b6101f0565b6040516100749190610388565b60405180910390f35b348015610088575f80fd5b50610091610205565b60405161009e9190610388565b60405180910390f35b5f349050670de0b6b3a76400006100bd3461020a565b10156100fe576040517f08c379a00000000000000000000000000000000000000000000000000000000081526004016100f5906103fb565b60405180910390fd5b5f339050600181908060018154018082558091505060019003905f5260205f20015f9091909190916101000a81548173ffffffffffffffffffffffffffffffffffffffff021916908373ffffffffffffffffffffffffffffffffffffffff1602179055508160025f8373ffffffffffffffffffffffffffffffffffffffff1673ffffffffffffffffffffffffffffffffffffffff1681526020019081526020015f20546101ab9190610446565b60025f8373ffffffffffffffffffffffffffffffffffffffff1673ffffffffffffffffffffffffffffffffffffffff1681526020019081526020015f20819055505050565b6002602052805f5260405f205f915090505481565b5f5481565b5f80610214610242565b90505f670de0b6b3a7640000828561022c9190610479565b61023691906104e7565b90508092505050919050565b5f8073694aa1769357215de4fac081bf1f309adc32530690505f8173ffffffffffffffffffffffffffffffffffffffff1663feaf968c6040518163ffffffff1660e01b815260040160a060405180830381865afa1580156102a5573d5f803e3d5ffd5b505050506040513d601f19601f820116820180604052508101906102c991906105b3565b5050509150506402540be400816102e0919061062a565b9250505090565b5f80fd5b5f73ffffffffffffffffffffffffffffffffffffffff82169050919050565b5f610314826102eb565b9050919050565b6103248161030a565b811461032e575f80fd5b50565b5f8135905061033f8161031b565b92915050565b5f6020828403121561035a576103596102e7565b5b5f61036784828501610331565b91505092915050565b5f819050919050565b61038281610370565b82525050565b5f60208201905061039b5f830184610379565b92915050565b5f82825260208201905092915050565b7f596f75206469646e27742073656e6420616e6f756768204554480000000000005f82015250565b5f6103e5601a836103a1565b91506103f0826103b1565b602082019050919050565b5f6020820190508181035f830152610412816103d9565b9050919050565b7f4e487b71000000000000000000000000000000000000000000000000000000005f52601160045260245ffd5b5f61045082610370565b915061045b83610370565b925082820190508082111561047357610472610419565b5b92915050565b5f61048382610370565b915061048e83610370565b925082820261049c81610370565b915082820484148315176104b3576104b2610419565b5b5092915050565b7f4e487b71000000000000000000000000000000000000000000000000000000005f52601260045260245ffd5b5f6104f182610370565b91506104fc83610370565b92508261050c5761050b6104ba565b5b828204905092915050565b5f69ffffffffffffffffffff82169050919050565b61053581610517565b811461053f575f80fd5b50565b5f815190506105508161052c565b92915050565b5f819050919050565b61056881610556565b8114610572575f80fd5b50565b5f815190506105838161055f565b92915050565b61059281610370565b811461059c575f80fd5b50565b5f815190506105ad81610589565b92915050565b5f805f805f60a086880312156105cc576105cb6102e7565b5b5f6105d988828901610542565b95505060206105ea88828901610575565b94505060406105fb8882890161059f565b935050606061060c8882890161059f565b925050608061061d88828901610542565b9150509295509295909350565b5f61063482610556565b915061063f83610556565b925082820261064d81610556565b91507f800000000000000000000000000000000000000000000000000000000000000084145f8412161561068457610683610419565b5b828205841483151761069957610698610419565b5b509291505056fea264697066735822122097b356b387185a1e7167d8a45e33860b2449a9a0b63b8a5702d0045385f81c0e64736f6c63430008160033",
					"opcodes": "PUSH1 0x80 PUSH1 0x40 MSTORE PUSH8 0x4563918244F40000 PUSH0 SSTORE CALLVALUE DUP1 ISZERO PUSH2 0x1A JUMPI PUSH0 DUP1 REVERT JUMPDEST POP PUSH2 0x6D6 DUP1 PUSH2 0x28 PUSH0 CODECOPY PUSH0 RETURN INVALID PUSH1 0x80 PUSH1 0x40 MSTORE PUSH1 0x4 CALLDATASIZE LT PUSH2 0x33 JUMPI PUSH0 CALLDATALOAD PUSH1 0xE0 SHR DUP1 PUSH4 0xB60D4288 EQ PUSH2 0x37 JUMPI DUP1 PUSH4 0xCB78E6E1 EQ PUSH2 0x41 JUMPI DUP1 PUSH4 0xE875BC7C EQ PUSH2 0x7D JUMPI JUMPDEST PUSH0 DUP1 REVERT JUMPDEST PUSH2 0x3F PUSH2 0xA7 JUMP JUMPDEST STOP JUMPDEST CALLVALUE DUP1 ISZERO PUSH2 0x4C JUMPI PUSH0 DUP1 REVERT JUMPDEST POP PUSH2 0x67 PUSH1 0x4 DUP1 CALLDATASIZE SUB DUP2 ADD SWAP1 PUSH2 0x62 SWAP2 SWAP1 PUSH2 0x345 JUMP JUMPDEST PUSH2 0x1F0 JUMP JUMPDEST PUSH1 0x40 MLOAD PUSH2 0x74 SWAP2 SWAP1 PUSH2 0x388 JUMP JUMPDEST PUSH1 0x40 MLOAD DUP1 SWAP2 SUB SWAP1 RETURN JUMPDEST CALLVALUE DUP1 ISZERO PUSH2 0x88 JUMPI PUSH0 DUP1 REVERT JUMPDEST POP PUSH2 0x91 PUSH2 0x205 JUMP JUMPDEST PUSH1 0x40 MLOAD PUSH2 0x9E SWAP2 SWAP1 PUSH2 0x388 JUMP JUMPDEST PUSH1 0x40 MLOAD DUP1 SWAP2 SUB SWAP1 RETURN JUMPDEST PUSH0 CALLVALUE SWAP1 POP PUSH8 0xDE0B6B3A7640000 PUSH2 0xBD CALLVALUE PUSH2 0x20A JUMP JUMPDEST LT ISZERO PUSH2 0xFE JUMPI PUSH1 0x40 MLOAD PUSH32 0x8C379A000000000000000000000000000000000000000000000000000000000 DUP2 MSTORE PUSH1 0x4 ADD PUSH2 0xF5 SWAP1 PUSH2 0x3FB JUMP JUMPDEST PUSH1 0x40 MLOAD DUP1 SWAP2 SUB SWAP1 REVERT JUMPDEST PUSH0 CALLER SWAP1 POP PUSH1 0x1 DUP2 SWAP1 DUP1 PUSH1 0x1 DUP2 SLOAD ADD DUP1 DUP3 SSTORE DUP1 SWAP2 POP POP PUSH1 0x1 SWAP1 SUB SWAP1 PUSH0 MSTORE PUSH1 0x20 PUSH0 KECCAK256 ADD PUSH0 SWAP1 SWAP2 SWAP1 SWAP2 SWAP1 SWAP2 PUSH2 0x100 EXP DUP2 SLOAD DUP2 PUSH20 0xFFFFFFFFFFFFFFFFFFFFFFFFFFFFFFFFFFFFFFFF MUL NOT AND SWAP1 DUP4 PUSH20 0xFFFFFFFFFFFFFFFFFFFFFFFFFFFFFFFFFFFFFFFF AND MUL OR SWAP1 SSTORE POP DUP2 PUSH1 0x2 PUSH0 DUP4 PUSH20 0xFFFFFFFFFFFFFFFFFFFFFFFFFFFFFFFFFFFFFFFF AND PUSH20 0xFFFFFFFFFFFFFFFFFFFFFFFFFFFFFFFFFFFFFFFF AND DUP2 MSTORE PUSH1 0x20 ADD SWAP1 DUP2 MSTORE PUSH1 0x20 ADD PUSH0 KECCAK256 SLOAD PUSH2 0x1AB SWAP2 SWAP1 PUSH2 0x446 JUMP JUMPDEST PUSH1 0x2 PUSH0 DUP4 PUSH20 0xFFFFFFFFFFFFFFFFFFFFFFFFFFFFFFFFFFFFFFFF AND PUSH20 0xFFFFFFFFFFFFFFFFFFFFFFFFFFFFFFFFFFFFFFFF AND DUP2 MSTORE PUSH1 0x20 ADD SWAP1 DUP2 MSTORE PUSH1 0x20 ADD PUSH0 KECCAK256 DUP2 SWAP1 SSTORE POP POP POP JUMP JUMPDEST PUSH1 0x2 PUSH1 0x20 MSTORE DUP1 PUSH0 MSTORE PUSH1 0x40 PUSH0 KECCAK256 PUSH0 SWAP2 POP SWAP1 POP SLOAD DUP2 JUMP JUMPDEST PUSH0 SLOAD DUP2 JUMP JUMPDEST PUSH0 DUP1 PUSH2 0x214 PUSH2 0x242 JUMP JUMPDEST SWAP1 POP PUSH0 PUSH8 0xDE0B6B3A7640000 DUP3 DUP6 PUSH2 0x22C SWAP2 SWAP1 PUSH2 0x479 JUMP JUMPDEST PUSH2 0x236 SWAP2 SWAP1 PUSH2 0x4E7 JUMP JUMPDEST SWAP1 POP DUP1 SWAP3 POP POP POP SWAP2 SWAP1 POP JUMP JUMPDEST PUSH0 DUP1 PUSH20 0x694AA1769357215DE4FAC081BF1F309ADC325306 SWAP1 POP PUSH0 DUP2 PUSH20 0xFFFFFFFFFFFFFFFFFFFFFFFFFFFFFFFFFFFFFFFF AND PUSH4 0xFEAF968C PUSH1 0x40 MLOAD DUP2 PUSH4 0xFFFFFFFF AND PUSH1 0xE0 SHL DUP2 MSTORE PUSH1 0x4 ADD PUSH1 0xA0 PUSH1 0x40 MLOAD DUP1 DUP4 SUB DUP2 DUP7 GAS STATICCALL ISZERO DUP1 ISZERO PUSH2 0x2A5 JUMPI RETURNDATASIZE PUSH0 DUP1 RETURNDATACOPY RETURNDATASIZE PUSH0 REVERT JUMPDEST POP POP POP POP PUSH1 0x40 MLOAD RETURNDATASIZE PUSH1 0x1F NOT PUSH1 0x1F DUP3 ADD AND DUP3 ADD DUP1 PUSH1 0x40 MSTORE POP DUP2 ADD SWAP1 PUSH2 0x2C9 SWAP2 SWAP1 PUSH2 0x5B3 JUMP JUMPDEST POP POP POP SWAP2 POP POP PUSH5 0x2540BE400 DUP2 PUSH2 0x2E0 SWAP2 SWAP1 PUSH2 0x62A JUMP JUMPDEST SWAP3 POP POP POP SWAP1 JUMP JUMPDEST PUSH0 DUP1 REVERT JUMPDEST PUSH0 PUSH20 0xFFFFFFFFFFFFFFFFFFFFFFFFFFFFFFFFFFFFFFFF DUP3 AND SWAP1 POP SWAP2 SWAP1 POP JUMP JUMPDEST PUSH0 PUSH2 0x314 DUP3 PUSH2 0x2EB JUMP JUMPDEST SWAP1 POP SWAP2 SWAP1 POP JUMP JUMPDEST PUSH2 0x324 DUP2 PUSH2 0x30A JUMP JUMPDEST DUP2 EQ PUSH2 0x32E JUMPI PUSH0 DUP1 REVERT JUMPDEST POP JUMP JUMPDEST PUSH0 DUP2 CALLDATALOAD SWAP1 POP PUSH2 0x33F DUP2 PUSH2 0x31B JUMP JUMPDEST SWAP3 SWAP2 POP POP JUMP JUMPDEST PUSH0 PUSH1 0x20 DUP3 DUP5 SUB SLT ISZERO PUSH2 0x35A JUMPI PUSH2 0x359 PUSH2 0x2E7 JUMP JUMPDEST JUMPDEST PUSH0 PUSH2 0x367 DUP5 DUP3 DUP6 ADD PUSH2 0x331 JUMP JUMPDEST SWAP2 POP POP SWAP3 SWAP2 POP POP JUMP JUMPDEST PUSH0 DUP2 SWAP1 POP SWAP2 SWAP1 POP JUMP JUMPDEST PUSH2 0x382 DUP2 PUSH2 0x370 JUMP JUMPDEST DUP3 MSTORE POP POP JUMP JUMPDEST PUSH0 PUSH1 0x20 DUP3 ADD SWAP1 POP PUSH2 0x39B PUSH0 DUP4 ADD DUP5 PUSH2 0x379 JUMP JUMPDEST SWAP3 SWAP2 POP POP JUMP JUMPDEST PUSH0 DUP3 DUP3 MSTORE PUSH1 0x20 DUP3 ADD SWAP1 POP SWAP3 SWAP2 POP POP JUMP JUMPDEST PUSH32 0x596F75206469646E27742073656E6420616E6F75676820455448000000000000 PUSH0 DUP3 ADD MSTORE POP JUMP JUMPDEST PUSH0 PUSH2 0x3E5 PUSH1 0x1A DUP4 PUSH2 0x3A1 JUMP JUMPDEST SWAP2 POP PUSH2 0x3F0 DUP3 PUSH2 0x3B1 JUMP JUMPDEST PUSH1 0x20 DUP3 ADD SWAP1 POP SWAP2 SWAP1 POP JUMP JUMPDEST PUSH0 PUSH1 0x20 DUP3 ADD SWAP1 POP DUP2 DUP2 SUB PUSH0 DUP4 ADD MSTORE PUSH2 0x412 DUP2 PUSH2 0x3D9 JUMP JUMPDEST SWAP1 POP SWAP2 SWAP1 POP JUMP JUMPDEST PUSH32 0x4E487B7100000000000000000000000000000000000000000000000000000000 PUSH0 MSTORE PUSH1 0x11 PUSH1 0x4 MSTORE PUSH1 0x24 PUSH0 REVERT JUMPDEST PUSH0 PUSH2 0x450 DUP3 PUSH2 0x370 JUMP JUMPDEST SWAP2 POP PUSH2 0x45B DUP4 PUSH2 0x370 JUMP JUMPDEST SWAP3 POP DUP3 DUP3 ADD SWAP1 POP DUP1 DUP3 GT ISZERO PUSH2 0x473 JUMPI PUSH2 0x472 PUSH2 0x419 JUMP JUMPDEST JUMPDEST SWAP3 SWAP2 POP POP JUMP JUMPDEST PUSH0 PUSH2 0x483 DUP3 PUSH2 0x370 JUMP JUMPDEST SWAP2 POP PUSH2 0x48E DUP4 PUSH2 0x370 JUMP JUMPDEST SWAP3 POP DUP3 DUP3 MUL PUSH2 0x49C DUP2 PUSH2 0x370 JUMP JUMPDEST SWAP2 POP DUP3 DUP3 DIV DUP5 EQ DUP4 ISZERO OR PUSH2 0x4B3 JUMPI PUSH2 0x4B2 PUSH2 0x419 JUMP JUMPDEST JUMPDEST POP SWAP3 SWAP2 POP POP JUMP JUMPDEST PUSH32 0x4E487B7100000000000000000000000000000000000000000000000000000000 PUSH0 MSTORE PUSH1 0x12 PUSH1 0x4 MSTORE PUSH1 0x24 PUSH0 REVERT JUMPDEST PUSH0 PUSH2 0x4F1 DUP3 PUSH2 0x370 JUMP JUMPDEST SWAP2 POP PUSH2 0x4FC DUP4 PUSH2 0x370 JUMP JUMPDEST SWAP3 POP DUP3 PUSH2 0x50C JUMPI PUSH2 0x50B PUSH2 0x4BA JUMP JUMPDEST JUMPDEST DUP3 DUP3 DIV SWAP1 POP SWAP3 SWAP2 POP POP JUMP JUMPDEST PUSH0 PUSH10 0xFFFFFFFFFFFFFFFFFFFF DUP3 AND SWAP1 POP SWAP2 SWAP1 POP JUMP JUMPDEST PUSH2 0x535 DUP2 PUSH2 0x517 JUMP JUMPDEST DUP2 EQ PUSH2 0x53F JUMPI PUSH0 DUP1 REVERT JUMPDEST POP JUMP JUMPDEST PUSH0 DUP2 MLOAD SWAP1 POP PUSH2 0x550 DUP2 PUSH2 0x52C JUMP JUMPDEST SWAP3 SWAP2 POP POP JUMP JUMPDEST PUSH0 DUP2 SWAP1 POP SWAP2 SWAP1 POP JUMP JUMPDEST PUSH2 0x568 DUP2 PUSH2 0x556 JUMP JUMPDEST DUP2 EQ PUSH2 0x572 JUMPI PUSH0 DUP1 REVERT JUMPDEST POP JUMP JUMPDEST PUSH0 DUP2 MLOAD SWAP1 POP PUSH2 0x583 DUP2 PUSH2 0x55F JUMP JUMPDEST SWAP3 SWAP2 POP POP JUMP JUMPDEST PUSH2 0x592 DUP2 PUSH2 0x370 JUMP JUMPDEST DUP2 EQ PUSH2 0x59C JUMPI PUSH0 DUP1 REVERT JUMPDEST POP JUMP JUMPDEST PUSH0 DUP2 MLOAD SWAP1 POP PUSH2 0x5AD DUP2 PUSH2 0x589 JUMP JUMPDEST SWAP3 SWAP2 POP POP JUMP JUMPDEST PUSH0 DUP1 PUSH0 DUP1 PUSH0 PUSH1 0xA0 DUP7 DUP9 SUB SLT ISZERO PUSH2 0x5CC JUMPI PUSH2 0x5CB PUSH2 0x2E7 JUMP JUMPDEST JUMPDEST PUSH0 PUSH2 0x5D9 DUP9 DUP3 DUP10 ADD PUSH2 0x542 JUMP JUMPDEST SWAP6 POP POP PUSH1 0x20 PUSH2 0x5EA DUP9 DUP3 DUP10 ADD PUSH2 0x575 JUMP JUMPDEST SWAP5 POP POP PUSH1 0x40 PUSH2 0x5FB DUP9 DUP3 DUP10 ADD PUSH2 0x59F JUMP JUMPDEST SWAP4 POP POP PUSH1 0x60 PUSH2 0x60C DUP9 DUP3 DUP10 ADD PUSH2 0x59F JUMP JUMPDEST SWAP3 POP POP PUSH1 0x80 PUSH2 0x61D DUP9 DUP3 DUP10 ADD PUSH2 0x542 JUMP JUMPDEST SWAP2 POP POP SWAP3 SWAP6 POP SWAP3 SWAP6 SWAP1 SWAP4 POP JUMP JUMPDEST PUSH0 PUSH2 0x634 DUP3 PUSH2 0x556 JUMP JUMPDEST SWAP2 POP PUSH2 0x63F DUP4 PUSH2 0x556 JUMP JUMPDEST SWAP3 POP DUP3 DUP3 MUL PUSH2 0x64D DUP2 PUSH2 0x556 JUMP JUMPDEST SWAP2 POP PUSH32 0x8000000000000000000000000000000000000000000000000000000000000000 DUP5 EQ PUSH0 DUP5 SLT AND ISZERO PUSH2 0x684 JUMPI PUSH2 0x683 PUSH2 0x419 JUMP JUMPDEST JUMPDEST DUP3 DUP3 SDIV DUP5 EQ DUP4 ISZERO OR PUSH2 0x699 JUMPI PUSH2 0x698 PUSH2 0x419 JUMP JUMPDEST JUMPDEST POP SWAP3 SWAP2 POP POP JUMP INVALID LOG2 PUSH5 0x6970667358 0x22 SLT KECCAK256 SWAP8 0xB3 JUMP 0xB3 DUP8 XOR GAS 0x1E PUSH18 0x67D8A45E33860B2449A9A0B63B8A5702D004 MSTORE8 DUP6 0xF8 SHR 0xE PUSH5 0x736F6C6343 STOP ADDMOD AND STOP CALLER "
				},
				"gasEstimates": {
					"creation": {
						"codeDepositCost": "350000",
						"executionCost": "22489",
						"totalCost": "372489"
					},
					"external": {
						"addressToAmoutFunded(address)": "2802",
						"fund()": "infinite",
						"minimunInDollars()": "2446"
					}
				},
				"methodIdentifiers": {
					"addressToAmoutFunded(address)": "cb78e6e1",
					"fund()": "b60d4288",
					"minimunInDollars()": "e875bc7c"
				}
			},
			"storageLayout": {
				"storage": [
					{
						"astId": 55,
						"contract": "FundMe.sol:FundMe",
						"label": "minimunInDollars",
						"offset": 0,
						"slot": "0",
						"type": "t_uint256"
					},
					{
						"astId": 58,
						"contract": "FundMe.sol:FundMe",
						"label": "funders",
						"offset": 0,
						"slot": "1",
						"type": "t_array(t_address)dyn_storage"
					},
					{
						"astId": 62,
						"contract": "FundMe.sol:FundMe",
						"label": "addressToAmoutFunded",
						"offset": 0,
						"slot": "2",
						"type": "t_mapping(t_address,t_uint256)"
					}
				],
				"types": {
					"t_address": {
						"encoding": "inplace",
						"label": "address",
						"numberOfBytes": "20"
					},
					"t_array(t_address)dyn_storage": {
						"base": "t_address",
						"encoding": "dynamic_array",
						"label": "address[]",
						"numberOfBytes": "32"
					},
					"t_mapping(t_address,t_uint256)": {
						"encoding": "mapping",
						"key": "t_address",
						"label": "mapping(address => uint256)",
						"numberOfBytes": "32",
						"value": "t_uint256"
					},
					"t_uint256": {
						"encoding": "inplace",
						"label": "uint256",
						"numberOfBytes": "32"
					}
				}
			},
			"userdoc": {
				"kind": "user",
				"methods": {},
				"version": 1
			}
		}
	}
}