{
	"FundMe.sol": {
		"FundMe": {
			"abi": [
				{
					"inputs": [],
					"stateMutability": "nonpayable",
					"type": "constructor"
				},
				{
					"inputs": [],
					"name": "MIN_USD",
					"outputs": [
						{
							"internalType": "uint256",
							"name": "",
							"type": "uint256"
						}
					],
					"stateMutability": "view",
					"type": "function"
				},
				{
					"inputs": [
						{
							"internalType": "address",
							"name": "funder",
							"type": "address"
						}
					],
					"name": "addressToAmoutFunded",
					"outputs": [
						{
							"internalType": "uint256",
							"name": "amountFunded",
							"type": "uint256"
						}
					],
					"stateMutability": "view",
					"type": "function"
				},
				{
					"inputs": [],
					"name": "fund",
					"outputs": [],
					"stateMutability": "payable",
					"type": "function"
				},
				{
					"inputs": [],
					"name": "i_owner",
					"outputs": [
						{
							"internalType": "address",
							"name": "",
							"type": "address"
						}
					],
					"stateMutability": "view",
					"type": "function"
				},
				{
					"inputs": [],
					"name": "withdraw",
					"outputs": [],
					"stateMutability": "nonpayable",
					"type": "function"
				}
			],
			"devdoc": {
				"kind": "dev",
				"methods": {},
				"version": 1
			},
			"evm": {
				"assembly": "    /* \"FundMe.sol\":122:1550  contract FundMe {... */\n  mstore(0x40, 0xa0)\n    /* \"FundMe.sol\":362:414  constructor () {... */\n  callvalue\n  dup1\n  iszero\n  tag_1\n  jumpi\n  0x00\n  dup1\n  revert\ntag_1:\n  pop\n    /* \"FundMe.sol\":397:407  msg.sender */\n  caller\n    /* \"FundMe.sol\":387:407  i_owner = msg.sender */\n  0xffffffffffffffffffffffffffffffffffffffff\n  and\n  0x80\n  dup2\n  0xffffffffffffffffffffffffffffffffffffffff\n  and\n  dup2\n  mstore\n  pop\n  pop\n    /* \"FundMe.sol\":122:1550  contract FundMe {... */\n  mload(0x80)\n  codecopy(0x00, dataOffset(sub_0), dataSize(sub_0))\n  0x00\n  assignImmutable(\"0x646d998f946f968f0675fd4e3cb527e1222094ea0d9cc1fd615146a8fe29802e\")\n  return(0x00, dataSize(sub_0))\nstop\n\nsub_0: assembly {\n        /* \"FundMe.sol\":122:1550  contract FundMe {... */\n      mstore(0x40, 0x80)\n      jumpi(tag_1, lt(calldatasize, 0x04))\n      shr(0xe0, calldataload(0x00))\n      dup1\n      0x213dbea2\n      eq\n      tag_2\n      jumpi\n      dup1\n      0x3ccfd60b\n      eq\n      tag_3\n      jumpi\n      dup1\n      0xb60d4288\n      eq\n      tag_4\n      jumpi\n      dup1\n      0xcb78e6e1\n      eq\n      tag_5\n      jumpi\n      dup1\n      0xdba6335f\n      eq\n      tag_6\n      jumpi\n    tag_1:\n      0x00\n      dup1\n      revert\n        /* \"FundMe.sol\":179:214  uint public constant MIN_USD = 5e18 */\n    tag_2:\n      callvalue\n      dup1\n      iszero\n      tag_7\n      jumpi\n      0x00\n      dup1\n      revert\n    tag_7:\n      pop\n      tag_8\n      tag_9\n      jump\t// in\n    tag_8:\n      mload(0x40)\n      tag_10\n      swap2\n      swap1\n      tag_11\n      jump\t// in\n    tag_10:\n      mload(0x40)\n      dup1\n      swap2\n      sub\n      swap1\n      return\n        /* \"FundMe.sol\":783:1443  function withdraw() public onlyOwner {  ... */\n    tag_3:\n      callvalue\n      dup1\n      iszero\n      tag_12\n      jumpi\n      0x00\n      dup1\n      revert\n    tag_12:\n      pop\n      tag_13\n      tag_14\n      jump\t// in\n    tag_13:\n      stop\n        /* \"FundMe.sol\":419:777  function fund() public payable {... */\n    tag_4:\n      tag_15\n      tag_16\n      jump\t// in\n    tag_15:\n      stop\n        /* \"FundMe.sol\":244:316  mapping(address funder => uint amountFunded) public addressToAmoutFunded */\n    tag_5:\n      callvalue\n      dup1\n      iszero\n      tag_17\n      jumpi\n      0x00\n      dup1\n      revert\n    tag_17:\n      pop\n      tag_18\n      0x04\n      dup1\n      calldatasize\n      sub\n      dup2\n      add\n      swap1\n      tag_19\n      swap2\n      swap1\n      tag_20\n      jump\t// in\n    tag_19:\n      tag_21\n      jump\t// in\n    tag_18:\n      mload(0x40)\n      tag_22\n      swap2\n      swap1\n      tag_11\n      jump\t// in\n    tag_22:\n      mload(0x40)\n      dup1\n      swap2\n      sub\n      swap1\n      return\n        /* \"FundMe.sol\":323:355  address public immutable i_owner */\n    tag_6:\n      callvalue\n      dup1\n      iszero\n      tag_23\n      jumpi\n      0x00\n      dup1\n      revert\n    tag_23:\n      pop\n      tag_24\n      tag_25\n      jump\t// in\n    tag_24:\n      mload(0x40)\n      tag_26\n      swap2\n      swap1\n      tag_27\n      jump\t// in\n    tag_26:\n      mload(0x40)\n      dup1\n      swap2\n      sub\n      swap1\n      return\n        /* \"FundMe.sol\":179:214  uint public constant MIN_USD = 5e18 */\n    tag_9:\n        /* \"FundMe.sol\":210:214  5e18 */\n      0x4563918244f40000\n        /* \"FundMe.sol\":179:214  uint public constant MIN_USD = 5e18 */\n      dup2\n      jump\t// out\n        /* \"FundMe.sol\":783:1443  function withdraw() public onlyOwner {  ... */\n    tag_14:\n        /* \"FundMe.sol\":1500:1507  i_owner */\n      immutable(\"0x646d998f946f968f0675fd4e3cb527e1222094ea0d9cc1fd615146a8fe29802e\")\n        /* \"FundMe.sol\":1488:1507  msg.sender==i_owner */\n      0xffffffffffffffffffffffffffffffffffffffff\n      and\n        /* \"FundMe.sol\":1488:1498  msg.sender */\n      caller\n        /* \"FundMe.sol\":1488:1507  msg.sender==i_owner */\n      0xffffffffffffffffffffffffffffffffffffffff\n      and\n      eq\n        /* \"FundMe.sol\":1480:1530  require(msg.sender==i_owner,\"Sender is not owner\") */\n      tag_29\n      jumpi\n      mload(0x40)\n      0x08c379a000000000000000000000000000000000000000000000000000000000\n      dup2\n      mstore\n      0x04\n      add\n      tag_30\n      swap1\n      tag_31\n      jump\t// in\n    tag_30:\n      mload(0x40)\n      dup1\n      swap2\n      sub\n      swap1\n      revert\n    tag_29:\n        /* \"FundMe.sol\":837:853  uint funderIndex */\n      0x00\n        /* \"FundMe.sol\":832:1012  for (uint funderIndex = 0; funderIndex < funders.length; funderIndex++) {... */\n    tag_33:\n        /* \"FundMe.sol\":873:880  funders */\n      0x00\n        /* \"FundMe.sol\":873:887  funders.length */\n      dup1\n      sload\n      swap1\n      pop\n        /* \"FundMe.sol\":859:870  funderIndex */\n      dup2\n        /* \"FundMe.sol\":859:887  funderIndex < funders.length */\n      lt\n        /* \"FundMe.sol\":832:1012  for (uint funderIndex = 0; funderIndex < funders.length; funderIndex++) {... */\n      iszero\n      tag_34\n      jumpi\n        /* \"FundMe.sol\":918:932  address funder */\n      0x00\n        /* \"FundMe.sol\":935:942  funders */\n      dup1\n        /* \"FundMe.sol\":943:954  funderIndex */\n      dup3\n        /* \"FundMe.sol\":935:955  funders[funderIndex] */\n      dup2\n      sload\n      dup2\n      lt\n      tag_36\n      jumpi\n      tag_37\n      tag_38\n      jump\t// in\n    tag_37:\n    tag_36:\n      swap1\n      0x00\n      mstore\n      keccak256(0x00, 0x20)\n      add\n      0x00\n      swap1\n      sload\n      swap1\n      0x0100\n      exp\n      swap1\n      div\n      0xffffffffffffffffffffffffffffffffffffffff\n      and\n        /* \"FundMe.sol\":918:955  address funder = funders[funderIndex] */\n      swap1\n      pop\n        /* \"FundMe.sol\":1000:1001  0 */\n      0x00\n        /* \"FundMe.sol\":969:989  addressToAmoutFunded */\n      0x01\n        /* \"FundMe.sol\":969:997  addressToAmoutFunded[funder] */\n      0x00\n        /* \"FundMe.sol\":990:996  funder */\n      dup4\n        /* \"FundMe.sol\":969:997  addressToAmoutFunded[funder] */\n      0xffffffffffffffffffffffffffffffffffffffff\n      and\n      0xffffffffffffffffffffffffffffffffffffffff\n      and\n      dup2\n      mstore\n      0x20\n      add\n      swap1\n      dup2\n      mstore\n      0x20\n      add\n      0x00\n      keccak256\n        /* \"FundMe.sol\":969:1001  addressToAmoutFunded[funder] = 0 */\n      dup2\n      swap1\n      sstore\n      pop\n        /* \"FundMe.sol\":904:1012  {... */\n      pop\n        /* \"FundMe.sol\":889:902  funderIndex++ */\n      dup1\n      dup1\n      0x01\n      add\n      swap2\n      pop\n      pop\n        /* \"FundMe.sol\":832:1012  for (uint funderIndex = 0; funderIndex < funders.length; funderIndex++) {... */\n      jump(tag_33)\n    tag_34:\n      pop\n        /* \"FundMe.sol\":1045:1046  0 */\n      0x00\n        /* \"FundMe.sol\":1031:1047  new address[](0) */\n      0xffffffffffffffff\n      dup2\n      gt\n      iszero\n      tag_40\n      jumpi\n      tag_41\n      tag_42\n      jump\t// in\n    tag_41:\n    tag_40:\n      mload(0x40)\n      swap1\n      dup1\n      dup3\n      mstore\n      dup1\n      0x20\n      mul\n      0x20\n      add\n      dup3\n      add\n      0x40\n      mstore\n      dup1\n      iszero\n      tag_43\n      jumpi\n      dup2\n      0x20\n      add\n      0x20\n      dup3\n      mul\n      dup1\n      calldatasize\n      dup4\n      calldatacopy\n      dup1\n      dup3\n      add\n      swap2\n      pop\n      pop\n      swap1\n      pop\n    tag_43:\n      pop\n        /* \"FundMe.sol\":1021:1028  funders */\n      0x00\n        /* \"FundMe.sol\":1021:1047  funders = new address[](0) */\n      swap1\n      dup1\n      mload\n      swap1\n      0x20\n      add\n      swap1\n      tag_44\n      swap3\n      swap2\n      swap1\n      tag_45\n      jump\t// in\n    tag_44:\n      pop\n        /* \"FundMe.sol\":1311:1327  bool callSuccess */\n      0x00\n        /* \"FundMe.sol\":1341:1351  msg.sender */\n      caller\n        /* \"FundMe.sol\":1333:1357  payable(msg.sender).call */\n      0xffffffffffffffffffffffffffffffffffffffff\n      and\n        /* \"FundMe.sol\":1365:1386  address(this).balance */\n      selfbalance\n        /* \"FundMe.sol\":1333:1391  payable(msg.sender).call{value: address(this).balance}(\"\") */\n      mload(0x40)\n      tag_46\n      swap1\n      tag_47\n      jump\t// in\n    tag_46:\n      0x00\n      mload(0x40)\n      dup1\n      dup4\n      sub\n      dup2\n      dup6\n      dup8\n      gas\n      call\n      swap3\n      pop\n      pop\n      pop\n      returndatasize\n      dup1\n      0x00\n      dup2\n      eq\n      tag_50\n      jumpi\n      mload(0x40)\n      swap2\n      pop\n      and(add(returndatasize, 0x3f), not(0x1f))\n      dup3\n      add\n      0x40\n      mstore\n      returndatasize\n      dup3\n      mstore\n      returndatasize\n      0x00\n      0x20\n      dup5\n      add\n      returndatacopy\n      jump(tag_49)\n    tag_50:\n      0x60\n      swap2\n      pop\n    tag_49:\n      pop\n        /* \"FundMe.sol\":1310:1391  (bool callSuccess, ) = payable(msg.sender).call{value: address(this).balance}(\"\") */\n      pop\n      swap1\n      pop\n        /* \"FundMe.sol\":1409:1420  callSuccess */\n      dup1\n        /* \"FundMe.sol\":1401:1436  require(callSuccess, \"Call failed\") */\n      tag_51\n      jumpi\n      mload(0x40)\n      0x08c379a000000000000000000000000000000000000000000000000000000000\n      dup2\n      mstore\n      0x04\n      add\n      tag_52\n      swap1\n      tag_53\n      jump\t// in\n    tag_52:\n      mload(0x40)\n      dup1\n      swap2\n      sub\n      swap1\n      revert\n    tag_51:\n        /* \"FundMe.sol\":820:1443  {  ... */\n      pop\n        /* \"FundMe.sol\":783:1443  function withdraw() public onlyOwner {  ... */\n      jump\t// out\n        /* \"FundMe.sol\":419:777  function fund() public payable {... */\n    tag_16:\n        /* \"FundMe.sol\":460:473  uint ethValue */\n      0x00\n        /* \"FundMe.sol\":476:485  msg.value */\n      callvalue\n        /* \"FundMe.sol\":460:485  uint ethValue = msg.value */\n      swap1\n      pop\n        /* \"FundMe.sol\":210:214  5e18 */\n      0x4563918244f40000\n        /* \"FundMe.sol\":503:532  msg.value.getConversionRate() */\n      tag_55\n        /* \"FundMe.sol\":503:512  msg.value */\n      callvalue\n        /* \"FundMe.sol\":503:530  msg.value.getConversionRate */\n      tag_56\n        /* \"FundMe.sol\":503:532  msg.value.getConversionRate() */\n      jump\t// in\n    tag_55:\n        /* \"FundMe.sol\":503:543  msg.value.getConversionRate() >= MIN_USD */\n      lt\n      iszero\n        /* \"FundMe.sol\":495:574  require(msg.value.getConversionRate() >= MIN_USD, \"You didn't send anough ETH\") */\n      tag_57\n      jumpi\n      mload(0x40)\n      0x08c379a000000000000000000000000000000000000000000000000000000000\n      dup2\n      mstore\n      0x04\n      add\n      tag_58\n      swap1\n      tag_59\n      jump\t// in\n    tag_58:\n      mload(0x40)\n      dup1\n      swap2\n      sub\n      swap1\n      revert\n    tag_57:\n        /* \"FundMe.sol\":632:646  address funder */\n      0x00\n        /* \"FundMe.sol\":649:659  msg.sender */\n      caller\n        /* \"FundMe.sol\":632:659  address funder = msg.sender */\n      swap1\n      pop\n        /* \"FundMe.sol\":670:677  funders */\n      0x00\n        /* \"FundMe.sol\":683:689  funder */\n      dup2\n        /* \"FundMe.sol\":670:690  funders.push(funder) */\n      swap1\n      dup1\n      0x01\n      dup2\n      sload\n      add\n      dup1\n      dup3\n      sstore\n      dup1\n      swap2\n      pop\n      pop\n      0x01\n      swap1\n      sub\n      swap1\n      0x00\n      mstore\n      keccak256(0x00, 0x20)\n      add\n      0x00\n      swap1\n      swap2\n      swap1\n      swap2\n      swap1\n      swap2\n      0x0100\n      exp\n      dup2\n      sload\n      dup2\n      0xffffffffffffffffffffffffffffffffffffffff\n      mul\n      not\n      and\n      swap1\n      dup4\n      0xffffffffffffffffffffffffffffffffffffffff\n      and\n      mul\n      or\n      swap1\n      sstore\n      pop\n        /* \"FundMe.sol\":762:770  ethValue */\n      dup2\n        /* \"FundMe.sol\":731:751  addressToAmoutFunded */\n      0x01\n        /* \"FundMe.sol\":731:759  addressToAmoutFunded[funder] */\n      0x00\n        /* \"FundMe.sol\":752:758  funder */\n      dup4\n        /* \"FundMe.sol\":731:759  addressToAmoutFunded[funder] */\n      0xffffffffffffffffffffffffffffffffffffffff\n      and\n      0xffffffffffffffffffffffffffffffffffffffff\n      and\n      dup2\n      mstore\n      0x20\n      add\n      swap1\n      dup2\n      mstore\n      0x20\n      add\n      0x00\n      keccak256\n      sload\n        /* \"FundMe.sol\":731:770  addressToAmoutFunded[funder] + ethValue */\n      tag_61\n      swap2\n      swap1\n      tag_62\n      jump\t// in\n    tag_61:\n        /* \"FundMe.sol\":700:720  addressToAmoutFunded */\n      0x01\n        /* \"FundMe.sol\":700:728  addressToAmoutFunded[funder] */\n      0x00\n        /* \"FundMe.sol\":721:727  funder */\n      dup4\n        /* \"FundMe.sol\":700:728  addressToAmoutFunded[funder] */\n      0xffffffffffffffffffffffffffffffffffffffff\n      and\n      0xffffffffffffffffffffffffffffffffffffffff\n      and\n      dup2\n      mstore\n      0x20\n      add\n      swap1\n      dup2\n      mstore\n      0x20\n      add\n      0x00\n      keccak256\n        /* \"FundMe.sol\":700:770  addressToAmoutFunded[funder] = addressToAmoutFunded[funder] + ethValue */\n      dup2\n      swap1\n      sstore\n      pop\n        /* \"FundMe.sol\":450:777  {... */\n      pop\n      pop\n        /* \"FundMe.sol\":419:777  function fund() public payable {... */\n      jump\t// out\n        /* \"FundMe.sol\":244:316  mapping(address funder => uint amountFunded) public addressToAmoutFunded */\n    tag_21:\n      mstore(0x20, 0x01)\n      dup1\n      0x00\n      mstore\n      keccak256(0x00, 0x40)\n      0x00\n      swap2\n      pop\n      swap1\n      pop\n      sload\n      dup2\n      jump\t// out\n        /* \"FundMe.sol\":323:355  address public immutable i_owner */\n    tag_25:\n      immutable(\"0x646d998f946f968f0675fd4e3cb527e1222094ea0d9cc1fd615146a8fe29802e\")\n      dup2\n      jump\t// out\n        /* \"PriceConverter.sol\":632:838  function getConversionRate(uint ethAmount) internal view returns (uint){... */\n    tag_56:\n        /* \"PriceConverter.sol\":698:702  uint */\n      0x00\n        /* \"PriceConverter.sol\":713:726  uint ethPrice */\n      dup1\n        /* \"PriceConverter.sol\":729:739  getPrice() */\n      tag_64\n        /* \"PriceConverter.sol\":729:737  getPrice */\n      tag_65\n        /* \"PriceConverter.sol\":729:739  getPrice() */\n      jump\t// in\n    tag_64:\n        /* \"PriceConverter.sol\":713:739  uint ethPrice = getPrice() */\n      swap1\n      pop\n        /* \"PriceConverter.sol\":749:768  uint ethAmountInUsd */\n      0x00\n        /* \"PriceConverter.sol\":796:800  1e18 */\n      0x0de0b6b3a7640000\n        /* \"PriceConverter.sol\":784:792  ethPrice */\n      dup3\n        /* \"PriceConverter.sol\":772:781  ethAmount */\n      dup6\n        /* \"PriceConverter.sol\":772:792  ethAmount * ethPrice */\n      tag_66\n      swap2\n      swap1\n      tag_67\n      jump\t// in\n    tag_66:\n        /* \"PriceConverter.sol\":771:800  (ethAmount * ethPrice) / 1e18 */\n      tag_68\n      swap2\n      swap1\n      tag_69\n      jump\t// in\n    tag_68:\n        /* \"PriceConverter.sol\":749:800  uint ethAmountInUsd = (ethAmount * ethPrice) / 1e18 */\n      swap1\n      pop\n        /* \"PriceConverter.sol\":817:831  ethAmountInUsd */\n      dup1\n        /* \"PriceConverter.sol\":810:831  return ethAmountInUsd */\n      swap3\n      pop\n      pop\n      pop\n        /* \"PriceConverter.sol\":632:838  function getConversionRate(uint ethAmount) internal view returns (uint){... */\n      swap2\n      swap1\n      pop\n      jump\t// out\n        /* \"PriceConverter.sol\":205:626  function getPrice() internal view returns (uint256) {... */\n    tag_65:\n        /* \"PriceConverter.sol\":248:255  uint256 */\n      0x00\n        /* \"PriceConverter.sol\":267:298  AggregatorV3Interface priceFeed */\n      dup1\n        /* \"PriceConverter.sol\":323:365  0x694AA1769357215DE4FAC081bf1f309aDC325306 */\n      0x694aa1769357215de4fac081bf1f309adc325306\n        /* \"PriceConverter.sol\":267:366  AggregatorV3Interface priceFeed = AggregatorV3Interface(0x694AA1769357215DE4FAC081bf1f309aDC325306) */\n      swap1\n      pop\n        /* \"PriceConverter.sol\":424:434  int answer */\n      0x00\n        /* \"PriceConverter.sol\":551:560  priceFeed */\n      dup2\n        /* \"PriceConverter.sol\":551:576  priceFeed.latestRoundData */\n      0xffffffffffffffffffffffffffffffffffffffff\n      and\n      0xfeaf968c\n        /* \"PriceConverter.sol\":551:578  priceFeed.latestRoundData() */\n      mload(0x40)\n      dup2\n      0xffffffff\n      and\n      0xe0\n      shl\n      dup2\n      mstore\n      0x04\n      add\n      0xa0\n      mload(0x40)\n      dup1\n      dup4\n      sub\n      dup2\n      dup7\n      gas\n      staticcall\n      iszero\n      dup1\n      iszero\n      tag_72\n      jumpi\n      returndatasize\n      0x00\n      dup1\n      returndatacopy\n      revert(0x00, returndatasize)\n    tag_72:\n      pop\n      pop\n      pop\n      pop\n      mload(0x40)\n      returndatasize\n      not(0x1f)\n      0x1f\n      dup3\n      add\n      and\n      dup3\n      add\n      dup1\n      0x40\n      mstore\n      pop\n      dup2\n      add\n      swap1\n      tag_73\n      swap2\n      swap1\n      tag_74\n      jump\t// in\n    tag_73:\n        /* \"PriceConverter.sol\":376:578  (... */\n      pop\n      pop\n      pop\n      swap2\n      pop\n      pop\n        /* \"PriceConverter.sol\":614:618  1e10 */\n      0x02540be400\n        /* \"PriceConverter.sol\":605:611  answer */\n      dup2\n        /* \"PriceConverter.sol\":605:618  answer * 1e10 */\n      tag_75\n      swap2\n      swap1\n      tag_76\n      jump\t// in\n    tag_75:\n        /* \"PriceConverter.sol\":593:619  return uint(answer * 1e10) */\n      swap3\n      pop\n      pop\n      pop\n        /* \"PriceConverter.sol\":205:626  function getPrice() internal view returns (uint256) {... */\n      swap1\n      jump\t// out\n    tag_45:\n      dup3\n      dup1\n      sload\n      dup3\n      dup3\n      sstore\n      swap1\n      0x00\n      mstore\n      keccak256(0x00, 0x20)\n      swap1\n      dup2\n      add\n      swap3\n      dup3\n      iszero\n      tag_77\n      jumpi\n      swap2\n      0x20\n      mul\n      dup3\n      add\n    tag_78:\n      dup3\n      dup2\n      gt\n      iszero\n      tag_79\n      jumpi\n      dup3\n      mload\n      dup3\n      exp(0x0100, 0x00)\n      dup2\n      sload\n      dup2\n      0xffffffffffffffffffffffffffffffffffffffff\n      mul\n      not\n      and\n      swap1\n      dup4\n      0xffffffffffffffffffffffffffffffffffffffff\n      and\n      mul\n      or\n      swap1\n      sstore\n      pop\n      swap2\n      0x20\n      add\n      swap2\n      swap1\n      0x01\n      add\n      swap1\n      jump(tag_78)\n    tag_79:\n    tag_77:\n      pop\n      swap1\n      pop\n      tag_80\n      swap2\n      swap1\n      tag_81\n      jump\t// in\n    tag_80:\n      pop\n      swap1\n      jump\t// out\n    tag_81:\n    tag_82:\n      dup1\n      dup3\n      gt\n      iszero\n      tag_83\n      jumpi\n      0x00\n      dup2\n      0x00\n      swap1\n      sstore\n      pop\n      0x01\n      add\n      jump(tag_82)\n    tag_83:\n      pop\n      swap1\n      jump\t// out\n        /* \"#utility.yul\":7:84   */\n    tag_84:\n        /* \"#utility.yul\":44:51   */\n      0x00\n        /* \"#utility.yul\":73:78   */\n      dup2\n        /* \"#utility.yul\":62:78   */\n      swap1\n      pop\n        /* \"#utility.yul\":7:84   */\n      swap2\n      swap1\n      pop\n      jump\t// out\n        /* \"#utility.yul\":90:208   */\n    tag_85:\n        /* \"#utility.yul\":177:201   */\n      tag_117\n        /* \"#utility.yul\":195:200   */\n      dup2\n        /* \"#utility.yul\":177:201   */\n      tag_84\n      jump\t// in\n    tag_117:\n        /* \"#utility.yul\":172:175   */\n      dup3\n        /* \"#utility.yul\":165:202   */\n      mstore\n        /* \"#utility.yul\":90:208   */\n      pop\n      pop\n      jump\t// out\n        /* \"#utility.yul\":214:436   */\n    tag_11:\n        /* \"#utility.yul\":307:311   */\n      0x00\n        /* \"#utility.yul\":345:347   */\n      0x20\n        /* \"#utility.yul\":334:343   */\n      dup3\n        /* \"#utility.yul\":330:348   */\n      add\n        /* \"#utility.yul\":322:348   */\n      swap1\n      pop\n        /* \"#utility.yul\":358:429   */\n      tag_119\n        /* \"#utility.yul\":426:427   */\n      0x00\n        /* \"#utility.yul\":415:424   */\n      dup4\n        /* \"#utility.yul\":411:428   */\n      add\n        /* \"#utility.yul\":402:408   */\n      dup5\n        /* \"#utility.yul\":358:429   */\n      tag_85\n      jump\t// in\n    tag_119:\n        /* \"#utility.yul\":214:436   */\n      swap3\n      swap2\n      pop\n      pop\n      jump\t// out\n        /* \"#utility.yul\":523:640   */\n    tag_87:\n        /* \"#utility.yul\":632:633   */\n      0x00\n        /* \"#utility.yul\":629:630   */\n      dup1\n        /* \"#utility.yul\":622:634   */\n      revert\n        /* \"#utility.yul\":769:895   */\n    tag_89:\n        /* \"#utility.yul\":806:813   */\n      0x00\n        /* \"#utility.yul\":846:888   */\n      0xffffffffffffffffffffffffffffffffffffffff\n        /* \"#utility.yul\":839:844   */\n      dup3\n        /* \"#utility.yul\":835:889   */\n      and\n        /* \"#utility.yul\":824:889   */\n      swap1\n      pop\n        /* \"#utility.yul\":769:895   */\n      swap2\n      swap1\n      pop\n      jump\t// out\n        /* \"#utility.yul\":901:997   */\n    tag_90:\n        /* \"#utility.yul\":938:945   */\n      0x00\n        /* \"#utility.yul\":967:991   */\n      tag_125\n        /* \"#utility.yul\":985:990   */\n      dup3\n        /* \"#utility.yul\":967:991   */\n      tag_89\n      jump\t// in\n    tag_125:\n        /* \"#utility.yul\":956:991   */\n      swap1\n      pop\n        /* \"#utility.yul\":901:997   */\n      swap2\n      swap1\n      pop\n      jump\t// out\n        /* \"#utility.yul\":1003:1125   */\n    tag_91:\n        /* \"#utility.yul\":1076:1100   */\n      tag_127\n        /* \"#utility.yul\":1094:1099   */\n      dup2\n        /* \"#utility.yul\":1076:1100   */\n      tag_90\n      jump\t// in\n    tag_127:\n        /* \"#utility.yul\":1069:1074   */\n      dup2\n        /* \"#utility.yul\":1066:1101   */\n      eq\n        /* \"#utility.yul\":1056:1119   */\n      tag_128\n      jumpi\n        /* \"#utility.yul\":1115:1116   */\n      0x00\n        /* \"#utility.yul\":1112:1113   */\n      dup1\n        /* \"#utility.yul\":1105:1117   */\n      revert\n        /* \"#utility.yul\":1056:1119   */\n    tag_128:\n        /* \"#utility.yul\":1003:1125   */\n      pop\n      jump\t// out\n        /* \"#utility.yul\":1131:1270   */\n    tag_92:\n        /* \"#utility.yul\":1177:1182   */\n      0x00\n        /* \"#utility.yul\":1215:1221   */\n      dup2\n        /* \"#utility.yul\":1202:1222   */\n      calldataload\n        /* \"#utility.yul\":1193:1222   */\n      swap1\n      pop\n        /* \"#utility.yul\":1231:1264   */\n      tag_130\n        /* \"#utility.yul\":1258:1263   */\n      dup2\n        /* \"#utility.yul\":1231:1264   */\n      tag_91\n      jump\t// in\n    tag_130:\n        /* \"#utility.yul\":1131:1270   */\n      swap3\n      swap2\n      pop\n      pop\n      jump\t// out\n        /* \"#utility.yul\":1276:1605   */\n    tag_20:\n        /* \"#utility.yul\":1335:1341   */\n      0x00\n        /* \"#utility.yul\":1384:1386   */\n      0x20\n        /* \"#utility.yul\":1372:1381   */\n      dup3\n        /* \"#utility.yul\":1363:1370   */\n      dup5\n        /* \"#utility.yul\":1359:1382   */\n      sub\n        /* \"#utility.yul\":1355:1387   */\n      slt\n        /* \"#utility.yul\":1352:1471   */\n      iszero\n      tag_132\n      jumpi\n        /* \"#utility.yul\":1390:1469   */\n      tag_133\n      tag_87\n      jump\t// in\n    tag_133:\n        /* \"#utility.yul\":1352:1471   */\n    tag_132:\n        /* \"#utility.yul\":1510:1511   */\n      0x00\n        /* \"#utility.yul\":1535:1588   */\n      tag_134\n        /* \"#utility.yul\":1580:1587   */\n      dup5\n        /* \"#utility.yul\":1571:1577   */\n      dup3\n        /* \"#utility.yul\":1560:1569   */\n      dup6\n        /* \"#utility.yul\":1556:1578   */\n      add\n        /* \"#utility.yul\":1535:1588   */\n      tag_92\n      jump\t// in\n    tag_134:\n        /* \"#utility.yul\":1525:1588   */\n      swap2\n      pop\n        /* \"#utility.yul\":1481:1598   */\n      pop\n        /* \"#utility.yul\":1276:1605   */\n      swap3\n      swap2\n      pop\n      pop\n      jump\t// out\n        /* \"#utility.yul\":1611:1729   */\n    tag_93:\n        /* \"#utility.yul\":1698:1722   */\n      tag_136\n        /* \"#utility.yul\":1716:1721   */\n      dup2\n        /* \"#utility.yul\":1698:1722   */\n      tag_90\n      jump\t// in\n    tag_136:\n        /* \"#utility.yul\":1693:1696   */\n      dup3\n        /* \"#utility.yul\":1686:1723   */\n      mstore\n        /* \"#utility.yul\":1611:1729   */\n      pop\n      pop\n      jump\t// out\n        /* \"#utility.yul\":1735:1957   */\n    tag_27:\n        /* \"#utility.yul\":1828:1832   */\n      0x00\n        /* \"#utility.yul\":1866:1868   */\n      0x20\n        /* \"#utility.yul\":1855:1864   */\n      dup3\n        /* \"#utility.yul\":1851:1869   */\n      add\n        /* \"#utility.yul\":1843:1869   */\n      swap1\n      pop\n        /* \"#utility.yul\":1879:1950   */\n      tag_138\n        /* \"#utility.yul\":1947:1948   */\n      0x00\n        /* \"#utility.yul\":1936:1945   */\n      dup4\n        /* \"#utility.yul\":1932:1949   */\n      add\n        /* \"#utility.yul\":1923:1929   */\n      dup5\n        /* \"#utility.yul\":1879:1950   */\n      tag_93\n      jump\t// in\n    tag_138:\n        /* \"#utility.yul\":1735:1957   */\n      swap3\n      swap2\n      pop\n      pop\n      jump\t// out\n        /* \"#utility.yul\":1963:2132   */\n    tag_94:\n        /* \"#utility.yul\":2047:2058   */\n      0x00\n        /* \"#utility.yul\":2081:2087   */\n      dup3\n        /* \"#utility.yul\":2076:2079   */\n      dup3\n        /* \"#utility.yul\":2069:2088   */\n      mstore\n        /* \"#utility.yul\":2121:2125   */\n      0x20\n        /* \"#utility.yul\":2116:2119   */\n      dup3\n        /* \"#utility.yul\":2112:2126   */\n      add\n        /* \"#utility.yul\":2097:2126   */\n      swap1\n      pop\n        /* \"#utility.yul\":1963:2132   */\n      swap3\n      swap2\n      pop\n      pop\n      jump\t// out\n        /* \"#utility.yul\":2138:2307   */\n    tag_95:\n        /* \"#utility.yul\":2278:2299   */\n      0x53656e646572206973206e6f74206f776e657200000000000000000000000000\n        /* \"#utility.yul\":2274:2275   */\n      0x00\n        /* \"#utility.yul\":2266:2272   */\n      dup3\n        /* \"#utility.yul\":2262:2276   */\n      add\n        /* \"#utility.yul\":2255:2300   */\n      mstore\n        /* \"#utility.yul\":2138:2307   */\n      pop\n      jump\t// out\n        /* \"#utility.yul\":2313:2679   */\n    tag_96:\n        /* \"#utility.yul\":2455:2458   */\n      0x00\n        /* \"#utility.yul\":2476:2543   */\n      tag_142\n        /* \"#utility.yul\":2540:2542   */\n      0x13\n        /* \"#utility.yul\":2535:2538   */\n      dup4\n        /* \"#utility.yul\":2476:2543   */\n      tag_94\n      jump\t// in\n    tag_142:\n        /* \"#utility.yul\":2469:2543   */\n      swap2\n      pop\n        /* \"#utility.yul\":2552:2645   */\n      tag_143\n        /* \"#utility.yul\":2641:2644   */\n      dup3\n        /* \"#utility.yul\":2552:2645   */\n      tag_95\n      jump\t// in\n    tag_143:\n        /* \"#utility.yul\":2670:2672   */\n      0x20\n        /* \"#utility.yul\":2665:2668   */\n      dup3\n        /* \"#utility.yul\":2661:2673   */\n      add\n        /* \"#utility.yul\":2654:2673   */\n      swap1\n      pop\n        /* \"#utility.yul\":2313:2679   */\n      swap2\n      swap1\n      pop\n      jump\t// out\n        /* \"#utility.yul\":2685:3104   */\n    tag_31:\n        /* \"#utility.yul\":2851:2855   */\n      0x00\n        /* \"#utility.yul\":2889:2891   */\n      0x20\n        /* \"#utility.yul\":2878:2887   */\n      dup3\n        /* \"#utility.yul\":2874:2892   */\n      add\n        /* \"#utility.yul\":2866:2892   */\n      swap1\n      pop\n        /* \"#utility.yul\":2938:2947   */\n      dup2\n        /* \"#utility.yul\":2932:2936   */\n      dup2\n        /* \"#utility.yul\":2928:2948   */\n      sub\n        /* \"#utility.yul\":2924:2925   */\n      0x00\n        /* \"#utility.yul\":2913:2922   */\n      dup4\n        /* \"#utility.yul\":2909:2926   */\n      add\n        /* \"#utility.yul\":2902:2949   */\n      mstore\n        /* \"#utility.yul\":2966:3097   */\n      tag_145\n        /* \"#utility.yul\":3092:3096   */\n      dup2\n        /* \"#utility.yul\":2966:3097   */\n      tag_96\n      jump\t// in\n    tag_145:\n        /* \"#utility.yul\":2958:3097   */\n      swap1\n      pop\n        /* \"#utility.yul\":2685:3104   */\n      swap2\n      swap1\n      pop\n      jump\t// out\n        /* \"#utility.yul\":3110:3290   */\n    tag_38:\n        /* \"#utility.yul\":3158:3235   */\n      0x4e487b7100000000000000000000000000000000000000000000000000000000\n        /* \"#utility.yul\":3155:3156   */\n      0x00\n        /* \"#utility.yul\":3148:3236   */\n      mstore\n        /* \"#utility.yul\":3255:3259   */\n      0x32\n        /* \"#utility.yul\":3252:3253   */\n      0x04\n        /* \"#utility.yul\":3245:3260   */\n      mstore\n        /* \"#utility.yul\":3279:3283   */\n      0x24\n        /* \"#utility.yul\":3276:3277   */\n      0x00\n        /* \"#utility.yul\":3269:3284   */\n      revert\n        /* \"#utility.yul\":3296:3476   */\n    tag_42:\n        /* \"#utility.yul\":3344:3421   */\n      0x4e487b7100000000000000000000000000000000000000000000000000000000\n        /* \"#utility.yul\":3341:3342   */\n      0x00\n        /* \"#utility.yul\":3334:3422   */\n      mstore\n        /* \"#utility.yul\":3441:3445   */\n      0x41\n        /* \"#utility.yul\":3438:3439   */\n      0x04\n        /* \"#utility.yul\":3431:3446   */\n      mstore\n        /* \"#utility.yul\":3465:3469   */\n      0x24\n        /* \"#utility.yul\":3462:3463   */\n      0x00\n        /* \"#utility.yul\":3455:3470   */\n      revert\n        /* \"#utility.yul\":3482:3629   */\n    tag_97:\n        /* \"#utility.yul\":3583:3594   */\n      0x00\n        /* \"#utility.yul\":3620:3623   */\n      dup2\n        /* \"#utility.yul\":3605:3623   */\n      swap1\n      pop\n        /* \"#utility.yul\":3482:3629   */\n      swap3\n      swap2\n      pop\n      pop\n      jump\t// out\n        /* \"#utility.yul\":3635:3749   */\n    tag_98:\n      pop\n      jump\t// out\n        /* \"#utility.yul\":3755:4153   */\n    tag_99:\n        /* \"#utility.yul\":3914:3917   */\n      0x00\n        /* \"#utility.yul\":3935:4018   */\n      tag_151\n        /* \"#utility.yul\":4016:4017   */\n      0x00\n        /* \"#utility.yul\":4011:4014   */\n      dup4\n        /* \"#utility.yul\":3935:4018   */\n      tag_97\n      jump\t// in\n    tag_151:\n        /* \"#utility.yul\":3928:4018   */\n      swap2\n      pop\n        /* \"#utility.yul\":4027:4120   */\n      tag_152\n        /* \"#utility.yul\":4116:4119   */\n      dup3\n        /* \"#utility.yul\":4027:4120   */\n      tag_98\n      jump\t// in\n    tag_152:\n        /* \"#utility.yul\":4145:4146   */\n      0x00\n        /* \"#utility.yul\":4140:4143   */\n      dup3\n        /* \"#utility.yul\":4136:4147   */\n      add\n        /* \"#utility.yul\":4129:4147   */\n      swap1\n      pop\n        /* \"#utility.yul\":3755:4153   */\n      swap2\n      swap1\n      pop\n      jump\t// out\n        /* \"#utility.yul\":4159:4538   */\n    tag_47:\n        /* \"#utility.yul\":4343:4346   */\n      0x00\n        /* \"#utility.yul\":4365:4512   */\n      tag_154\n        /* \"#utility.yul\":4508:4511   */\n      dup3\n        /* \"#utility.yul\":4365:4512   */\n      tag_99\n      jump\t// in\n    tag_154:\n        /* \"#utility.yul\":4358:4512   */\n      swap2\n      pop\n        /* \"#utility.yul\":4529:4532   */\n      dup2\n        /* \"#utility.yul\":4522:4532   */\n      swap1\n      pop\n        /* \"#utility.yul\":4159:4538   */\n      swap2\n      swap1\n      pop\n      jump\t// out\n        /* \"#utility.yul\":4544:4705   */\n    tag_100:\n        /* \"#utility.yul\":4684:4697   */\n      0x43616c6c206661696c6564000000000000000000000000000000000000000000\n        /* \"#utility.yul\":4680:4681   */\n      0x00\n        /* \"#utility.yul\":4672:4678   */\n      dup3\n        /* \"#utility.yul\":4668:4682   */\n      add\n        /* \"#utility.yul\":4661:4698   */\n      mstore\n        /* \"#utility.yul\":4544:4705   */\n      pop\n      jump\t// out\n        /* \"#utility.yul\":4711:5077   */\n    tag_101:\n        /* \"#utility.yul\":4853:4856   */\n      0x00\n        /* \"#utility.yul\":4874:4941   */\n      tag_157\n        /* \"#utility.yul\":4938:4940   */\n      0x0b\n        /* \"#utility.yul\":4933:4936   */\n      dup4\n        /* \"#utility.yul\":4874:4941   */\n      tag_94\n      jump\t// in\n    tag_157:\n        /* \"#utility.yul\":4867:4941   */\n      swap2\n      pop\n        /* \"#utility.yul\":4950:5043   */\n      tag_158\n        /* \"#utility.yul\":5039:5042   */\n      dup3\n        /* \"#utility.yul\":4950:5043   */\n      tag_100\n      jump\t// in\n    tag_158:\n        /* \"#utility.yul\":5068:5070   */\n      0x20\n        /* \"#utility.yul\":5063:5066   */\n      dup3\n        /* \"#utility.yul\":5059:5071   */\n      add\n        /* \"#utility.yul\":5052:5071   */\n      swap1\n      pop\n        /* \"#utility.yul\":4711:5077   */\n      swap2\n      swap1\n      pop\n      jump\t// out\n        /* \"#utility.yul\":5083:5502   */\n    tag_53:\n        /* \"#utility.yul\":5249:5253   */\n      0x00\n        /* \"#utility.yul\":5287:5289   */\n      0x20\n        /* \"#utility.yul\":5276:5285   */\n      dup3\n        /* \"#utility.yul\":5272:5290   */\n      add\n        /* \"#utility.yul\":5264:5290   */\n      swap1\n      pop\n        /* \"#utility.yul\":5336:5345   */\n      dup2\n        /* \"#utility.yul\":5330:5334   */\n      dup2\n        /* \"#utility.yul\":5326:5346   */\n      sub\n        /* \"#utility.yul\":5322:5323   */\n      0x00\n        /* \"#utility.yul\":5311:5320   */\n      dup4\n        /* \"#utility.yul\":5307:5324   */\n      add\n        /* \"#utility.yul\":5300:5347   */\n      mstore\n        /* \"#utility.yul\":5364:5495   */\n      tag_160\n        /* \"#utility.yul\":5490:5494   */\n      dup2\n        /* \"#utility.yul\":5364:5495   */\n      tag_101\n      jump\t// in\n    tag_160:\n        /* \"#utility.yul\":5356:5495   */\n      swap1\n      pop\n        /* \"#utility.yul\":5083:5502   */\n      swap2\n      swap1\n      pop\n      jump\t// out\n        /* \"#utility.yul\":5508:5684   */\n    tag_102:\n        /* \"#utility.yul\":5648:5676   */\n      0x596f75206469646e27742073656e6420616e6f75676820455448000000000000\n        /* \"#utility.yul\":5644:5645   */\n      0x00\n        /* \"#utility.yul\":5636:5642   */\n      dup3\n        /* \"#utility.yul\":5632:5646   */\n      add\n        /* \"#utility.yul\":5625:5677   */\n      mstore\n        /* \"#utility.yul\":5508:5684   */\n      pop\n      jump\t// out\n        /* \"#utility.yul\":5690:6056   */\n    tag_103:\n        /* \"#utility.yul\":5832:5835   */\n      0x00\n        /* \"#utility.yul\":5853:5920   */\n      tag_163\n        /* \"#utility.yul\":5917:5919   */\n      0x1a\n        /* \"#utility.yul\":5912:5915   */\n      dup4\n        /* \"#utility.yul\":5853:5920   */\n      tag_94\n      jump\t// in\n    tag_163:\n        /* \"#utility.yul\":5846:5920   */\n      swap2\n      pop\n        /* \"#utility.yul\":5929:6022   */\n      tag_164\n        /* \"#utility.yul\":6018:6021   */\n      dup3\n        /* \"#utility.yul\":5929:6022   */\n      tag_102\n      jump\t// in\n    tag_164:\n        /* \"#utility.yul\":6047:6049   */\n      0x20\n        /* \"#utility.yul\":6042:6045   */\n      dup3\n        /* \"#utility.yul\":6038:6050   */\n      add\n        /* \"#utility.yul\":6031:6050   */\n      swap1\n      pop\n        /* \"#utility.yul\":5690:6056   */\n      swap2\n      swap1\n      pop\n      jump\t// out\n        /* \"#utility.yul\":6062:6481   */\n    tag_59:\n        /* \"#utility.yul\":6228:6232   */\n      0x00\n        /* \"#utility.yul\":6266:6268   */\n      0x20\n        /* \"#utility.yul\":6255:6264   */\n      dup3\n        /* \"#utility.yul\":6251:6269   */\n      add\n        /* \"#utility.yul\":6243:6269   */\n      swap1\n      pop\n        /* \"#utility.yul\":6315:6324   */\n      dup2\n        /* \"#utility.yul\":6309:6313   */\n      dup2\n        /* \"#utility.yul\":6305:6325   */\n      sub\n        /* \"#utility.yul\":6301:6302   */\n      0x00\n        /* \"#utility.yul\":6290:6299   */\n      dup4\n        /* \"#utility.yul\":6286:6303   */\n      add\n        /* \"#utility.yul\":6279:6326   */\n      mstore\n        /* \"#utility.yul\":6343:6474   */\n      tag_166\n        /* \"#utility.yul\":6469:6473   */\n      dup2\n        /* \"#utility.yul\":6343:6474   */\n      tag_103\n      jump\t// in\n    tag_166:\n        /* \"#utility.yul\":6335:6474   */\n      swap1\n      pop\n        /* \"#utility.yul\":6062:6481   */\n      swap2\n      swap1\n      pop\n      jump\t// out\n        /* \"#utility.yul\":6487:6667   */\n    tag_104:\n        /* \"#utility.yul\":6535:6612   */\n      0x4e487b7100000000000000000000000000000000000000000000000000000000\n        /* \"#utility.yul\":6532:6533   */\n      0x00\n        /* \"#utility.yul\":6525:6613   */\n      mstore\n        /* \"#utility.yul\":6632:6636   */\n      0x11\n        /* \"#utility.yul\":6629:6630   */\n      0x04\n        /* \"#utility.yul\":6622:6637   */\n      mstore\n        /* \"#utility.yul\":6656:6660   */\n      0x24\n        /* \"#utility.yul\":6653:6654   */\n      0x00\n        /* \"#utility.yul\":6646:6661   */\n      revert\n        /* \"#utility.yul\":6673:6864   */\n    tag_62:\n        /* \"#utility.yul\":6713:6716   */\n      0x00\n        /* \"#utility.yul\":6732:6752   */\n      tag_169\n        /* \"#utility.yul\":6750:6751   */\n      dup3\n        /* \"#utility.yul\":6732:6752   */\n      tag_84\n      jump\t// in\n    tag_169:\n        /* \"#utility.yul\":6727:6752   */\n      swap2\n      pop\n        /* \"#utility.yul\":6766:6786   */\n      tag_170\n        /* \"#utility.yul\":6784:6785   */\n      dup4\n        /* \"#utility.yul\":6766:6786   */\n      tag_84\n      jump\t// in\n    tag_170:\n        /* \"#utility.yul\":6761:6786   */\n      swap3\n      pop\n        /* \"#utility.yul\":6809:6810   */\n      dup3\n        /* \"#utility.yul\":6806:6807   */\n      dup3\n        /* \"#utility.yul\":6802:6811   */\n      add\n        /* \"#utility.yul\":6795:6811   */\n      swap1\n      pop\n        /* \"#utility.yul\":6830:6833   */\n      dup1\n        /* \"#utility.yul\":6827:6828   */\n      dup3\n        /* \"#utility.yul\":6824:6834   */\n      gt\n        /* \"#utility.yul\":6821:6857   */\n      iszero\n      tag_171\n      jumpi\n        /* \"#utility.yul\":6837:6855   */\n      tag_172\n      tag_104\n      jump\t// in\n    tag_172:\n        /* \"#utility.yul\":6821:6857   */\n    tag_171:\n        /* \"#utility.yul\":6673:6864   */\n      swap3\n      swap2\n      pop\n      pop\n      jump\t// out\n        /* \"#utility.yul\":6870:7280   */\n    tag_67:\n        /* \"#utility.yul\":6910:6917   */\n      0x00\n        /* \"#utility.yul\":6933:6953   */\n      tag_174\n        /* \"#utility.yul\":6951:6952   */\n      dup3\n        /* \"#utility.yul\":6933:6953   */\n      tag_84\n      jump\t// in\n    tag_174:\n        /* \"#utility.yul\":6928:6953   */\n      swap2\n      pop\n        /* \"#utility.yul\":6967:6987   */\n      tag_175\n        /* \"#utility.yul\":6985:6986   */\n      dup4\n        /* \"#utility.yul\":6967:6987   */\n      tag_84\n      jump\t// in\n    tag_175:\n        /* \"#utility.yul\":6962:6987   */\n      swap3\n      pop\n        /* \"#utility.yul\":7022:7023   */\n      dup3\n        /* \"#utility.yul\":7019:7020   */\n      dup3\n        /* \"#utility.yul\":7015:7024   */\n      mul\n        /* \"#utility.yul\":7044:7074   */\n      tag_176\n        /* \"#utility.yul\":7062:7073   */\n      dup2\n        /* \"#utility.yul\":7044:7074   */\n      tag_84\n      jump\t// in\n    tag_176:\n        /* \"#utility.yul\":7033:7074   */\n      swap2\n      pop\n        /* \"#utility.yul\":7223:7224   */\n      dup3\n        /* \"#utility.yul\":7214:7221   */\n      dup3\n        /* \"#utility.yul\":7210:7225   */\n      div\n        /* \"#utility.yul\":7207:7208   */\n      dup5\n        /* \"#utility.yul\":7204:7226   */\n      eq\n        /* \"#utility.yul\":7184:7185   */\n      dup4\n        /* \"#utility.yul\":7177:7186   */\n      iszero\n        /* \"#utility.yul\":7157:7240   */\n      or\n        /* \"#utility.yul\":7134:7273   */\n      tag_177\n      jumpi\n        /* \"#utility.yul\":7253:7271   */\n      tag_178\n      tag_104\n      jump\t// in\n    tag_178:\n        /* \"#utility.yul\":7134:7273   */\n    tag_177:\n        /* \"#utility.yul\":6918:7280   */\n      pop\n        /* \"#utility.yul\":6870:7280   */\n      swap3\n      swap2\n      pop\n      pop\n      jump\t// out\n        /* \"#utility.yul\":7286:7466   */\n    tag_105:\n        /* \"#utility.yul\":7334:7411   */\n      0x4e487b7100000000000000000000000000000000000000000000000000000000\n        /* \"#utility.yul\":7331:7332   */\n      0x00\n        /* \"#utility.yul\":7324:7412   */\n      mstore\n        /* \"#utility.yul\":7431:7435   */\n      0x12\n        /* \"#utility.yul\":7428:7429   */\n      0x04\n        /* \"#utility.yul\":7421:7436   */\n      mstore\n        /* \"#utility.yul\":7455:7459   */\n      0x24\n        /* \"#utility.yul\":7452:7453   */\n      0x00\n        /* \"#utility.yul\":7445:7460   */\n      revert\n        /* \"#utility.yul\":7472:7657   */\n    tag_69:\n        /* \"#utility.yul\":7512:7513   */\n      0x00\n        /* \"#utility.yul\":7529:7549   */\n      tag_181\n        /* \"#utility.yul\":7547:7548   */\n      dup3\n        /* \"#utility.yul\":7529:7549   */\n      tag_84\n      jump\t// in\n    tag_181:\n        /* \"#utility.yul\":7524:7549   */\n      swap2\n      pop\n        /* \"#utility.yul\":7563:7583   */\n      tag_182\n        /* \"#utility.yul\":7581:7582   */\n      dup4\n        /* \"#utility.yul\":7563:7583   */\n      tag_84\n      jump\t// in\n    tag_182:\n        /* \"#utility.yul\":7558:7583   */\n      swap3\n      pop\n        /* \"#utility.yul\":7602:7603   */\n      dup3\n        /* \"#utility.yul\":7592:7627   */\n      tag_183\n      jumpi\n        /* \"#utility.yul\":7607:7625   */\n      tag_184\n      tag_105\n      jump\t// in\n    tag_184:\n        /* \"#utility.yul\":7592:7627   */\n    tag_183:\n        /* \"#utility.yul\":7649:7650   */\n      dup3\n        /* \"#utility.yul\":7646:7647   */\n      dup3\n        /* \"#utility.yul\":7642:7651   */\n      div\n        /* \"#utility.yul\":7637:7651   */\n      swap1\n      pop\n        /* \"#utility.yul\":7472:7657   */\n      swap3\n      swap2\n      pop\n      pop\n      jump\t// out\n        /* \"#utility.yul\":7663:7768   */\n    tag_106:\n        /* \"#utility.yul\":7699:7706   */\n      0x00\n        /* \"#utility.yul\":7739:7761   */\n      0xffffffffffffffffffff\n        /* \"#utility.yul\":7732:7737   */\n      dup3\n        /* \"#utility.yul\":7728:7762   */\n      and\n        /* \"#utility.yul\":7717:7762   */\n      swap1\n      pop\n        /* \"#utility.yul\":7663:7768   */\n      swap2\n      swap1\n      pop\n      jump\t// out\n        /* \"#utility.yul\":7774:7894   */\n    tag_107:\n        /* \"#utility.yul\":7846:7869   */\n      tag_187\n        /* \"#utility.yul\":7863:7868   */\n      dup2\n        /* \"#utility.yul\":7846:7869   */\n      tag_106\n      jump\t// in\n    tag_187:\n        /* \"#utility.yul\":7839:7844   */\n      dup2\n        /* \"#utility.yul\":7836:7870   */\n      eq\n        /* \"#utility.yul\":7826:7888   */\n      tag_188\n      jumpi\n        /* \"#utility.yul\":7884:7885   */\n      0x00\n        /* \"#utility.yul\":7881:7882   */\n      dup1\n        /* \"#utility.yul\":7874:7886   */\n      revert\n        /* \"#utility.yul\":7826:7888   */\n    tag_188:\n        /* \"#utility.yul\":7774:7894   */\n      pop\n      jump\t// out\n        /* \"#utility.yul\":7900:8041   */\n    tag_108:\n        /* \"#utility.yul\":7956:7961   */\n      0x00\n        /* \"#utility.yul\":7987:7993   */\n      dup2\n        /* \"#utility.yul\":7981:7994   */\n      mload\n        /* \"#utility.yul\":7972:7994   */\n      swap1\n      pop\n        /* \"#utility.yul\":8003:8035   */\n      tag_190\n        /* \"#utility.yul\":8029:8034   */\n      dup2\n        /* \"#utility.yul\":8003:8035   */\n      tag_107\n      jump\t// in\n    tag_190:\n        /* \"#utility.yul\":7900:8041   */\n      swap3\n      swap2\n      pop\n      pop\n      jump\t// out\n        /* \"#utility.yul\":8047:8123   */\n    tag_109:\n        /* \"#utility.yul\":8083:8090   */\n      0x00\n        /* \"#utility.yul\":8112:8117   */\n      dup2\n        /* \"#utility.yul\":8101:8117   */\n      swap1\n      pop\n        /* \"#utility.yul\":8047:8123   */\n      swap2\n      swap1\n      pop\n      jump\t// out\n        /* \"#utility.yul\":8129:8249   */\n    tag_110:\n        /* \"#utility.yul\":8201:8224   */\n      tag_193\n        /* \"#utility.yul\":8218:8223   */\n      dup2\n        /* \"#utility.yul\":8201:8224   */\n      tag_109\n      jump\t// in\n    tag_193:\n        /* \"#utility.yul\":8194:8199   */\n      dup2\n        /* \"#utility.yul\":8191:8225   */\n      eq\n        /* \"#utility.yul\":8181:8243   */\n      tag_194\n      jumpi\n        /* \"#utility.yul\":8239:8240   */\n      0x00\n        /* \"#utility.yul\":8236:8237   */\n      dup1\n        /* \"#utility.yul\":8229:8241   */\n      revert\n        /* \"#utility.yul\":8181:8243   */\n    tag_194:\n        /* \"#utility.yul\":8129:8249   */\n      pop\n      jump\t// out\n        /* \"#utility.yul\":8255:8396   */\n    tag_111:\n        /* \"#utility.yul\":8311:8316   */\n      0x00\n        /* \"#utility.yul\":8342:8348   */\n      dup2\n        /* \"#utility.yul\":8336:8349   */\n      mload\n        /* \"#utility.yul\":8327:8349   */\n      swap1\n      pop\n        /* \"#utility.yul\":8358:8390   */\n      tag_196\n        /* \"#utility.yul\":8384:8389   */\n      dup2\n        /* \"#utility.yul\":8358:8390   */\n      tag_110\n      jump\t// in\n    tag_196:\n        /* \"#utility.yul\":8255:8396   */\n      swap3\n      swap2\n      pop\n      pop\n      jump\t// out\n        /* \"#utility.yul\":8402:8524   */\n    tag_112:\n        /* \"#utility.yul\":8475:8499   */\n      tag_198\n        /* \"#utility.yul\":8493:8498   */\n      dup2\n        /* \"#utility.yul\":8475:8499   */\n      tag_84\n      jump\t// in\n    tag_198:\n        /* \"#utility.yul\":8468:8473   */\n      dup2\n        /* \"#utility.yul\":8465:8500   */\n      eq\n        /* \"#utility.yul\":8455:8518   */\n      tag_199\n      jumpi\n        /* \"#utility.yul\":8514:8515   */\n      0x00\n        /* \"#utility.yul\":8511:8512   */\n      dup1\n        /* \"#utility.yul\":8504:8516   */\n      revert\n        /* \"#utility.yul\":8455:8518   */\n    tag_199:\n        /* \"#utility.yul\":8402:8524   */\n      pop\n      jump\t// out\n        /* \"#utility.yul\":8530:8673   */\n    tag_113:\n        /* \"#utility.yul\":8587:8592   */\n      0x00\n        /* \"#utility.yul\":8618:8624   */\n      dup2\n        /* \"#utility.yul\":8612:8625   */\n      mload\n        /* \"#utility.yul\":8603:8625   */\n      swap1\n      pop\n        /* \"#utility.yul\":8634:8667   */\n      tag_201\n        /* \"#utility.yul\":8661:8666   */\n      dup2\n        /* \"#utility.yul\":8634:8667   */\n      tag_112\n      jump\t// in\n    tag_201:\n        /* \"#utility.yul\":8530:8673   */\n      swap3\n      swap2\n      pop\n      pop\n      jump\t// out\n        /* \"#utility.yul\":8679:9650   */\n    tag_74:\n        /* \"#utility.yul\":8782:8788   */\n      0x00\n        /* \"#utility.yul\":8790:8796   */\n      dup1\n        /* \"#utility.yul\":8798:8804   */\n      0x00\n        /* \"#utility.yul\":8806:8812   */\n      dup1\n        /* \"#utility.yul\":8814:8820   */\n      0x00\n        /* \"#utility.yul\":8863:8866   */\n      0xa0\n        /* \"#utility.yul\":8851:8860   */\n      dup7\n        /* \"#utility.yul\":8842:8849   */\n      dup9\n        /* \"#utility.yul\":8838:8861   */\n      sub\n        /* \"#utility.yul\":8834:8867   */\n      slt\n        /* \"#utility.yul\":8831:8951   */\n      iszero\n      tag_203\n      jumpi\n        /* \"#utility.yul\":8870:8949   */\n      tag_204\n      tag_87\n      jump\t// in\n    tag_204:\n        /* \"#utility.yul\":8831:8951   */\n    tag_203:\n        /* \"#utility.yul\":8990:8991   */\n      0x00\n        /* \"#utility.yul\":9015:9078   */\n      tag_205\n        /* \"#utility.yul\":9070:9077   */\n      dup9\n        /* \"#utility.yul\":9061:9067   */\n      dup3\n        /* \"#utility.yul\":9050:9059   */\n      dup10\n        /* \"#utility.yul\":9046:9068   */\n      add\n        /* \"#utility.yul\":9015:9078   */\n      tag_108\n      jump\t// in\n    tag_205:\n        /* \"#utility.yul\":9005:9078   */\n      swap6\n      pop\n        /* \"#utility.yul\":8961:9088   */\n      pop\n        /* \"#utility.yul\":9127:9129   */\n      0x20\n        /* \"#utility.yul\":9153:9216   */\n      tag_206\n        /* \"#utility.yul\":9208:9215   */\n      dup9\n        /* \"#utility.yul\":9199:9205   */\n      dup3\n        /* \"#utility.yul\":9188:9197   */\n      dup10\n        /* \"#utility.yul\":9184:9206   */\n      add\n        /* \"#utility.yul\":9153:9216   */\n      tag_111\n      jump\t// in\n    tag_206:\n        /* \"#utility.yul\":9143:9216   */\n      swap5\n      pop\n        /* \"#utility.yul\":9098:9226   */\n      pop\n        /* \"#utility.yul\":9265:9267   */\n      0x40\n        /* \"#utility.yul\":9291:9355   */\n      tag_207\n        /* \"#utility.yul\":9347:9354   */\n      dup9\n        /* \"#utility.yul\":9338:9344   */\n      dup3\n        /* \"#utility.yul\":9327:9336   */\n      dup10\n        /* \"#utility.yul\":9323:9345   */\n      add\n        /* \"#utility.yul\":9291:9355   */\n      tag_113\n      jump\t// in\n    tag_207:\n        /* \"#utility.yul\":9281:9355   */\n      swap4\n      pop\n        /* \"#utility.yul\":9236:9365   */\n      pop\n        /* \"#utility.yul\":9404:9406   */\n      0x60\n        /* \"#utility.yul\":9430:9494   */\n      tag_208\n        /* \"#utility.yul\":9486:9493   */\n      dup9\n        /* \"#utility.yul\":9477:9483   */\n      dup3\n        /* \"#utility.yul\":9466:9475   */\n      dup10\n        /* \"#utility.yul\":9462:9484   */\n      add\n        /* \"#utility.yul\":9430:9494   */\n      tag_113\n      jump\t// in\n    tag_208:\n        /* \"#utility.yul\":9420:9494   */\n      swap3\n      pop\n        /* \"#utility.yul\":9375:9504   */\n      pop\n        /* \"#utility.yul\":9543:9546   */\n      0x80\n        /* \"#utility.yul\":9570:9633   */\n      tag_209\n        /* \"#utility.yul\":9625:9632   */\n      dup9\n        /* \"#utility.yul\":9616:9622   */\n      dup3\n        /* \"#utility.yul\":9605:9614   */\n      dup10\n        /* \"#utility.yul\":9601:9623   */\n      add\n        /* \"#utility.yul\":9570:9633   */\n      tag_108\n      jump\t// in\n    tag_209:\n        /* \"#utility.yul\":9560:9633   */\n      swap2\n      pop\n        /* \"#utility.yul\":9514:9643   */\n      pop\n        /* \"#utility.yul\":8679:9650   */\n      swap3\n      swap6\n      pop\n      swap3\n      swap6\n      swap1\n      swap4\n      pop\n      jump\t// out\n        /* \"#utility.yul\":9656:10212   */\n    tag_76:\n        /* \"#utility.yul\":9695:9702   */\n      0x00\n        /* \"#utility.yul\":9718:9737   */\n      tag_211\n        /* \"#utility.yul\":9735:9736   */\n      dup3\n        /* \"#utility.yul\":9718:9737   */\n      tag_109\n      jump\t// in\n    tag_211:\n        /* \"#utility.yul\":9713:9737   */\n      swap2\n      pop\n        /* \"#utility.yul\":9751:9770   */\n      tag_212\n        /* \"#utility.yul\":9768:9769   */\n      dup4\n        /* \"#utility.yul\":9751:9770   */\n      tag_109\n      jump\t// in\n    tag_212:\n        /* \"#utility.yul\":9746:9770   */\n      swap3\n      pop\n        /* \"#utility.yul\":9805:9806   */\n      dup3\n        /* \"#utility.yul\":9802:9803   */\n      dup3\n        /* \"#utility.yul\":9798:9807   */\n      mul\n        /* \"#utility.yul\":9827:9856   */\n      tag_213\n        /* \"#utility.yul\":9844:9855   */\n      dup2\n        /* \"#utility.yul\":9827:9856   */\n      tag_109\n      jump\t// in\n    tag_213:\n        /* \"#utility.yul\":9816:9856   */\n      swap2\n      pop\n        /* \"#utility.yul\":9914:9980   */\n      0x8000000000000000000000000000000000000000000000000000000000000000\n        /* \"#utility.yul\":9911:9912   */\n      dup5\n        /* \"#utility.yul\":9908:9981   */\n      eq\n        /* \"#utility.yul\":9904:9905   */\n      0x00\n        /* \"#utility.yul\":9901:9902   */\n      dup5\n        /* \"#utility.yul\":9897:9906   */\n      slt\n        /* \"#utility.yul\":9893:9982   */\n      and\n        /* \"#utility.yul\":9890:10005   */\n      iszero\n      tag_214\n      jumpi\n        /* \"#utility.yul\":9985:10003   */\n      tag_215\n      tag_104\n      jump\t// in\n    tag_215:\n        /* \"#utility.yul\":9890:10005   */\n    tag_214:\n        /* \"#utility.yul\":10155:10156   */\n      dup3\n        /* \"#utility.yul\":10146:10153   */\n      dup3\n        /* \"#utility.yul\":10141:10157   */\n      sdiv\n        /* \"#utility.yul\":10138:10139   */\n      dup5\n        /* \"#utility.yul\":10135:10158   */\n      eq\n        /* \"#utility.yul\":10115:10116   */\n      dup4\n        /* \"#utility.yul\":10108:10117   */\n      iszero\n        /* \"#utility.yul\":10088:10172   */\n      or\n        /* \"#utility.yul\":10065:10205   */\n      tag_216\n      jumpi\n        /* \"#utility.yul\":10185:10203   */\n      tag_217\n      tag_104\n      jump\t// in\n    tag_217:\n        /* \"#utility.yul\":10065:10205   */\n    tag_216:\n        /* \"#utility.yul\":9703:10212   */\n      pop\n        /* \"#utility.yul\":9656:10212   */\n      swap3\n      swap2\n      pop\n      pop\n      jump\t// out\n\n    auxdata: 0xa2646970667358221220b334eba7866300f968e66fc94bb5f3c64b6c837d4b9f7ee694358fda774022dc64736f6c63430008160033\n}\n",
				"bytecode": {
					"linkReferences": {},
					"object": "60a060405234801561000f575f80fd5b503373ffffffffffffffffffffffffffffffffffffffff1660808173ffffffffffffffffffffffffffffffffffffffff1681525050608051610bbf6100635f395f818161010b015261049c0152610bbf5ff3fe608060405260043610610049575f3560e01c8063213dbea21461004d5780633ccfd60b14610077578063b60d42881461008d578063cb78e6e114610097578063dba6335f146100d3575b5f80fd5b348015610058575f80fd5b506100616100fd565b60405161006e9190610655565b60405180910390f35b348015610082575f80fd5b5061008b610109565b005b61009561033d565b005b3480156100a2575f80fd5b506100bd60048036038101906100b891906106cc565b610485565b6040516100ca9190610655565b60405180910390f35b3480156100de575f80fd5b506100e761049a565b6040516100f49190610706565b60405180910390f35b674563918244f4000081565b7f000000000000000000000000000000000000000000000000000000000000000073ffffffffffffffffffffffffffffffffffffffff163373ffffffffffffffffffffffffffffffffffffffff1614610197576040517f08c379a000000000000000000000000000000000000000000000000000000000815260040161018e90610779565b60405180910390fd5b5f5b5f80549050811015610233575f8082815481106101b9576101b8610797565b5b905f5260205f20015f9054906101000a900473ffffffffffffffffffffffffffffffffffffffff1690505f60015f8373ffffffffffffffffffffffffffffffffffffffff1673ffffffffffffffffffffffffffffffffffffffff1681526020019081526020015f2081905550508080600101915050610199565b505f67ffffffffffffffff81111561024e5761024d6107c4565b5b60405190808252806020026020018201604052801561027c5781602001602082028036833780820191505090505b505f908051906020019061029192919061059b565b505f3373ffffffffffffffffffffffffffffffffffffffff16476040516102b79061081e565b5f6040518083038185875af1925050503d805f81146102f1576040519150601f19603f3d011682016040523d82523d5f602084013e6102f6565b606091505b505090508061033a576040517f08c379a00000000000000000000000000000000000000000000000000000000081526004016103319061087c565b60405180910390fd5b50565b5f349050674563918244f40000610353346104be565b1015610394576040517f08c379a000000000000000000000000000000000000000000000000000000000815260040161038b906108e4565b60405180910390fd5b5f3390505f81908060018154018082558091505060019003905f5260205f20015f9091909190916101000a81548173ffffffffffffffffffffffffffffffffffffffff021916908373ffffffffffffffffffffffffffffffffffffffff1602179055508160015f8373ffffffffffffffffffffffffffffffffffffffff1673ffffffffffffffffffffffffffffffffffffffff1681526020019081526020015f2054610440919061092f565b60015f8373ffffffffffffffffffffffffffffffffffffffff1673ffffffffffffffffffffffffffffffffffffffff1681526020019081526020015f20819055505050565b6001602052805f5260405f205f915090505481565b7f000000000000000000000000000000000000000000000000000000000000000081565b5f806104c86104f6565b90505f670de0b6b3a764000082856104e09190610962565b6104ea91906109d0565b90508092505050919050565b5f8073694aa1769357215de4fac081bf1f309adc32530690505f8173ffffffffffffffffffffffffffffffffffffffff1663feaf968c6040518163ffffffff1660e01b815260040160a060405180830381865afa158015610559573d5f803e3d5ffd5b505050506040513d601f19601f8201168201806040525081019061057d9190610a9c565b5050509150506402540be400816105949190610b13565b9250505090565b828054828255905f5260205f20908101928215610611579160200282015b82811115610610578251825f6101000a81548173ffffffffffffffffffffffffffffffffffffffff021916908373ffffffffffffffffffffffffffffffffffffffff160217905550916020019190600101906105b9565b5b50905061061e9190610622565b5090565b5b80821115610639575f815f905550600101610623565b5090565b5f819050919050565b61064f8161063d565b82525050565b5f6020820190506106685f830184610646565b92915050565b5f80fd5b5f73ffffffffffffffffffffffffffffffffffffffff82169050919050565b5f61069b82610672565b9050919050565b6106ab81610691565b81146106b5575f80fd5b50565b5f813590506106c6816106a2565b92915050565b5f602082840312156106e1576106e061066e565b5b5f6106ee848285016106b8565b91505092915050565b61070081610691565b82525050565b5f6020820190506107195f8301846106f7565b92915050565b5f82825260208201905092915050565b7f53656e646572206973206e6f74206f776e6572000000000000000000000000005f82015250565b5f61076360138361071f565b915061076e8261072f565b602082019050919050565b5f6020820190508181035f83015261079081610757565b9050919050565b7f4e487b71000000000000000000000000000000000000000000000000000000005f52603260045260245ffd5b7f4e487b71000000000000000000000000000000000000000000000000000000005f52604160045260245ffd5b5f81905092915050565b50565b5f6108095f836107f1565b9150610814826107fb565b5f82019050919050565b5f610828826107fe565b9150819050919050565b7f43616c6c206661696c65640000000000000000000000000000000000000000005f82015250565b5f610866600b8361071f565b915061087182610832565b602082019050919050565b5f6020820190508181035f8301526108938161085a565b9050919050565b7f596f75206469646e27742073656e6420616e6f756768204554480000000000005f82015250565b5f6108ce601a8361071f565b91506108d98261089a565b602082019050919050565b5f6020820190508181035f8301526108fb816108c2565b9050919050565b7f4e487b71000000000000000000000000000000000000000000000000000000005f52601160045260245ffd5b5f6109398261063d565b91506109448361063d565b925082820190508082111561095c5761095b610902565b5b92915050565b5f61096c8261063d565b91506109778361063d565b92508282026109858161063d565b9150828204841483151761099c5761099b610902565b5b5092915050565b7f4e487b71000000000000000000000000000000000000000000000000000000005f52601260045260245ffd5b5f6109da8261063d565b91506109e58361063d565b9250826109f5576109f46109a3565b5b828204905092915050565b5f69ffffffffffffffffffff82169050919050565b610a1e81610a00565b8114610a28575f80fd5b50565b5f81519050610a3981610a15565b92915050565b5f819050919050565b610a5181610a3f565b8114610a5b575f80fd5b50565b5f81519050610a6c81610a48565b92915050565b610a7b8161063d565b8114610a85575f80fd5b50565b5f81519050610a9681610a72565b92915050565b5f805f805f60a08688031215610ab557610ab461066e565b5b5f610ac288828901610a2b565b9550506020610ad388828901610a5e565b9450506040610ae488828901610a88565b9350506060610af588828901610a88565b9250506080610b0688828901610a2b565b9150509295509295909350565b5f610b1d82610a3f565b9150610b2883610a3f565b9250828202610b3681610a3f565b91507f800000000000000000000000000000000000000000000000000000000000000084145f84121615610b6d57610b6c610902565b5b8282058414831517610b8257610b81610902565b5b509291505056fea2646970667358221220b334eba7866300f968e66fc94bb5f3c64b6c837d4b9f7ee694358fda774022dc64736f6c63430008160033",
					"opcodes": "PUSH1 0xA0 PUSH1 0x40 MSTORE CALLVALUE DUP1 ISZERO PUSH2 0xF JUMPI PUSH0 DUP1 REVERT JUMPDEST POP CALLER PUSH20 0xFFFFFFFFFFFFFFFFFFFFFFFFFFFFFFFFFFFFFFFF AND PUSH1 0x80 DUP2 PUSH20 0xFFFFFFFFFFFFFFFFFFFFFFFFFFFFFFFFFFFFFFFF AND DUP2 MSTORE POP POP PUSH1 0x80 MLOAD PUSH2 0xBBF PUSH2 0x63 PUSH0 CODECOPY PUSH0 DUP2 DUP2 PUSH2 0x10B ADD MSTORE PUSH2 0x49C ADD MSTORE PUSH2 0xBBF PUSH0 RETURN INVALID PUSH1 0x80 PUSH1 0x40 MSTORE PUSH1 0x4 CALLDATASIZE LT PUSH2 0x49 JUMPI PUSH0 CALLDATALOAD PUSH1 0xE0 SHR DUP1 PUSH4 0x213DBEA2 EQ PUSH2 0x4D JUMPI DUP1 PUSH4 0x3CCFD60B EQ PUSH2 0x77 JUMPI DUP1 PUSH4 0xB60D4288 EQ PUSH2 0x8D JUMPI DUP1 PUSH4 0xCB78E6E1 EQ PUSH2 0x97 JUMPI DUP1 PUSH4 0xDBA6335F EQ PUSH2 0xD3 JUMPI JUMPDEST PUSH0 DUP1 REVERT JUMPDEST CALLVALUE DUP1 ISZERO PUSH2 0x58 JUMPI PUSH0 DUP1 REVERT JUMPDEST POP PUSH2 0x61 PUSH2 0xFD JUMP JUMPDEST PUSH1 0x40 MLOAD PUSH2 0x6E SWAP2 SWAP1 PUSH2 0x655 JUMP JUMPDEST PUSH1 0x40 MLOAD DUP1 SWAP2 SUB SWAP1 RETURN JUMPDEST CALLVALUE DUP1 ISZERO PUSH2 0x82 JUMPI PUSH0 DUP1 REVERT JUMPDEST POP PUSH2 0x8B PUSH2 0x109 JUMP JUMPDEST STOP JUMPDEST PUSH2 0x95 PUSH2 0x33D JUMP JUMPDEST STOP JUMPDEST CALLVALUE DUP1 ISZERO PUSH2 0xA2 JUMPI PUSH0 DUP1 REVERT JUMPDEST POP PUSH2 0xBD PUSH1 0x4 DUP1 CALLDATASIZE SUB DUP2 ADD SWAP1 PUSH2 0xB8 SWAP2 SWAP1 PUSH2 0x6CC JUMP JUMPDEST PUSH2 0x485 JUMP JUMPDEST PUSH1 0x40 MLOAD PUSH2 0xCA SWAP2 SWAP1 PUSH2 0x655 JUMP JUMPDEST PUSH1 0x40 MLOAD DUP1 SWAP2 SUB SWAP1 RETURN JUMPDEST CALLVALUE DUP1 ISZERO PUSH2 0xDE JUMPI PUSH0 DUP1 REVERT JUMPDEST POP PUSH2 0xE7 PUSH2 0x49A JUMP JUMPDEST PUSH1 0x40 MLOAD PUSH2 0xF4 SWAP2 SWAP1 PUSH2 0x706 JUMP JUMPDEST PUSH1 0x40 MLOAD DUP1 SWAP2 SUB SWAP1 RETURN JUMPDEST PUSH8 0x4563918244F40000 DUP2 JUMP JUMPDEST PUSH32 0x0 PUSH20 0xFFFFFFFFFFFFFFFFFFFFFFFFFFFFFFFFFFFFFFFF AND CALLER PUSH20 0xFFFFFFFFFFFFFFFFFFFFFFFFFFFFFFFFFFFFFFFF AND EQ PUSH2 0x197 JUMPI PUSH1 0x40 MLOAD PUSH32 0x8C379A000000000000000000000000000000000000000000000000000000000 DUP2 MSTORE PUSH1 0x4 ADD PUSH2 0x18E SWAP1 PUSH2 0x779 JUMP JUMPDEST PUSH1 0x40 MLOAD DUP1 SWAP2 SUB SWAP1 REVERT JUMPDEST PUSH0 JUMPDEST PUSH0 DUP1 SLOAD SWAP1 POP DUP2 LT ISZERO PUSH2 0x233 JUMPI PUSH0 DUP1 DUP3 DUP2 SLOAD DUP2 LT PUSH2 0x1B9 JUMPI PUSH2 0x1B8 PUSH2 0x797 JUMP JUMPDEST JUMPDEST SWAP1 PUSH0 MSTORE PUSH1 0x20 PUSH0 KECCAK256 ADD PUSH0 SWAP1 SLOAD SWAP1 PUSH2 0x100 EXP SWAP1 DIV PUSH20 0xFFFFFFFFFFFFFFFFFFFFFFFFFFFFFFFFFFFFFFFF AND SWAP1 POP PUSH0 PUSH1 0x1 PUSH0 DUP4 PUSH20 0xFFFFFFFFFFFFFFFFFFFFFFFFFFFFFFFFFFFFFFFF AND PUSH20 0xFFFFFFFFFFFFFFFFFFFFFFFFFFFFFFFFFFFFFFFF AND DUP2 MSTORE PUSH1 0x20 ADD SWAP1 DUP2 MSTORE PUSH1 0x20 ADD PUSH0 KECCAK256 DUP2 SWAP1 SSTORE POP POP DUP1 DUP1 PUSH1 0x1 ADD SWAP2 POP POP PUSH2 0x199 JUMP JUMPDEST POP PUSH0 PUSH8 0xFFFFFFFFFFFFFFFF DUP2 GT ISZERO PUSH2 0x24E JUMPI PUSH2 0x24D PUSH2 0x7C4 JUMP JUMPDEST JUMPDEST PUSH1 0x40 MLOAD SWAP1 DUP1 DUP3 MSTORE DUP1 PUSH1 0x20 MUL PUSH1 0x20 ADD DUP3 ADD PUSH1 0x40 MSTORE DUP1 ISZERO PUSH2 0x27C JUMPI DUP2 PUSH1 0x20 ADD PUSH1 0x20 DUP3 MUL DUP1 CALLDATASIZE DUP4 CALLDATACOPY DUP1 DUP3 ADD SWAP2 POP POP SWAP1 POP JUMPDEST POP PUSH0 SWAP1 DUP1 MLOAD SWAP1 PUSH1 0x20 ADD SWAP1 PUSH2 0x291 SWAP3 SWAP2 SWAP1 PUSH2 0x59B JUMP JUMPDEST POP PUSH0 CALLER PUSH20 0xFFFFFFFFFFFFFFFFFFFFFFFFFFFFFFFFFFFFFFFF AND SELFBALANCE PUSH1 0x40 MLOAD PUSH2 0x2B7 SWAP1 PUSH2 0x81E JUMP JUMPDEST PUSH0 PUSH1 0x40 MLOAD DUP1 DUP4 SUB DUP2 DUP6 DUP8 GAS CALL SWAP3 POP POP POP RETURNDATASIZE DUP1 PUSH0 DUP2 EQ PUSH2 0x2F1 JUMPI PUSH1 0x40 MLOAD SWAP2 POP PUSH1 0x1F NOT PUSH1 0x3F RETURNDATASIZE ADD AND DUP3 ADD PUSH1 0x40 MSTORE RETURNDATASIZE DUP3 MSTORE RETURNDATASIZE PUSH0 PUSH1 0x20 DUP5 ADD RETURNDATACOPY PUSH2 0x2F6 JUMP JUMPDEST PUSH1 0x60 SWAP2 POP JUMPDEST POP POP SWAP1 POP DUP1 PUSH2 0x33A JUMPI PUSH1 0x40 MLOAD PUSH32 0x8C379A000000000000000000000000000000000000000000000000000000000 DUP2 MSTORE PUSH1 0x4 ADD PUSH2 0x331 SWAP1 PUSH2 0x87C JUMP JUMPDEST PUSH1 0x40 MLOAD DUP1 SWAP2 SUB SWAP1 REVERT JUMPDEST POP JUMP JUMPDEST PUSH0 CALLVALUE SWAP1 POP PUSH8 0x4563918244F40000 PUSH2 0x353 CALLVALUE PUSH2 0x4BE JUMP JUMPDEST LT ISZERO PUSH2 0x394 JUMPI PUSH1 0x40 MLOAD PUSH32 0x8C379A000000000000000000000000000000000000000000000000000000000 DUP2 MSTORE PUSH1 0x4 ADD PUSH2 0x38B SWAP1 PUSH2 0x8E4 JUMP JUMPDEST PUSH1 0x40 MLOAD DUP1 SWAP2 SUB SWAP1 REVERT JUMPDEST PUSH0 CALLER SWAP1 POP PUSH0 DUP2 SWAP1 DUP1 PUSH1 0x1 DUP2 SLOAD ADD DUP1 DUP3 SSTORE DUP1 SWAP2 POP POP PUSH1 0x1 SWAP1 SUB SWAP1 PUSH0 MSTORE PUSH1 0x20 PUSH0 KECCAK256 ADD PUSH0 SWAP1 SWAP2 SWAP1 SWAP2 SWAP1 SWAP2 PUSH2 0x100 EXP DUP2 SLOAD DUP2 PUSH20 0xFFFFFFFFFFFFFFFFFFFFFFFFFFFFFFFFFFFFFFFF MUL NOT AND SWAP1 DUP4 PUSH20 0xFFFFFFFFFFFFFFFFFFFFFFFFFFFFFFFFFFFFFFFF AND MUL OR SWAP1 SSTORE POP DUP2 PUSH1 0x1 PUSH0 DUP4 PUSH20 0xFFFFFFFFFFFFFFFFFFFFFFFFFFFFFFFFFFFFFFFF AND PUSH20 0xFFFFFFFFFFFFFFFFFFFFFFFFFFFFFFFFFFFFFFFF AND DUP2 MSTORE PUSH1 0x20 ADD SWAP1 DUP2 MSTORE PUSH1 0x20 ADD PUSH0 KECCAK256 SLOAD PUSH2 0x440 SWAP2 SWAP1 PUSH2 0x92F JUMP JUMPDEST PUSH1 0x1 PUSH0 DUP4 PUSH20 0xFFFFFFFFFFFFFFFFFFFFFFFFFFFFFFFFFFFFFFFF AND PUSH20 0xFFFFFFFFFFFFFFFFFFFFFFFFFFFFFFFFFFFFFFFF AND DUP2 MSTORE PUSH1 0x20 ADD SWAP1 DUP2 MSTORE PUSH1 0x20 ADD PUSH0 KECCAK256 DUP2 SWAP1 SSTORE POP POP POP JUMP JUMPDEST PUSH1 0x1 PUSH1 0x20 MSTORE DUP1 PUSH0 MSTORE PUSH1 0x40 PUSH0 KECCAK256 PUSH0 SWAP2 POP SWAP1 POP SLOAD DUP2 JUMP JUMPDEST PUSH32 0x0 DUP2 JUMP JUMPDEST PUSH0 DUP1 PUSH2 0x4C8 PUSH2 0x4F6 JUMP JUMPDEST SWAP1 POP PUSH0 PUSH8 0xDE0B6B3A7640000 DUP3 DUP6 PUSH2 0x4E0 SWAP2 SWAP1 PUSH2 0x962 JUMP JUMPDEST PUSH2 0x4EA SWAP2 SWAP1 PUSH2 0x9D0 JUMP JUMPDEST SWAP1 POP DUP1 SWAP3 POP POP POP SWAP2 SWAP1 POP JUMP JUMPDEST PUSH0 DUP1 PUSH20 0x694AA1769357215DE4FAC081BF1F309ADC325306 SWAP1 POP PUSH0 DUP2 PUSH20 0xFFFFFFFFFFFFFFFFFFFFFFFFFFFFFFFFFFFFFFFF AND PUSH4 0xFEAF968C PUSH1 0x40 MLOAD DUP2 PUSH4 0xFFFFFFFF AND PUSH1 0xE0 SHL DUP2 MSTORE PUSH1 0x4 ADD PUSH1 0xA0 PUSH1 0x40 MLOAD DUP1 DUP4 SUB DUP2 DUP7 GAS STATICCALL ISZERO DUP1 ISZERO PUSH2 0x559 JUMPI RETURNDATASIZE PUSH0 DUP1 RETURNDATACOPY RETURNDATASIZE PUSH0 REVERT JUMPDEST POP POP POP POP PUSH1 0x40 MLOAD RETURNDATASIZE PUSH1 0x1F NOT PUSH1 0x1F DUP3 ADD AND DUP3 ADD DUP1 PUSH1 0x40 MSTORE POP DUP2 ADD SWAP1 PUSH2 0x57D SWAP2 SWAP1 PUSH2 0xA9C JUMP JUMPDEST POP POP POP SWAP2 POP POP PUSH5 0x2540BE400 DUP2 PUSH2 0x594 SWAP2 SWAP1 PUSH2 0xB13 JUMP JUMPDEST SWAP3 POP POP POP SWAP1 JUMP JUMPDEST DUP3 DUP1 SLOAD DUP3 DUP3 SSTORE SWAP1 PUSH0 MSTORE PUSH1 0x20 PUSH0 KECCAK256 SWAP1 DUP2 ADD SWAP3 DUP3 ISZERO PUSH2 0x611 JUMPI SWAP2 PUSH1 0x20 MUL DUP3 ADD JUMPDEST DUP3 DUP2 GT ISZERO PUSH2 0x610 JUMPI DUP3 MLOAD DUP3 PUSH0 PUSH2 0x100 EXP DUP2 SLOAD DUP2 PUSH20 0xFFFFFFFFFFFFFFFFFFFFFFFFFFFFFFFFFFFFFFFF MUL NOT AND SWAP1 DUP4 PUSH20 0xFFFFFFFFFFFFFFFFFFFFFFFFFFFFFFFFFFFFFFFF AND MUL OR SWAP1 SSTORE POP SWAP2 PUSH1 0x20 ADD SWAP2 SWAP1 PUSH1 0x1 ADD SWAP1 PUSH2 0x5B9 JUMP JUMPDEST JUMPDEST POP SWAP1 POP PUSH2 0x61E SWAP2 SWAP1 PUSH2 0x622 JUMP JUMPDEST POP SWAP1 JUMP JUMPDEST JUMPDEST DUP1 DUP3 GT ISZERO PUSH2 0x639 JUMPI PUSH0 DUP2 PUSH0 SWAP1 SSTORE POP PUSH1 0x1 ADD PUSH2 0x623 JUMP JUMPDEST POP SWAP1 JUMP JUMPDEST PUSH0 DUP2 SWAP1 POP SWAP2 SWAP1 POP JUMP JUMPDEST PUSH2 0x64F DUP2 PUSH2 0x63D JUMP JUMPDEST DUP3 MSTORE POP POP JUMP JUMPDEST PUSH0 PUSH1 0x20 DUP3 ADD SWAP1 POP PUSH2 0x668 PUSH0 DUP4 ADD DUP5 PUSH2 0x646 JUMP JUMPDEST SWAP3 SWAP2 POP POP JUMP JUMPDEST PUSH0 DUP1 REVERT JUMPDEST PUSH0 PUSH20 0xFFFFFFFFFFFFFFFFFFFFFFFFFFFFFFFFFFFFFFFF DUP3 AND SWAP1 POP SWAP2 SWAP1 POP JUMP JUMPDEST PUSH0 PUSH2 0x69B DUP3 PUSH2 0x672 JUMP JUMPDEST SWAP1 POP SWAP2 SWAP1 POP JUMP JUMPDEST PUSH2 0x6AB DUP2 PUSH2 0x691 JUMP JUMPDEST DUP2 EQ PUSH2 0x6B5 JUMPI PUSH0 DUP1 REVERT JUMPDEST POP JUMP JUMPDEST PUSH0 DUP2 CALLDATALOAD SWAP1 POP PUSH2 0x6C6 DUP2 PUSH2 0x6A2 JUMP JUMPDEST SWAP3 SWAP2 POP POP JUMP JUMPDEST PUSH0 PUSH1 0x20 DUP3 DUP5 SUB SLT ISZERO PUSH2 0x6E1 JUMPI PUSH2 0x6E0 PUSH2 0x66E JUMP JUMPDEST JUMPDEST PUSH0 PUSH2 0x6EE DUP5 DUP3 DUP6 ADD PUSH2 0x6B8 JUMP JUMPDEST SWAP2 POP POP SWAP3 SWAP2 POP POP JUMP JUMPDEST PUSH2 0x700 DUP2 PUSH2 0x691 JUMP JUMPDEST DUP3 MSTORE POP POP JUMP JUMPDEST PUSH0 PUSH1 0x20 DUP3 ADD SWAP1 POP PUSH2 0x719 PUSH0 DUP4 ADD DUP5 PUSH2 0x6F7 JUMP JUMPDEST SWAP3 SWAP2 POP POP JUMP JUMPDEST PUSH0 DUP3 DUP3 MSTORE PUSH1 0x20 DUP3 ADD SWAP1 POP SWAP3 SWAP2 POP POP JUMP JUMPDEST PUSH32 0x53656E646572206973206E6F74206F776E657200000000000000000000000000 PUSH0 DUP3 ADD MSTORE POP JUMP JUMPDEST PUSH0 PUSH2 0x763 PUSH1 0x13 DUP4 PUSH2 0x71F JUMP JUMPDEST SWAP2 POP PUSH2 0x76E DUP3 PUSH2 0x72F JUMP JUMPDEST PUSH1 0x20 DUP3 ADD SWAP1 POP SWAP2 SWAP1 POP JUMP JUMPDEST PUSH0 PUSH1 0x20 DUP3 ADD SWAP1 POP DUP2 DUP2 SUB PUSH0 DUP4 ADD MSTORE PUSH2 0x790 DUP2 PUSH2 0x757 JUMP JUMPDEST SWAP1 POP SWAP2 SWAP1 POP JUMP JUMPDEST PUSH32 0x4E487B7100000000000000000000000000000000000000000000000000000000 PUSH0 MSTORE PUSH1 0x32 PUSH1 0x4 MSTORE PUSH1 0x24 PUSH0 REVERT JUMPDEST PUSH32 0x4E487B7100000000000000000000000000000000000000000000000000000000 PUSH0 MSTORE PUSH1 0x41 PUSH1 0x4 MSTORE PUSH1 0x24 PUSH0 REVERT JUMPDEST PUSH0 DUP2 SWAP1 POP SWAP3 SWAP2 POP POP JUMP JUMPDEST POP JUMP JUMPDEST PUSH0 PUSH2 0x809 PUSH0 DUP4 PUSH2 0x7F1 JUMP JUMPDEST SWAP2 POP PUSH2 0x814 DUP3 PUSH2 0x7FB JUMP JUMPDEST PUSH0 DUP3 ADD SWAP1 POP SWAP2 SWAP1 POP JUMP JUMPDEST PUSH0 PUSH2 0x828 DUP3 PUSH2 0x7FE JUMP JUMPDEST SWAP2 POP DUP2 SWAP1 POP SWAP2 SWAP1 POP JUMP JUMPDEST PUSH32 0x43616C6C206661696C6564000000000000000000000000000000000000000000 PUSH0 DUP3 ADD MSTORE POP JUMP JUMPDEST PUSH0 PUSH2 0x866 PUSH1 0xB DUP4 PUSH2 0x71F JUMP JUMPDEST SWAP2 POP PUSH2 0x871 DUP3 PUSH2 0x832 JUMP JUMPDEST PUSH1 0x20 DUP3 ADD SWAP1 POP SWAP2 SWAP1 POP JUMP JUMPDEST PUSH0 PUSH1 0x20 DUP3 ADD SWAP1 POP DUP2 DUP2 SUB PUSH0 DUP4 ADD MSTORE PUSH2 0x893 DUP2 PUSH2 0x85A JUMP JUMPDEST SWAP1 POP SWAP2 SWAP1 POP JUMP JUMPDEST PUSH32 0x596F75206469646E27742073656E6420616E6F75676820455448000000000000 PUSH0 DUP3 ADD MSTORE POP JUMP JUMPDEST PUSH0 PUSH2 0x8CE PUSH1 0x1A DUP4 PUSH2 0x71F JUMP JUMPDEST SWAP2 POP PUSH2 0x8D9 DUP3 PUSH2 0x89A JUMP JUMPDEST PUSH1 0x20 DUP3 ADD SWAP1 POP SWAP2 SWAP1 POP JUMP JUMPDEST PUSH0 PUSH1 0x20 DUP3 ADD SWAP1 POP DUP2 DUP2 SUB PUSH0 DUP4 ADD MSTORE PUSH2 0x8FB DUP2 PUSH2 0x8C2 JUMP JUMPDEST SWAP1 POP SWAP2 SWAP1 POP JUMP JUMPDEST PUSH32 0x4E487B7100000000000000000000000000000000000000000000000000000000 PUSH0 MSTORE PUSH1 0x11 PUSH1 0x4 MSTORE PUSH1 0x24 PUSH0 REVERT JUMPDEST PUSH0 PUSH2 0x939 DUP3 PUSH2 0x63D JUMP JUMPDEST SWAP2 POP PUSH2 0x944 DUP4 PUSH2 0x63D JUMP JUMPDEST SWAP3 POP DUP3 DUP3 ADD SWAP1 POP DUP1 DUP3 GT ISZERO PUSH2 0x95C JUMPI PUSH2 0x95B PUSH2 0x902 JUMP JUMPDEST JUMPDEST SWAP3 SWAP2 POP POP JUMP JUMPDEST PUSH0 PUSH2 0x96C DUP3 PUSH2 0x63D JUMP JUMPDEST SWAP2 POP PUSH2 0x977 DUP4 PUSH2 0x63D JUMP JUMPDEST SWAP3 POP DUP3 DUP3 MUL PUSH2 0x985 DUP2 PUSH2 0x63D JUMP JUMPDEST SWAP2 POP DUP3 DUP3 DIV DUP5 EQ DUP4 ISZERO OR PUSH2 0x99C JUMPI PUSH2 0x99B PUSH2 0x902 JUMP JUMPDEST JUMPDEST POP SWAP3 SWAP2 POP POP JUMP JUMPDEST PUSH32 0x4E487B7100000000000000000000000000000000000000000000000000000000 PUSH0 MSTORE PUSH1 0x12 PUSH1 0x4 MSTORE PUSH1 0x24 PUSH0 REVERT JUMPDEST PUSH0 PUSH2 0x9DA DUP3 PUSH2 0x63D JUMP JUMPDEST SWAP2 POP PUSH2 0x9E5 DUP4 PUSH2 0x63D JUMP JUMPDEST SWAP3 POP DUP3 PUSH2 0x9F5 JUMPI PUSH2 0x9F4 PUSH2 0x9A3 JUMP JUMPDEST JUMPDEST DUP3 DUP3 DIV SWAP1 POP SWAP3 SWAP2 POP POP JUMP JUMPDEST PUSH0 PUSH10 0xFFFFFFFFFFFFFFFFFFFF DUP3 AND SWAP1 POP SWAP2 SWAP1 POP JUMP JUMPDEST PUSH2 0xA1E DUP2 PUSH2 0xA00 JUMP JUMPDEST DUP2 EQ PUSH2 0xA28 JUMPI PUSH0 DUP1 REVERT JUMPDEST POP JUMP JUMPDEST PUSH0 DUP2 MLOAD SWAP1 POP PUSH2 0xA39 DUP2 PUSH2 0xA15 JUMP JUMPDEST SWAP3 SWAP2 POP POP JUMP JUMPDEST PUSH0 DUP2 SWAP1 POP SWAP2 SWAP1 POP JUMP JUMPDEST PUSH2 0xA51 DUP2 PUSH2 0xA3F JUMP JUMPDEST DUP2 EQ PUSH2 0xA5B JUMPI PUSH0 DUP1 REVERT JUMPDEST POP JUMP JUMPDEST PUSH0 DUP2 MLOAD SWAP1 POP PUSH2 0xA6C DUP2 PUSH2 0xA48 JUMP JUMPDEST SWAP3 SWAP2 POP POP JUMP JUMPDEST PUSH2 0xA7B DUP2 PUSH2 0x63D JUMP JUMPDEST DUP2 EQ PUSH2 0xA85 JUMPI PUSH0 DUP1 REVERT JUMPDEST POP JUMP JUMPDEST PUSH0 DUP2 MLOAD SWAP1 POP PUSH2 0xA96 DUP2 PUSH2 0xA72 JUMP JUMPDEST SWAP3 SWAP2 POP POP JUMP JUMPDEST PUSH0 DUP1 PUSH0 DUP1 PUSH0 PUSH1 0xA0 DUP7 DUP9 SUB SLT ISZERO PUSH2 0xAB5 JUMPI PUSH2 0xAB4 PUSH2 0x66E JUMP JUMPDEST JUMPDEST PUSH0 PUSH2 0xAC2 DUP9 DUP3 DUP10 ADD PUSH2 0xA2B JUMP JUMPDEST SWAP6 POP POP PUSH1 0x20 PUSH2 0xAD3 DUP9 DUP3 DUP10 ADD PUSH2 0xA5E JUMP JUMPDEST SWAP5 POP POP PUSH1 0x40 PUSH2 0xAE4 DUP9 DUP3 DUP10 ADD PUSH2 0xA88 JUMP JUMPDEST SWAP4 POP POP PUSH1 0x60 PUSH2 0xAF5 DUP9 DUP3 DUP10 ADD PUSH2 0xA88 JUMP JUMPDEST SWAP3 POP POP PUSH1 0x80 PUSH2 0xB06 DUP9 DUP3 DUP10 ADD PUSH2 0xA2B JUMP JUMPDEST SWAP2 POP POP SWAP3 SWAP6 POP SWAP3 SWAP6 SWAP1 SWAP4 POP JUMP JUMPDEST PUSH0 PUSH2 0xB1D DUP3 PUSH2 0xA3F JUMP JUMPDEST SWAP2 POP PUSH2 0xB28 DUP4 PUSH2 0xA3F JUMP JUMPDEST SWAP3 POP DUP3 DUP3 MUL PUSH2 0xB36 DUP2 PUSH2 0xA3F JUMP JUMPDEST SWAP2 POP PUSH32 0x8000000000000000000000000000000000000000000000000000000000000000 DUP5 EQ PUSH0 DUP5 SLT AND ISZERO PUSH2 0xB6D JUMPI PUSH2 0xB6C PUSH2 0x902 JUMP JUMPDEST JUMPDEST DUP3 DUP3 SDIV DUP5 EQ DUP4 ISZERO OR PUSH2 0xB82 JUMPI PUSH2 0xB81 PUSH2 0x902 JUMP JUMPDEST JUMPDEST POP SWAP3 SWAP2 POP POP JUMP INVALID LOG2 PUSH5 0x6970667358 0x22 SLT KECCAK256 0xB3 CALLVALUE 0xEB 0xA7 DUP7 PUSH4 0xF968E6 PUSH16 0xC94BB5F3C64B6C837D4B9F7EE694358F 0xDA PUSH24 0x4022DC64736F6C6343000816003300000000000000000000 "
				},
				"gasEstimates": {
					"creation": {
						"codeDepositCost": "601400",
						"executionCost": "infinite",
						"totalCost": "infinite"
					},
					"external": {
						"MIN_USD()": "303",
						"addressToAmoutFunded(address)": "2846",
						"fund()": "infinite",
						"i_owner()": "infinite",
						"withdraw()": "infinite"
					}
				},
				"methodIdentifiers": {
					"MIN_USD()": "213dbea2",
					"addressToAmoutFunded(address)": "cb78e6e1",
					"fund()": "b60d4288",
					"i_owner()": "dba6335f",
					"withdraw()": "3ccfd60b"
				}
			},
			"storageLayout": {
				"storage": [
					{
						"astId": 58,
						"contract": "FundMe.sol:FundMe",
						"label": "funders",
						"offset": 0,
						"slot": "0",
						"type": "t_array(t_address)dyn_storage"
					},
					{
						"astId": 62,
						"contract": "FundMe.sol:FundMe",
						"label": "addressToAmoutFunded",
						"offset": 0,
						"slot": "1",
						"type": "t_mapping(t_address,t_uint256)"
					}
				],
				"types": {
					"t_address": {
						"encoding": "inplace",
						"label": "address",
						"numberOfBytes": "20"
					},
					"t_array(t_address)dyn_storage": {
						"base": "t_address",
						"encoding": "dynamic_array",
						"label": "address[]",
						"numberOfBytes": "32"
					},
					"t_mapping(t_address,t_uint256)": {
						"encoding": "mapping",
						"key": "t_address",
						"label": "mapping(address => uint256)",
						"numberOfBytes": "32",
						"value": "t_uint256"
					},
					"t_uint256": {
						"encoding": "inplace",
						"label": "uint256",
						"numberOfBytes": "32"
					}
				}
			},
			"userdoc": {
				"kind": "user",
				"methods": {},
				"version": 1
			}
		}
	}
}