{
	"FundMe.sol": {
		"FundMe": {
			"abi": [
				{
					"inputs": [],
					"stateMutability": "nonpayable",
					"type": "constructor"
				},
				{
					"inputs": [],
					"name": "NotOwner",
					"type": "error"
				},
				{
					"stateMutability": "payable",
					"type": "fallback"
				},
				{
					"inputs": [],
					"name": "MIN_USD",
					"outputs": [
						{
							"internalType": "uint256",
							"name": "",
							"type": "uint256"
						}
					],
					"stateMutability": "view",
					"type": "function"
				},
				{
					"inputs": [
						{
							"internalType": "address",
							"name": "funder",
							"type": "address"
						}
					],
					"name": "addressToAmoutFunded",
					"outputs": [
						{
							"internalType": "uint256",
							"name": "amountFunded",
							"type": "uint256"
						}
					],
					"stateMutability": "view",
					"type": "function"
				},
				{
					"inputs": [],
					"name": "fund",
					"outputs": [],
					"stateMutability": "payable",
					"type": "function"
				},
				{
					"inputs": [],
					"name": "i_owner",
					"outputs": [
						{
							"internalType": "address",
							"name": "",
							"type": "address"
						}
					],
					"stateMutability": "view",
					"type": "function"
				},
				{
					"inputs": [],
					"name": "withdraw",
					"outputs": [],
					"stateMutability": "nonpayable",
					"type": "function"
				},
				{
					"stateMutability": "payable",
					"type": "receive"
				}
			],
			"devdoc": {
				"kind": "dev",
				"methods": {},
				"version": 1
			},
			"evm": {
				"assembly": "    /* \"FundMe.sol\":141:1679  contract FundMe {... */\n  mstore(0x40, 0xa0)\n    /* \"FundMe.sol\":381:433  constructor () {... */\n  callvalue\n  dup1\n  iszero\n  tag_1\n  jumpi\n  0x00\n  dup1\n  revert\ntag_1:\n  pop\n    /* \"FundMe.sol\":416:426  msg.sender */\n  caller\n    /* \"FundMe.sol\":406:426  i_owner = msg.sender */\n  0xffffffffffffffffffffffffffffffffffffffff\n  and\n  0x80\n  dup2\n  0xffffffffffffffffffffffffffffffffffffffff\n  and\n  dup2\n  mstore\n  pop\n  pop\n    /* \"FundMe.sol\":141:1679  contract FundMe {... */\n  mload(0x80)\n  codecopy(0x00, dataOffset(sub_0), dataSize(sub_0))\n  0x00\n  assignImmutable(\"0x35bb2e240092263378f77ea1e9c278099a33b604c4c4e26d13ea227e8bb74470\")\n  return(0x00, dataSize(sub_0))\nstop\n\nsub_0: assembly {\n        /* \"FundMe.sol\":141:1679  contract FundMe {... */\n      mstore(0x40, 0x80)\n      jumpi(tag_1, lt(calldatasize, 0x04))\n      shr(0xe0, calldataload(0x00))\n      dup1\n      0x213dbea2\n      eq\n      tag_3\n      jumpi\n      dup1\n      0x3ccfd60b\n      eq\n      tag_4\n      jumpi\n      dup1\n      0xb60d4288\n      eq\n      tag_5\n      jumpi\n      dup1\n      0xcb78e6e1\n      eq\n      tag_6\n      jumpi\n      dup1\n      0xdba6335f\n      eq\n      tag_7\n      jumpi\n      jump(tag_2)\n    tag_1:\n      jumpi(tag_2, calldatasize)\n        /* \"FundMe.sol\":1606:1612  fund() */\n      tag_10\n        /* \"FundMe.sol\":1606:1610  fund */\n      tag_11\n        /* \"FundMe.sol\":1606:1612  fund() */\n      jump\t// in\n    tag_10:\n        /* \"FundMe.sol\":141:1679  contract FundMe {... */\n      stop\n    tag_2:\n        /* \"FundMe.sol\":1663:1669  fund() */\n      tag_14\n        /* \"FundMe.sol\":1663:1667  fund */\n      tag_11\n        /* \"FundMe.sol\":1663:1669  fund() */\n      jump\t// in\n    tag_14:\n        /* \"FundMe.sol\":141:1679  contract FundMe {... */\n      stop\n        /* \"FundMe.sol\":198:233  uint public constant MIN_USD = 5e18 */\n    tag_3:\n      callvalue\n      dup1\n      iszero\n      tag_15\n      jumpi\n      0x00\n      dup1\n      revert\n    tag_15:\n      pop\n      tag_16\n      tag_17\n      jump\t// in\n    tag_16:\n      mload(0x40)\n      tag_18\n      swap2\n      swap1\n      tag_19\n      jump\t// in\n    tag_18:\n      mload(0x40)\n      dup1\n      swap2\n      sub\n      swap1\n      return\n        /* \"FundMe.sol\":802:1462  function withdraw() public onlyOwner {  ... */\n    tag_4:\n      callvalue\n      dup1\n      iszero\n      tag_20\n      jumpi\n      0x00\n      dup1\n      revert\n    tag_20:\n      pop\n      tag_21\n      tag_22\n      jump\t// in\n    tag_21:\n      stop\n        /* \"FundMe.sol\":438:796  function fund() public payable {... */\n    tag_5:\n      tag_23\n      tag_11\n      jump\t// in\n    tag_23:\n      stop\n        /* \"FundMe.sol\":263:335  mapping(address funder => uint amountFunded) public addressToAmoutFunded */\n    tag_6:\n      callvalue\n      dup1\n      iszero\n      tag_24\n      jumpi\n      0x00\n      dup1\n      revert\n    tag_24:\n      pop\n      tag_25\n      0x04\n      dup1\n      calldatasize\n      sub\n      dup2\n      add\n      swap1\n      tag_26\n      swap2\n      swap1\n      tag_27\n      jump\t// in\n    tag_26:\n      tag_28\n      jump\t// in\n    tag_25:\n      mload(0x40)\n      tag_29\n      swap2\n      swap1\n      tag_19\n      jump\t// in\n    tag_29:\n      mload(0x40)\n      dup1\n      swap2\n      sub\n      swap1\n      return\n        /* \"FundMe.sol\":342:374  address public immutable i_owner */\n    tag_7:\n      callvalue\n      dup1\n      iszero\n      tag_30\n      jumpi\n      0x00\n      dup1\n      revert\n    tag_30:\n      pop\n      tag_31\n      tag_32\n      jump\t// in\n    tag_31:\n      mload(0x40)\n      tag_33\n      swap2\n      swap1\n      tag_34\n      jump\t// in\n    tag_33:\n      mload(0x40)\n      dup1\n      swap2\n      sub\n      swap1\n      return\n        /* \"FundMe.sol\":438:796  function fund() public payable {... */\n    tag_11:\n        /* \"FundMe.sol\":479:492  uint ethValue */\n      0x00\n        /* \"FundMe.sol\":495:504  msg.value */\n      callvalue\n        /* \"FundMe.sol\":479:504  uint ethValue = msg.value */\n      swap1\n      pop\n        /* \"FundMe.sol\":229:233  5e18 */\n      0x4563918244f40000\n        /* \"FundMe.sol\":522:551  msg.value.getConversionRate() */\n      tag_36\n        /* \"FundMe.sol\":522:531  msg.value */\n      callvalue\n        /* \"FundMe.sol\":522:549  msg.value.getConversionRate */\n      tag_37\n        /* \"FundMe.sol\":522:551  msg.value.getConversionRate() */\n      jump\t// in\n    tag_36:\n        /* \"FundMe.sol\":522:562  msg.value.getConversionRate() >= MIN_USD */\n      lt\n      iszero\n        /* \"FundMe.sol\":514:593  require(msg.value.getConversionRate() >= MIN_USD, \"You didn't send anough ETH\") */\n      tag_38\n      jumpi\n      mload(0x40)\n      0x08c379a000000000000000000000000000000000000000000000000000000000\n      dup2\n      mstore\n      0x04\n      add\n      tag_39\n      swap1\n      tag_40\n      jump\t// in\n    tag_39:\n      mload(0x40)\n      dup1\n      swap2\n      sub\n      swap1\n      revert\n    tag_38:\n        /* \"FundMe.sol\":651:665  address funder */\n      0x00\n        /* \"FundMe.sol\":668:678  msg.sender */\n      caller\n        /* \"FundMe.sol\":651:678  address funder = msg.sender */\n      swap1\n      pop\n        /* \"FundMe.sol\":689:696  funders */\n      0x00\n        /* \"FundMe.sol\":702:708  funder */\n      dup2\n        /* \"FundMe.sol\":689:709  funders.push(funder) */\n      swap1\n      dup1\n      0x01\n      dup2\n      sload\n      add\n      dup1\n      dup3\n      sstore\n      dup1\n      swap2\n      pop\n      pop\n      0x01\n      swap1\n      sub\n      swap1\n      0x00\n      mstore\n      keccak256(0x00, 0x20)\n      add\n      0x00\n      swap1\n      swap2\n      swap1\n      swap2\n      swap1\n      swap2\n      0x0100\n      exp\n      dup2\n      sload\n      dup2\n      0xffffffffffffffffffffffffffffffffffffffff\n      mul\n      not\n      and\n      swap1\n      dup4\n      0xffffffffffffffffffffffffffffffffffffffff\n      and\n      mul\n      or\n      swap1\n      sstore\n      pop\n        /* \"FundMe.sol\":781:789  ethValue */\n      dup2\n        /* \"FundMe.sol\":750:770  addressToAmoutFunded */\n      0x01\n        /* \"FundMe.sol\":750:778  addressToAmoutFunded[funder] */\n      0x00\n        /* \"FundMe.sol\":771:777  funder */\n      dup4\n        /* \"FundMe.sol\":750:778  addressToAmoutFunded[funder] */\n      0xffffffffffffffffffffffffffffffffffffffff\n      and\n      0xffffffffffffffffffffffffffffffffffffffff\n      and\n      dup2\n      mstore\n      0x20\n      add\n      swap1\n      dup2\n      mstore\n      0x20\n      add\n      0x00\n      keccak256\n      sload\n        /* \"FundMe.sol\":750:789  addressToAmoutFunded[funder] + ethValue */\n      tag_42\n      swap2\n      swap1\n      tag_43\n      jump\t// in\n    tag_42:\n        /* \"FundMe.sol\":719:739  addressToAmoutFunded */\n      0x01\n        /* \"FundMe.sol\":719:747  addressToAmoutFunded[funder] */\n      0x00\n        /* \"FundMe.sol\":740:746  funder */\n      dup4\n        /* \"FundMe.sol\":719:747  addressToAmoutFunded[funder] */\n      0xffffffffffffffffffffffffffffffffffffffff\n      and\n      0xffffffffffffffffffffffffffffffffffffffff\n      and\n      dup2\n      mstore\n      0x20\n      add\n      swap1\n      dup2\n      mstore\n      0x20\n      add\n      0x00\n      keccak256\n        /* \"FundMe.sol\":719:789  addressToAmoutFunded[funder] = addressToAmoutFunded[funder] + ethValue */\n      dup2\n      swap1\n      sstore\n      pop\n        /* \"FundMe.sol\":469:796  {... */\n      pop\n      pop\n        /* \"FundMe.sol\":438:796  function fund() public payable {... */\n      jump\t// out\n        /* \"FundMe.sol\":198:233  uint public constant MIN_USD = 5e18 */\n    tag_17:\n        /* \"FundMe.sol\":229:233  5e18 */\n      0x4563918244f40000\n        /* \"FundMe.sol\":198:233  uint public constant MIN_USD = 5e18 */\n      dup2\n      jump\t// out\n        /* \"FundMe.sol\":802:1462  function withdraw() public onlyOwner {  ... */\n    tag_22:\n        /* \"FundMe.sol\":1514:1521  i_owner */\n      immutable(\"0x35bb2e240092263378f77ea1e9c278099a33b604c4c4e26d13ea227e8bb74470\")\n        /* \"FundMe.sol\":1502:1521  msg.sender!=i_owner */\n      0xffffffffffffffffffffffffffffffffffffffff\n      and\n        /* \"FundMe.sol\":1502:1512  msg.sender */\n      caller\n        /* \"FundMe.sol\":1502:1521  msg.sender!=i_owner */\n      0xffffffffffffffffffffffffffffffffffffffff\n      and\n      eq\n        /* \"FundMe.sol\":1499:1545  if(msg.sender!=i_owner) { revert NotOwner(); } */\n      tag_45\n      jumpi\n        /* \"FundMe.sol\":1532:1542  NotOwner() */\n      mload(0x40)\n      0x30cd747100000000000000000000000000000000000000000000000000000000\n      dup2\n      mstore\n      0x04\n      add\n      mload(0x40)\n      dup1\n      swap2\n      sub\n      swap1\n      revert\n        /* \"FundMe.sol\":1499:1545  if(msg.sender!=i_owner) { revert NotOwner(); } */\n    tag_45:\n        /* \"FundMe.sol\":856:872  uint funderIndex */\n      0x00\n        /* \"FundMe.sol\":851:1031  for (uint funderIndex = 0; funderIndex < funders.length; funderIndex++) {... */\n    tag_47:\n        /* \"FundMe.sol\":892:899  funders */\n      0x00\n        /* \"FundMe.sol\":892:906  funders.length */\n      dup1\n      sload\n      swap1\n      pop\n        /* \"FundMe.sol\":878:889  funderIndex */\n      dup2\n        /* \"FundMe.sol\":878:906  funderIndex < funders.length */\n      lt\n        /* \"FundMe.sol\":851:1031  for (uint funderIndex = 0; funderIndex < funders.length; funderIndex++) {... */\n      iszero\n      tag_48\n      jumpi\n        /* \"FundMe.sol\":937:951  address funder */\n      0x00\n        /* \"FundMe.sol\":954:961  funders */\n      dup1\n        /* \"FundMe.sol\":962:973  funderIndex */\n      dup3\n        /* \"FundMe.sol\":954:974  funders[funderIndex] */\n      dup2\n      sload\n      dup2\n      lt\n      tag_50\n      jumpi\n      tag_51\n      tag_52\n      jump\t// in\n    tag_51:\n    tag_50:\n      swap1\n      0x00\n      mstore\n      keccak256(0x00, 0x20)\n      add\n      0x00\n      swap1\n      sload\n      swap1\n      0x0100\n      exp\n      swap1\n      div\n      0xffffffffffffffffffffffffffffffffffffffff\n      and\n        /* \"FundMe.sol\":937:974  address funder = funders[funderIndex] */\n      swap1\n      pop\n        /* \"FundMe.sol\":1019:1020  0 */\n      0x00\n        /* \"FundMe.sol\":988:1008  addressToAmoutFunded */\n      0x01\n        /* \"FundMe.sol\":988:1016  addressToAmoutFunded[funder] */\n      0x00\n        /* \"FundMe.sol\":1009:1015  funder */\n      dup4\n        /* \"FundMe.sol\":988:1016  addressToAmoutFunded[funder] */\n      0xffffffffffffffffffffffffffffffffffffffff\n      and\n      0xffffffffffffffffffffffffffffffffffffffff\n      and\n      dup2\n      mstore\n      0x20\n      add\n      swap1\n      dup2\n      mstore\n      0x20\n      add\n      0x00\n      keccak256\n        /* \"FundMe.sol\":988:1020  addressToAmoutFunded[funder] = 0 */\n      dup2\n      swap1\n      sstore\n      pop\n        /* \"FundMe.sol\":923:1031  {... */\n      pop\n        /* \"FundMe.sol\":908:921  funderIndex++ */\n      dup1\n      dup1\n      0x01\n      add\n      swap2\n      pop\n      pop\n        /* \"FundMe.sol\":851:1031  for (uint funderIndex = 0; funderIndex < funders.length; funderIndex++) {... */\n      jump(tag_47)\n    tag_48:\n      pop\n        /* \"FundMe.sol\":1064:1065  0 */\n      0x00\n        /* \"FundMe.sol\":1050:1066  new address[](0) */\n      0xffffffffffffffff\n      dup2\n      gt\n      iszero\n      tag_54\n      jumpi\n      tag_55\n      tag_56\n      jump\t// in\n    tag_55:\n    tag_54:\n      mload(0x40)\n      swap1\n      dup1\n      dup3\n      mstore\n      dup1\n      0x20\n      mul\n      0x20\n      add\n      dup3\n      add\n      0x40\n      mstore\n      dup1\n      iszero\n      tag_57\n      jumpi\n      dup2\n      0x20\n      add\n      0x20\n      dup3\n      mul\n      dup1\n      calldatasize\n      dup4\n      calldatacopy\n      dup1\n      dup3\n      add\n      swap2\n      pop\n      pop\n      swap1\n      pop\n    tag_57:\n      pop\n        /* \"FundMe.sol\":1040:1047  funders */\n      0x00\n        /* \"FundMe.sol\":1040:1066  funders = new address[](0) */\n      swap1\n      dup1\n      mload\n      swap1\n      0x20\n      add\n      swap1\n      tag_58\n      swap3\n      swap2\n      swap1\n      tag_59\n      jump\t// in\n    tag_58:\n      pop\n        /* \"FundMe.sol\":1330:1346  bool callSuccess */\n      0x00\n        /* \"FundMe.sol\":1360:1370  msg.sender */\n      caller\n        /* \"FundMe.sol\":1352:1376  payable(msg.sender).call */\n      0xffffffffffffffffffffffffffffffffffffffff\n      and\n        /* \"FundMe.sol\":1384:1405  address(this).balance */\n      selfbalance\n        /* \"FundMe.sol\":1352:1410  payable(msg.sender).call{value: address(this).balance}(\"\") */\n      mload(0x40)\n      tag_60\n      swap1\n      tag_61\n      jump\t// in\n    tag_60:\n      0x00\n      mload(0x40)\n      dup1\n      dup4\n      sub\n      dup2\n      dup6\n      dup8\n      gas\n      call\n      swap3\n      pop\n      pop\n      pop\n      returndatasize\n      dup1\n      0x00\n      dup2\n      eq\n      tag_64\n      jumpi\n      mload(0x40)\n      swap2\n      pop\n      and(add(returndatasize, 0x3f), not(0x1f))\n      dup3\n      add\n      0x40\n      mstore\n      returndatasize\n      dup3\n      mstore\n      returndatasize\n      0x00\n      0x20\n      dup5\n      add\n      returndatacopy\n      jump(tag_63)\n    tag_64:\n      0x60\n      swap2\n      pop\n    tag_63:\n      pop\n        /* \"FundMe.sol\":1329:1410  (bool callSuccess, ) = payable(msg.sender).call{value: address(this).balance}(\"\") */\n      pop\n      swap1\n      pop\n        /* \"FundMe.sol\":1428:1439  callSuccess */\n      dup1\n        /* \"FundMe.sol\":1420:1455  require(callSuccess, \"Call failed\") */\n      tag_65\n      jumpi\n      mload(0x40)\n      0x08c379a000000000000000000000000000000000000000000000000000000000\n      dup2\n      mstore\n      0x04\n      add\n      tag_66\n      swap1\n      tag_67\n      jump\t// in\n    tag_66:\n      mload(0x40)\n      dup1\n      swap2\n      sub\n      swap1\n      revert\n    tag_65:\n        /* \"FundMe.sol\":839:1462  {  ... */\n      pop\n        /* \"FundMe.sol\":802:1462  function withdraw() public onlyOwner {  ... */\n      jump\t// out\n        /* \"FundMe.sol\":263:335  mapping(address funder => uint amountFunded) public addressToAmoutFunded */\n    tag_28:\n      mstore(0x20, 0x01)\n      dup1\n      0x00\n      mstore\n      keccak256(0x00, 0x40)\n      0x00\n      swap2\n      pop\n      swap1\n      pop\n      sload\n      dup2\n      jump\t// out\n        /* \"FundMe.sol\":342:374  address public immutable i_owner */\n    tag_32:\n      immutable(\"0x35bb2e240092263378f77ea1e9c278099a33b604c4c4e26d13ea227e8bb74470\")\n      dup2\n      jump\t// out\n        /* \"PriceConverter.sol\":632:838  function getConversionRate(uint ethAmount) internal view returns (uint){... */\n    tag_37:\n        /* \"PriceConverter.sol\":698:702  uint */\n      0x00\n        /* \"PriceConverter.sol\":713:726  uint ethPrice */\n      dup1\n        /* \"PriceConverter.sol\":729:739  getPrice() */\n      tag_69\n        /* \"PriceConverter.sol\":729:737  getPrice */\n      tag_70\n        /* \"PriceConverter.sol\":729:739  getPrice() */\n      jump\t// in\n    tag_69:\n        /* \"PriceConverter.sol\":713:739  uint ethPrice = getPrice() */\n      swap1\n      pop\n        /* \"PriceConverter.sol\":749:768  uint ethAmountInUsd */\n      0x00\n        /* \"PriceConverter.sol\":796:800  1e18 */\n      0x0de0b6b3a7640000\n        /* \"PriceConverter.sol\":784:792  ethPrice */\n      dup3\n        /* \"PriceConverter.sol\":772:781  ethAmount */\n      dup6\n        /* \"PriceConverter.sol\":772:792  ethAmount * ethPrice */\n      tag_71\n      swap2\n      swap1\n      tag_72\n      jump\t// in\n    tag_71:\n        /* \"PriceConverter.sol\":771:800  (ethAmount * ethPrice) / 1e18 */\n      tag_73\n      swap2\n      swap1\n      tag_74\n      jump\t// in\n    tag_73:\n        /* \"PriceConverter.sol\":749:800  uint ethAmountInUsd = (ethAmount * ethPrice) / 1e18 */\n      swap1\n      pop\n        /* \"PriceConverter.sol\":817:831  ethAmountInUsd */\n      dup1\n        /* \"PriceConverter.sol\":810:831  return ethAmountInUsd */\n      swap3\n      pop\n      pop\n      pop\n        /* \"PriceConverter.sol\":632:838  function getConversionRate(uint ethAmount) internal view returns (uint){... */\n      swap2\n      swap1\n      pop\n      jump\t// out\n        /* \"PriceConverter.sol\":205:626  function getPrice() internal view returns (uint256) {... */\n    tag_70:\n        /* \"PriceConverter.sol\":248:255  uint256 */\n      0x00\n        /* \"PriceConverter.sol\":267:298  AggregatorV3Interface priceFeed */\n      dup1\n        /* \"PriceConverter.sol\":323:365  0x694AA1769357215DE4FAC081bf1f309aDC325306 */\n      0x694aa1769357215de4fac081bf1f309adc325306\n        /* \"PriceConverter.sol\":267:366  AggregatorV3Interface priceFeed = AggregatorV3Interface(0x694AA1769357215DE4FAC081bf1f309aDC325306) */\n      swap1\n      pop\n        /* \"PriceConverter.sol\":424:434  int answer */\n      0x00\n        /* \"PriceConverter.sol\":551:560  priceFeed */\n      dup2\n        /* \"PriceConverter.sol\":551:576  priceFeed.latestRoundData */\n      0xffffffffffffffffffffffffffffffffffffffff\n      and\n      0xfeaf968c\n        /* \"PriceConverter.sol\":551:578  priceFeed.latestRoundData() */\n      mload(0x40)\n      dup2\n      0xffffffff\n      and\n      0xe0\n      shl\n      dup2\n      mstore\n      0x04\n      add\n      0xa0\n      mload(0x40)\n      dup1\n      dup4\n      sub\n      dup2\n      dup7\n      gas\n      staticcall\n      iszero\n      dup1\n      iszero\n      tag_77\n      jumpi\n      returndatasize\n      0x00\n      dup1\n      returndatacopy\n      revert(0x00, returndatasize)\n    tag_77:\n      pop\n      pop\n      pop\n      pop\n      mload(0x40)\n      returndatasize\n      not(0x1f)\n      0x1f\n      dup3\n      add\n      and\n      dup3\n      add\n      dup1\n      0x40\n      mstore\n      pop\n      dup2\n      add\n      swap1\n      tag_78\n      swap2\n      swap1\n      tag_79\n      jump\t// in\n    tag_78:\n        /* \"PriceConverter.sol\":376:578  (... */\n      pop\n      pop\n      pop\n      swap2\n      pop\n      pop\n        /* \"PriceConverter.sol\":614:618  1e10 */\n      0x02540be400\n        /* \"PriceConverter.sol\":605:611  answer */\n      dup2\n        /* \"PriceConverter.sol\":605:618  answer * 1e10 */\n      tag_80\n      swap2\n      swap1\n      tag_81\n      jump\t// in\n    tag_80:\n        /* \"PriceConverter.sol\":593:619  return uint(answer * 1e10) */\n      swap3\n      pop\n      pop\n      pop\n        /* \"PriceConverter.sol\":205:626  function getPrice() internal view returns (uint256) {... */\n      swap1\n      jump\t// out\n    tag_59:\n      dup3\n      dup1\n      sload\n      dup3\n      dup3\n      sstore\n      swap1\n      0x00\n      mstore\n      keccak256(0x00, 0x20)\n      swap1\n      dup2\n      add\n      swap3\n      dup3\n      iszero\n      tag_82\n      jumpi\n      swap2\n      0x20\n      mul\n      dup3\n      add\n    tag_83:\n      dup3\n      dup2\n      gt\n      iszero\n      tag_84\n      jumpi\n      dup3\n      mload\n      dup3\n      exp(0x0100, 0x00)\n      dup2\n      sload\n      dup2\n      0xffffffffffffffffffffffffffffffffffffffff\n      mul\n      not\n      and\n      swap1\n      dup4\n      0xffffffffffffffffffffffffffffffffffffffff\n      and\n      mul\n      or\n      swap1\n      sstore\n      pop\n      swap2\n      0x20\n      add\n      swap2\n      swap1\n      0x01\n      add\n      swap1\n      jump(tag_83)\n    tag_84:\n    tag_82:\n      pop\n      swap1\n      pop\n      tag_85\n      swap2\n      swap1\n      tag_86\n      jump\t// in\n    tag_85:\n      pop\n      swap1\n      jump\t// out\n    tag_86:\n    tag_87:\n      dup1\n      dup3\n      gt\n      iszero\n      tag_88\n      jumpi\n      0x00\n      dup2\n      0x00\n      swap1\n      sstore\n      pop\n      0x01\n      add\n      jump(tag_87)\n    tag_88:\n      pop\n      swap1\n      jump\t// out\n        /* \"#utility.yul\":7:84   */\n    tag_89:\n        /* \"#utility.yul\":44:51   */\n      0x00\n        /* \"#utility.yul\":73:78   */\n      dup2\n        /* \"#utility.yul\":62:78   */\n      swap1\n      pop\n        /* \"#utility.yul\":7:84   */\n      swap2\n      swap1\n      pop\n      jump\t// out\n        /* \"#utility.yul\":90:208   */\n    tag_90:\n        /* \"#utility.yul\":177:201   */\n      tag_120\n        /* \"#utility.yul\":195:200   */\n      dup2\n        /* \"#utility.yul\":177:201   */\n      tag_89\n      jump\t// in\n    tag_120:\n        /* \"#utility.yul\":172:175   */\n      dup3\n        /* \"#utility.yul\":165:202   */\n      mstore\n        /* \"#utility.yul\":90:208   */\n      pop\n      pop\n      jump\t// out\n        /* \"#utility.yul\":214:436   */\n    tag_19:\n        /* \"#utility.yul\":307:311   */\n      0x00\n        /* \"#utility.yul\":345:347   */\n      0x20\n        /* \"#utility.yul\":334:343   */\n      dup3\n        /* \"#utility.yul\":330:348   */\n      add\n        /* \"#utility.yul\":322:348   */\n      swap1\n      pop\n        /* \"#utility.yul\":358:429   */\n      tag_122\n        /* \"#utility.yul\":426:427   */\n      0x00\n        /* \"#utility.yul\":415:424   */\n      dup4\n        /* \"#utility.yul\":411:428   */\n      add\n        /* \"#utility.yul\":402:408   */\n      dup5\n        /* \"#utility.yul\":358:429   */\n      tag_90\n      jump\t// in\n    tag_122:\n        /* \"#utility.yul\":214:436   */\n      swap3\n      swap2\n      pop\n      pop\n      jump\t// out\n        /* \"#utility.yul\":523:640   */\n    tag_92:\n        /* \"#utility.yul\":632:633   */\n      0x00\n        /* \"#utility.yul\":629:630   */\n      dup1\n        /* \"#utility.yul\":622:634   */\n      revert\n        /* \"#utility.yul\":769:895   */\n    tag_94:\n        /* \"#utility.yul\":806:813   */\n      0x00\n        /* \"#utility.yul\":846:888   */\n      0xffffffffffffffffffffffffffffffffffffffff\n        /* \"#utility.yul\":839:844   */\n      dup3\n        /* \"#utility.yul\":835:889   */\n      and\n        /* \"#utility.yul\":824:889   */\n      swap1\n      pop\n        /* \"#utility.yul\":769:895   */\n      swap2\n      swap1\n      pop\n      jump\t// out\n        /* \"#utility.yul\":901:997   */\n    tag_95:\n        /* \"#utility.yul\":938:945   */\n      0x00\n        /* \"#utility.yul\":967:991   */\n      tag_128\n        /* \"#utility.yul\":985:990   */\n      dup3\n        /* \"#utility.yul\":967:991   */\n      tag_94\n      jump\t// in\n    tag_128:\n        /* \"#utility.yul\":956:991   */\n      swap1\n      pop\n        /* \"#utility.yul\":901:997   */\n      swap2\n      swap1\n      pop\n      jump\t// out\n        /* \"#utility.yul\":1003:1125   */\n    tag_96:\n        /* \"#utility.yul\":1076:1100   */\n      tag_130\n        /* \"#utility.yul\":1094:1099   */\n      dup2\n        /* \"#utility.yul\":1076:1100   */\n      tag_95\n      jump\t// in\n    tag_130:\n        /* \"#utility.yul\":1069:1074   */\n      dup2\n        /* \"#utility.yul\":1066:1101   */\n      eq\n        /* \"#utility.yul\":1056:1119   */\n      tag_131\n      jumpi\n        /* \"#utility.yul\":1115:1116   */\n      0x00\n        /* \"#utility.yul\":1112:1113   */\n      dup1\n        /* \"#utility.yul\":1105:1117   */\n      revert\n        /* \"#utility.yul\":1056:1119   */\n    tag_131:\n        /* \"#utility.yul\":1003:1125   */\n      pop\n      jump\t// out\n        /* \"#utility.yul\":1131:1270   */\n    tag_97:\n        /* \"#utility.yul\":1177:1182   */\n      0x00\n        /* \"#utility.yul\":1215:1221   */\n      dup2\n        /* \"#utility.yul\":1202:1222   */\n      calldataload\n        /* \"#utility.yul\":1193:1222   */\n      swap1\n      pop\n        /* \"#utility.yul\":1231:1264   */\n      tag_133\n        /* \"#utility.yul\":1258:1263   */\n      dup2\n        /* \"#utility.yul\":1231:1264   */\n      tag_96\n      jump\t// in\n    tag_133:\n        /* \"#utility.yul\":1131:1270   */\n      swap3\n      swap2\n      pop\n      pop\n      jump\t// out\n        /* \"#utility.yul\":1276:1605   */\n    tag_27:\n        /* \"#utility.yul\":1335:1341   */\n      0x00\n        /* \"#utility.yul\":1384:1386   */\n      0x20\n        /* \"#utility.yul\":1372:1381   */\n      dup3\n        /* \"#utility.yul\":1363:1370   */\n      dup5\n        /* \"#utility.yul\":1359:1382   */\n      sub\n        /* \"#utility.yul\":1355:1387   */\n      slt\n        /* \"#utility.yul\":1352:1471   */\n      iszero\n      tag_135\n      jumpi\n        /* \"#utility.yul\":1390:1469   */\n      tag_136\n      tag_92\n      jump\t// in\n    tag_136:\n        /* \"#utility.yul\":1352:1471   */\n    tag_135:\n        /* \"#utility.yul\":1510:1511   */\n      0x00\n        /* \"#utility.yul\":1535:1588   */\n      tag_137\n        /* \"#utility.yul\":1580:1587   */\n      dup5\n        /* \"#utility.yul\":1571:1577   */\n      dup3\n        /* \"#utility.yul\":1560:1569   */\n      dup6\n        /* \"#utility.yul\":1556:1578   */\n      add\n        /* \"#utility.yul\":1535:1588   */\n      tag_97\n      jump\t// in\n    tag_137:\n        /* \"#utility.yul\":1525:1588   */\n      swap2\n      pop\n        /* \"#utility.yul\":1481:1598   */\n      pop\n        /* \"#utility.yul\":1276:1605   */\n      swap3\n      swap2\n      pop\n      pop\n      jump\t// out\n        /* \"#utility.yul\":1611:1729   */\n    tag_98:\n        /* \"#utility.yul\":1698:1722   */\n      tag_139\n        /* \"#utility.yul\":1716:1721   */\n      dup2\n        /* \"#utility.yul\":1698:1722   */\n      tag_95\n      jump\t// in\n    tag_139:\n        /* \"#utility.yul\":1693:1696   */\n      dup3\n        /* \"#utility.yul\":1686:1723   */\n      mstore\n        /* \"#utility.yul\":1611:1729   */\n      pop\n      pop\n      jump\t// out\n        /* \"#utility.yul\":1735:1957   */\n    tag_34:\n        /* \"#utility.yul\":1828:1832   */\n      0x00\n        /* \"#utility.yul\":1866:1868   */\n      0x20\n        /* \"#utility.yul\":1855:1864   */\n      dup3\n        /* \"#utility.yul\":1851:1869   */\n      add\n        /* \"#utility.yul\":1843:1869   */\n      swap1\n      pop\n        /* \"#utility.yul\":1879:1950   */\n      tag_141\n        /* \"#utility.yul\":1947:1948   */\n      0x00\n        /* \"#utility.yul\":1936:1945   */\n      dup4\n        /* \"#utility.yul\":1932:1949   */\n      add\n        /* \"#utility.yul\":1923:1929   */\n      dup5\n        /* \"#utility.yul\":1879:1950   */\n      tag_98\n      jump\t// in\n    tag_141:\n        /* \"#utility.yul\":1735:1957   */\n      swap3\n      swap2\n      pop\n      pop\n      jump\t// out\n        /* \"#utility.yul\":1963:2132   */\n    tag_99:\n        /* \"#utility.yul\":2047:2058   */\n      0x00\n        /* \"#utility.yul\":2081:2087   */\n      dup3\n        /* \"#utility.yul\":2076:2079   */\n      dup3\n        /* \"#utility.yul\":2069:2088   */\n      mstore\n        /* \"#utility.yul\":2121:2125   */\n      0x20\n        /* \"#utility.yul\":2116:2119   */\n      dup3\n        /* \"#utility.yul\":2112:2126   */\n      add\n        /* \"#utility.yul\":2097:2126   */\n      swap1\n      pop\n        /* \"#utility.yul\":1963:2132   */\n      swap3\n      swap2\n      pop\n      pop\n      jump\t// out\n        /* \"#utility.yul\":2138:2314   */\n    tag_100:\n        /* \"#utility.yul\":2278:2306   */\n      0x596f75206469646e27742073656e6420616e6f75676820455448000000000000\n        /* \"#utility.yul\":2274:2275   */\n      0x00\n        /* \"#utility.yul\":2266:2272   */\n      dup3\n        /* \"#utility.yul\":2262:2276   */\n      add\n        /* \"#utility.yul\":2255:2307   */\n      mstore\n        /* \"#utility.yul\":2138:2314   */\n      pop\n      jump\t// out\n        /* \"#utility.yul\":2320:2686   */\n    tag_101:\n        /* \"#utility.yul\":2462:2465   */\n      0x00\n        /* \"#utility.yul\":2483:2550   */\n      tag_145\n        /* \"#utility.yul\":2547:2549   */\n      0x1a\n        /* \"#utility.yul\":2542:2545   */\n      dup4\n        /* \"#utility.yul\":2483:2550   */\n      tag_99\n      jump\t// in\n    tag_145:\n        /* \"#utility.yul\":2476:2550   */\n      swap2\n      pop\n        /* \"#utility.yul\":2559:2652   */\n      tag_146\n        /* \"#utility.yul\":2648:2651   */\n      dup3\n        /* \"#utility.yul\":2559:2652   */\n      tag_100\n      jump\t// in\n    tag_146:\n        /* \"#utility.yul\":2677:2679   */\n      0x20\n        /* \"#utility.yul\":2672:2675   */\n      dup3\n        /* \"#utility.yul\":2668:2680   */\n      add\n        /* \"#utility.yul\":2661:2680   */\n      swap1\n      pop\n        /* \"#utility.yul\":2320:2686   */\n      swap2\n      swap1\n      pop\n      jump\t// out\n        /* \"#utility.yul\":2692:3111   */\n    tag_40:\n        /* \"#utility.yul\":2858:2862   */\n      0x00\n        /* \"#utility.yul\":2896:2898   */\n      0x20\n        /* \"#utility.yul\":2885:2894   */\n      dup3\n        /* \"#utility.yul\":2881:2899   */\n      add\n        /* \"#utility.yul\":2873:2899   */\n      swap1\n      pop\n        /* \"#utility.yul\":2945:2954   */\n      dup2\n        /* \"#utility.yul\":2939:2943   */\n      dup2\n        /* \"#utility.yul\":2935:2955   */\n      sub\n        /* \"#utility.yul\":2931:2932   */\n      0x00\n        /* \"#utility.yul\":2920:2929   */\n      dup4\n        /* \"#utility.yul\":2916:2933   */\n      add\n        /* \"#utility.yul\":2909:2956   */\n      mstore\n        /* \"#utility.yul\":2973:3104   */\n      tag_148\n        /* \"#utility.yul\":3099:3103   */\n      dup2\n        /* \"#utility.yul\":2973:3104   */\n      tag_101\n      jump\t// in\n    tag_148:\n        /* \"#utility.yul\":2965:3104   */\n      swap1\n      pop\n        /* \"#utility.yul\":2692:3111   */\n      swap2\n      swap1\n      pop\n      jump\t// out\n        /* \"#utility.yul\":3117:3297   */\n    tag_102:\n        /* \"#utility.yul\":3165:3242   */\n      0x4e487b7100000000000000000000000000000000000000000000000000000000\n        /* \"#utility.yul\":3162:3163   */\n      0x00\n        /* \"#utility.yul\":3155:3243   */\n      mstore\n        /* \"#utility.yul\":3262:3266   */\n      0x11\n        /* \"#utility.yul\":3259:3260   */\n      0x04\n        /* \"#utility.yul\":3252:3267   */\n      mstore\n        /* \"#utility.yul\":3286:3290   */\n      0x24\n        /* \"#utility.yul\":3283:3284   */\n      0x00\n        /* \"#utility.yul\":3276:3291   */\n      revert\n        /* \"#utility.yul\":3303:3494   */\n    tag_43:\n        /* \"#utility.yul\":3343:3346   */\n      0x00\n        /* \"#utility.yul\":3362:3382   */\n      tag_151\n        /* \"#utility.yul\":3380:3381   */\n      dup3\n        /* \"#utility.yul\":3362:3382   */\n      tag_89\n      jump\t// in\n    tag_151:\n        /* \"#utility.yul\":3357:3382   */\n      swap2\n      pop\n        /* \"#utility.yul\":3396:3416   */\n      tag_152\n        /* \"#utility.yul\":3414:3415   */\n      dup4\n        /* \"#utility.yul\":3396:3416   */\n      tag_89\n      jump\t// in\n    tag_152:\n        /* \"#utility.yul\":3391:3416   */\n      swap3\n      pop\n        /* \"#utility.yul\":3439:3440   */\n      dup3\n        /* \"#utility.yul\":3436:3437   */\n      dup3\n        /* \"#utility.yul\":3432:3441   */\n      add\n        /* \"#utility.yul\":3425:3441   */\n      swap1\n      pop\n        /* \"#utility.yul\":3460:3463   */\n      dup1\n        /* \"#utility.yul\":3457:3458   */\n      dup3\n        /* \"#utility.yul\":3454:3464   */\n      gt\n        /* \"#utility.yul\":3451:3487   */\n      iszero\n      tag_153\n      jumpi\n        /* \"#utility.yul\":3467:3485   */\n      tag_154\n      tag_102\n      jump\t// in\n    tag_154:\n        /* \"#utility.yul\":3451:3487   */\n    tag_153:\n        /* \"#utility.yul\":3303:3494   */\n      swap3\n      swap2\n      pop\n      pop\n      jump\t// out\n        /* \"#utility.yul\":3500:3680   */\n    tag_52:\n        /* \"#utility.yul\":3548:3625   */\n      0x4e487b7100000000000000000000000000000000000000000000000000000000\n        /* \"#utility.yul\":3545:3546   */\n      0x00\n        /* \"#utility.yul\":3538:3626   */\n      mstore\n        /* \"#utility.yul\":3645:3649   */\n      0x32\n        /* \"#utility.yul\":3642:3643   */\n      0x04\n        /* \"#utility.yul\":3635:3650   */\n      mstore\n        /* \"#utility.yul\":3669:3673   */\n      0x24\n        /* \"#utility.yul\":3666:3667   */\n      0x00\n        /* \"#utility.yul\":3659:3674   */\n      revert\n        /* \"#utility.yul\":3686:3866   */\n    tag_56:\n        /* \"#utility.yul\":3734:3811   */\n      0x4e487b7100000000000000000000000000000000000000000000000000000000\n        /* \"#utility.yul\":3731:3732   */\n      0x00\n        /* \"#utility.yul\":3724:3812   */\n      mstore\n        /* \"#utility.yul\":3831:3835   */\n      0x41\n        /* \"#utility.yul\":3828:3829   */\n      0x04\n        /* \"#utility.yul\":3821:3836   */\n      mstore\n        /* \"#utility.yul\":3855:3859   */\n      0x24\n        /* \"#utility.yul\":3852:3853   */\n      0x00\n        /* \"#utility.yul\":3845:3860   */\n      revert\n        /* \"#utility.yul\":3872:4019   */\n    tag_103:\n        /* \"#utility.yul\":3973:3984   */\n      0x00\n        /* \"#utility.yul\":4010:4013   */\n      dup2\n        /* \"#utility.yul\":3995:4013   */\n      swap1\n      pop\n        /* \"#utility.yul\":3872:4019   */\n      swap3\n      swap2\n      pop\n      pop\n      jump\t// out\n        /* \"#utility.yul\":4025:4139   */\n    tag_104:\n      pop\n      jump\t// out\n        /* \"#utility.yul\":4145:4543   */\n    tag_105:\n        /* \"#utility.yul\":4304:4307   */\n      0x00\n        /* \"#utility.yul\":4325:4408   */\n      tag_160\n        /* \"#utility.yul\":4406:4407   */\n      0x00\n        /* \"#utility.yul\":4401:4404   */\n      dup4\n        /* \"#utility.yul\":4325:4408   */\n      tag_103\n      jump\t// in\n    tag_160:\n        /* \"#utility.yul\":4318:4408   */\n      swap2\n      pop\n        /* \"#utility.yul\":4417:4510   */\n      tag_161\n        /* \"#utility.yul\":4506:4509   */\n      dup3\n        /* \"#utility.yul\":4417:4510   */\n      tag_104\n      jump\t// in\n    tag_161:\n        /* \"#utility.yul\":4535:4536   */\n      0x00\n        /* \"#utility.yul\":4530:4533   */\n      dup3\n        /* \"#utility.yul\":4526:4537   */\n      add\n        /* \"#utility.yul\":4519:4537   */\n      swap1\n      pop\n        /* \"#utility.yul\":4145:4543   */\n      swap2\n      swap1\n      pop\n      jump\t// out\n        /* \"#utility.yul\":4549:4928   */\n    tag_61:\n        /* \"#utility.yul\":4733:4736   */\n      0x00\n        /* \"#utility.yul\":4755:4902   */\n      tag_163\n        /* \"#utility.yul\":4898:4901   */\n      dup3\n        /* \"#utility.yul\":4755:4902   */\n      tag_105\n      jump\t// in\n    tag_163:\n        /* \"#utility.yul\":4748:4902   */\n      swap2\n      pop\n        /* \"#utility.yul\":4919:4922   */\n      dup2\n        /* \"#utility.yul\":4912:4922   */\n      swap1\n      pop\n        /* \"#utility.yul\":4549:4928   */\n      swap2\n      swap1\n      pop\n      jump\t// out\n        /* \"#utility.yul\":4934:5095   */\n    tag_106:\n        /* \"#utility.yul\":5074:5087   */\n      0x43616c6c206661696c6564000000000000000000000000000000000000000000\n        /* \"#utility.yul\":5070:5071   */\n      0x00\n        /* \"#utility.yul\":5062:5068   */\n      dup3\n        /* \"#utility.yul\":5058:5072   */\n      add\n        /* \"#utility.yul\":5051:5088   */\n      mstore\n        /* \"#utility.yul\":4934:5095   */\n      pop\n      jump\t// out\n        /* \"#utility.yul\":5101:5467   */\n    tag_107:\n        /* \"#utility.yul\":5243:5246   */\n      0x00\n        /* \"#utility.yul\":5264:5331   */\n      tag_166\n        /* \"#utility.yul\":5328:5330   */\n      0x0b\n        /* \"#utility.yul\":5323:5326   */\n      dup4\n        /* \"#utility.yul\":5264:5331   */\n      tag_99\n      jump\t// in\n    tag_166:\n        /* \"#utility.yul\":5257:5331   */\n      swap2\n      pop\n        /* \"#utility.yul\":5340:5433   */\n      tag_167\n        /* \"#utility.yul\":5429:5432   */\n      dup3\n        /* \"#utility.yul\":5340:5433   */\n      tag_106\n      jump\t// in\n    tag_167:\n        /* \"#utility.yul\":5458:5460   */\n      0x20\n        /* \"#utility.yul\":5453:5456   */\n      dup3\n        /* \"#utility.yul\":5449:5461   */\n      add\n        /* \"#utility.yul\":5442:5461   */\n      swap1\n      pop\n        /* \"#utility.yul\":5101:5467   */\n      swap2\n      swap1\n      pop\n      jump\t// out\n        /* \"#utility.yul\":5473:5892   */\n    tag_67:\n        /* \"#utility.yul\":5639:5643   */\n      0x00\n        /* \"#utility.yul\":5677:5679   */\n      0x20\n        /* \"#utility.yul\":5666:5675   */\n      dup3\n        /* \"#utility.yul\":5662:5680   */\n      add\n        /* \"#utility.yul\":5654:5680   */\n      swap1\n      pop\n        /* \"#utility.yul\":5726:5735   */\n      dup2\n        /* \"#utility.yul\":5720:5724   */\n      dup2\n        /* \"#utility.yul\":5716:5736   */\n      sub\n        /* \"#utility.yul\":5712:5713   */\n      0x00\n        /* \"#utility.yul\":5701:5710   */\n      dup4\n        /* \"#utility.yul\":5697:5714   */\n      add\n        /* \"#utility.yul\":5690:5737   */\n      mstore\n        /* \"#utility.yul\":5754:5885   */\n      tag_169\n        /* \"#utility.yul\":5880:5884   */\n      dup2\n        /* \"#utility.yul\":5754:5885   */\n      tag_107\n      jump\t// in\n    tag_169:\n        /* \"#utility.yul\":5746:5885   */\n      swap1\n      pop\n        /* \"#utility.yul\":5473:5892   */\n      swap2\n      swap1\n      pop\n      jump\t// out\n        /* \"#utility.yul\":5898:6308   */\n    tag_72:\n        /* \"#utility.yul\":5938:5945   */\n      0x00\n        /* \"#utility.yul\":5961:5981   */\n      tag_171\n        /* \"#utility.yul\":5979:5980   */\n      dup3\n        /* \"#utility.yul\":5961:5981   */\n      tag_89\n      jump\t// in\n    tag_171:\n        /* \"#utility.yul\":5956:5981   */\n      swap2\n      pop\n        /* \"#utility.yul\":5995:6015   */\n      tag_172\n        /* \"#utility.yul\":6013:6014   */\n      dup4\n        /* \"#utility.yul\":5995:6015   */\n      tag_89\n      jump\t// in\n    tag_172:\n        /* \"#utility.yul\":5990:6015   */\n      swap3\n      pop\n        /* \"#utility.yul\":6050:6051   */\n      dup3\n        /* \"#utility.yul\":6047:6048   */\n      dup3\n        /* \"#utility.yul\":6043:6052   */\n      mul\n        /* \"#utility.yul\":6072:6102   */\n      tag_173\n        /* \"#utility.yul\":6090:6101   */\n      dup2\n        /* \"#utility.yul\":6072:6102   */\n      tag_89\n      jump\t// in\n    tag_173:\n        /* \"#utility.yul\":6061:6102   */\n      swap2\n      pop\n        /* \"#utility.yul\":6251:6252   */\n      dup3\n        /* \"#utility.yul\":6242:6249   */\n      dup3\n        /* \"#utility.yul\":6238:6253   */\n      div\n        /* \"#utility.yul\":6235:6236   */\n      dup5\n        /* \"#utility.yul\":6232:6254   */\n      eq\n        /* \"#utility.yul\":6212:6213   */\n      dup4\n        /* \"#utility.yul\":6205:6214   */\n      iszero\n        /* \"#utility.yul\":6185:6268   */\n      or\n        /* \"#utility.yul\":6162:6301   */\n      tag_174\n      jumpi\n        /* \"#utility.yul\":6281:6299   */\n      tag_175\n      tag_102\n      jump\t// in\n    tag_175:\n        /* \"#utility.yul\":6162:6301   */\n    tag_174:\n        /* \"#utility.yul\":5946:6308   */\n      pop\n        /* \"#utility.yul\":5898:6308   */\n      swap3\n      swap2\n      pop\n      pop\n      jump\t// out\n        /* \"#utility.yul\":6314:6494   */\n    tag_108:\n        /* \"#utility.yul\":6362:6439   */\n      0x4e487b7100000000000000000000000000000000000000000000000000000000\n        /* \"#utility.yul\":6359:6360   */\n      0x00\n        /* \"#utility.yul\":6352:6440   */\n      mstore\n        /* \"#utility.yul\":6459:6463   */\n      0x12\n        /* \"#utility.yul\":6456:6457   */\n      0x04\n        /* \"#utility.yul\":6449:6464   */\n      mstore\n        /* \"#utility.yul\":6483:6487   */\n      0x24\n        /* \"#utility.yul\":6480:6481   */\n      0x00\n        /* \"#utility.yul\":6473:6488   */\n      revert\n        /* \"#utility.yul\":6500:6685   */\n    tag_74:\n        /* \"#utility.yul\":6540:6541   */\n      0x00\n        /* \"#utility.yul\":6557:6577   */\n      tag_178\n        /* \"#utility.yul\":6575:6576   */\n      dup3\n        /* \"#utility.yul\":6557:6577   */\n      tag_89\n      jump\t// in\n    tag_178:\n        /* \"#utility.yul\":6552:6577   */\n      swap2\n      pop\n        /* \"#utility.yul\":6591:6611   */\n      tag_179\n        /* \"#utility.yul\":6609:6610   */\n      dup4\n        /* \"#utility.yul\":6591:6611   */\n      tag_89\n      jump\t// in\n    tag_179:\n        /* \"#utility.yul\":6586:6611   */\n      swap3\n      pop\n        /* \"#utility.yul\":6630:6631   */\n      dup3\n        /* \"#utility.yul\":6620:6655   */\n      tag_180\n      jumpi\n        /* \"#utility.yul\":6635:6653   */\n      tag_181\n      tag_108\n      jump\t// in\n    tag_181:\n        /* \"#utility.yul\":6620:6655   */\n    tag_180:\n        /* \"#utility.yul\":6677:6678   */\n      dup3\n        /* \"#utility.yul\":6674:6675   */\n      dup3\n        /* \"#utility.yul\":6670:6679   */\n      div\n        /* \"#utility.yul\":6665:6679   */\n      swap1\n      pop\n        /* \"#utility.yul\":6500:6685   */\n      swap3\n      swap2\n      pop\n      pop\n      jump\t// out\n        /* \"#utility.yul\":6691:6796   */\n    tag_109:\n        /* \"#utility.yul\":6727:6734   */\n      0x00\n        /* \"#utility.yul\":6767:6789   */\n      0xffffffffffffffffffff\n        /* \"#utility.yul\":6760:6765   */\n      dup3\n        /* \"#utility.yul\":6756:6790   */\n      and\n        /* \"#utility.yul\":6745:6790   */\n      swap1\n      pop\n        /* \"#utility.yul\":6691:6796   */\n      swap2\n      swap1\n      pop\n      jump\t// out\n        /* \"#utility.yul\":6802:6922   */\n    tag_110:\n        /* \"#utility.yul\":6874:6897   */\n      tag_184\n        /* \"#utility.yul\":6891:6896   */\n      dup2\n        /* \"#utility.yul\":6874:6897   */\n      tag_109\n      jump\t// in\n    tag_184:\n        /* \"#utility.yul\":6867:6872   */\n      dup2\n        /* \"#utility.yul\":6864:6898   */\n      eq\n        /* \"#utility.yul\":6854:6916   */\n      tag_185\n      jumpi\n        /* \"#utility.yul\":6912:6913   */\n      0x00\n        /* \"#utility.yul\":6909:6910   */\n      dup1\n        /* \"#utility.yul\":6902:6914   */\n      revert\n        /* \"#utility.yul\":6854:6916   */\n    tag_185:\n        /* \"#utility.yul\":6802:6922   */\n      pop\n      jump\t// out\n        /* \"#utility.yul\":6928:7069   */\n    tag_111:\n        /* \"#utility.yul\":6984:6989   */\n      0x00\n        /* \"#utility.yul\":7015:7021   */\n      dup2\n        /* \"#utility.yul\":7009:7022   */\n      mload\n        /* \"#utility.yul\":7000:7022   */\n      swap1\n      pop\n        /* \"#utility.yul\":7031:7063   */\n      tag_187\n        /* \"#utility.yul\":7057:7062   */\n      dup2\n        /* \"#utility.yul\":7031:7063   */\n      tag_110\n      jump\t// in\n    tag_187:\n        /* \"#utility.yul\":6928:7069   */\n      swap3\n      swap2\n      pop\n      pop\n      jump\t// out\n        /* \"#utility.yul\":7075:7151   */\n    tag_112:\n        /* \"#utility.yul\":7111:7118   */\n      0x00\n        /* \"#utility.yul\":7140:7145   */\n      dup2\n        /* \"#utility.yul\":7129:7145   */\n      swap1\n      pop\n        /* \"#utility.yul\":7075:7151   */\n      swap2\n      swap1\n      pop\n      jump\t// out\n        /* \"#utility.yul\":7157:7277   */\n    tag_113:\n        /* \"#utility.yul\":7229:7252   */\n      tag_190\n        /* \"#utility.yul\":7246:7251   */\n      dup2\n        /* \"#utility.yul\":7229:7252   */\n      tag_112\n      jump\t// in\n    tag_190:\n        /* \"#utility.yul\":7222:7227   */\n      dup2\n        /* \"#utility.yul\":7219:7253   */\n      eq\n        /* \"#utility.yul\":7209:7271   */\n      tag_191\n      jumpi\n        /* \"#utility.yul\":7267:7268   */\n      0x00\n        /* \"#utility.yul\":7264:7265   */\n      dup1\n        /* \"#utility.yul\":7257:7269   */\n      revert\n        /* \"#utility.yul\":7209:7271   */\n    tag_191:\n        /* \"#utility.yul\":7157:7277   */\n      pop\n      jump\t// out\n        /* \"#utility.yul\":7283:7424   */\n    tag_114:\n        /* \"#utility.yul\":7339:7344   */\n      0x00\n        /* \"#utility.yul\":7370:7376   */\n      dup2\n        /* \"#utility.yul\":7364:7377   */\n      mload\n        /* \"#utility.yul\":7355:7377   */\n      swap1\n      pop\n        /* \"#utility.yul\":7386:7418   */\n      tag_193\n        /* \"#utility.yul\":7412:7417   */\n      dup2\n        /* \"#utility.yul\":7386:7418   */\n      tag_113\n      jump\t// in\n    tag_193:\n        /* \"#utility.yul\":7283:7424   */\n      swap3\n      swap2\n      pop\n      pop\n      jump\t// out\n        /* \"#utility.yul\":7430:7552   */\n    tag_115:\n        /* \"#utility.yul\":7503:7527   */\n      tag_195\n        /* \"#utility.yul\":7521:7526   */\n      dup2\n        /* \"#utility.yul\":7503:7527   */\n      tag_89\n      jump\t// in\n    tag_195:\n        /* \"#utility.yul\":7496:7501   */\n      dup2\n        /* \"#utility.yul\":7493:7528   */\n      eq\n        /* \"#utility.yul\":7483:7546   */\n      tag_196\n      jumpi\n        /* \"#utility.yul\":7542:7543   */\n      0x00\n        /* \"#utility.yul\":7539:7540   */\n      dup1\n        /* \"#utility.yul\":7532:7544   */\n      revert\n        /* \"#utility.yul\":7483:7546   */\n    tag_196:\n        /* \"#utility.yul\":7430:7552   */\n      pop\n      jump\t// out\n        /* \"#utility.yul\":7558:7701   */\n    tag_116:\n        /* \"#utility.yul\":7615:7620   */\n      0x00\n        /* \"#utility.yul\":7646:7652   */\n      dup2\n        /* \"#utility.yul\":7640:7653   */\n      mload\n        /* \"#utility.yul\":7631:7653   */\n      swap1\n      pop\n        /* \"#utility.yul\":7662:7695   */\n      tag_198\n        /* \"#utility.yul\":7689:7694   */\n      dup2\n        /* \"#utility.yul\":7662:7695   */\n      tag_115\n      jump\t// in\n    tag_198:\n        /* \"#utility.yul\":7558:7701   */\n      swap3\n      swap2\n      pop\n      pop\n      jump\t// out\n        /* \"#utility.yul\":7707:8678   */\n    tag_79:\n        /* \"#utility.yul\":7810:7816   */\n      0x00\n        /* \"#utility.yul\":7818:7824   */\n      dup1\n        /* \"#utility.yul\":7826:7832   */\n      0x00\n        /* \"#utility.yul\":7834:7840   */\n      dup1\n        /* \"#utility.yul\":7842:7848   */\n      0x00\n        /* \"#utility.yul\":7891:7894   */\n      0xa0\n        /* \"#utility.yul\":7879:7888   */\n      dup7\n        /* \"#utility.yul\":7870:7877   */\n      dup9\n        /* \"#utility.yul\":7866:7889   */\n      sub\n        /* \"#utility.yul\":7862:7895   */\n      slt\n        /* \"#utility.yul\":7859:7979   */\n      iszero\n      tag_200\n      jumpi\n        /* \"#utility.yul\":7898:7977   */\n      tag_201\n      tag_92\n      jump\t// in\n    tag_201:\n        /* \"#utility.yul\":7859:7979   */\n    tag_200:\n        /* \"#utility.yul\":8018:8019   */\n      0x00\n        /* \"#utility.yul\":8043:8106   */\n      tag_202\n        /* \"#utility.yul\":8098:8105   */\n      dup9\n        /* \"#utility.yul\":8089:8095   */\n      dup3\n        /* \"#utility.yul\":8078:8087   */\n      dup10\n        /* \"#utility.yul\":8074:8096   */\n      add\n        /* \"#utility.yul\":8043:8106   */\n      tag_111\n      jump\t// in\n    tag_202:\n        /* \"#utility.yul\":8033:8106   */\n      swap6\n      pop\n        /* \"#utility.yul\":7989:8116   */\n      pop\n        /* \"#utility.yul\":8155:8157   */\n      0x20\n        /* \"#utility.yul\":8181:8244   */\n      tag_203\n        /* \"#utility.yul\":8236:8243   */\n      dup9\n        /* \"#utility.yul\":8227:8233   */\n      dup3\n        /* \"#utility.yul\":8216:8225   */\n      dup10\n        /* \"#utility.yul\":8212:8234   */\n      add\n        /* \"#utility.yul\":8181:8244   */\n      tag_114\n      jump\t// in\n    tag_203:\n        /* \"#utility.yul\":8171:8244   */\n      swap5\n      pop\n        /* \"#utility.yul\":8126:8254   */\n      pop\n        /* \"#utility.yul\":8293:8295   */\n      0x40\n        /* \"#utility.yul\":8319:8383   */\n      tag_204\n        /* \"#utility.yul\":8375:8382   */\n      dup9\n        /* \"#utility.yul\":8366:8372   */\n      dup3\n        /* \"#utility.yul\":8355:8364   */\n      dup10\n        /* \"#utility.yul\":8351:8373   */\n      add\n        /* \"#utility.yul\":8319:8383   */\n      tag_116\n      jump\t// in\n    tag_204:\n        /* \"#utility.yul\":8309:8383   */\n      swap4\n      pop\n        /* \"#utility.yul\":8264:8393   */\n      pop\n        /* \"#utility.yul\":8432:8434   */\n      0x60\n        /* \"#utility.yul\":8458:8522   */\n      tag_205\n        /* \"#utility.yul\":8514:8521   */\n      dup9\n        /* \"#utility.yul\":8505:8511   */\n      dup3\n        /* \"#utility.yul\":8494:8503   */\n      dup10\n        /* \"#utility.yul\":8490:8512   */\n      add\n        /* \"#utility.yul\":8458:8522   */\n      tag_116\n      jump\t// in\n    tag_205:\n        /* \"#utility.yul\":8448:8522   */\n      swap3\n      pop\n        /* \"#utility.yul\":8403:8532   */\n      pop\n        /* \"#utility.yul\":8571:8574   */\n      0x80\n        /* \"#utility.yul\":8598:8661   */\n      tag_206\n        /* \"#utility.yul\":8653:8660   */\n      dup9\n        /* \"#utility.yul\":8644:8650   */\n      dup3\n        /* \"#utility.yul\":8633:8642   */\n      dup10\n        /* \"#utility.yul\":8629:8651   */\n      add\n        /* \"#utility.yul\":8598:8661   */\n      tag_111\n      jump\t// in\n    tag_206:\n        /* \"#utility.yul\":8588:8661   */\n      swap2\n      pop\n        /* \"#utility.yul\":8542:8671   */\n      pop\n        /* \"#utility.yul\":7707:8678   */\n      swap3\n      swap6\n      pop\n      swap3\n      swap6\n      swap1\n      swap4\n      pop\n      jump\t// out\n        /* \"#utility.yul\":8684:9240   */\n    tag_81:\n        /* \"#utility.yul\":8723:8730   */\n      0x00\n        /* \"#utility.yul\":8746:8765   */\n      tag_208\n        /* \"#utility.yul\":8763:8764   */\n      dup3\n        /* \"#utility.yul\":8746:8765   */\n      tag_112\n      jump\t// in\n    tag_208:\n        /* \"#utility.yul\":8741:8765   */\n      swap2\n      pop\n        /* \"#utility.yul\":8779:8798   */\n      tag_209\n        /* \"#utility.yul\":8796:8797   */\n      dup4\n        /* \"#utility.yul\":8779:8798   */\n      tag_112\n      jump\t// in\n    tag_209:\n        /* \"#utility.yul\":8774:8798   */\n      swap3\n      pop\n        /* \"#utility.yul\":8833:8834   */\n      dup3\n        /* \"#utility.yul\":8830:8831   */\n      dup3\n        /* \"#utility.yul\":8826:8835   */\n      mul\n        /* \"#utility.yul\":8855:8884   */\n      tag_210\n        /* \"#utility.yul\":8872:8883   */\n      dup2\n        /* \"#utility.yul\":8855:8884   */\n      tag_112\n      jump\t// in\n    tag_210:\n        /* \"#utility.yul\":8844:8884   */\n      swap2\n      pop\n        /* \"#utility.yul\":8942:9008   */\n      0x8000000000000000000000000000000000000000000000000000000000000000\n        /* \"#utility.yul\":8939:8940   */\n      dup5\n        /* \"#utility.yul\":8936:9009   */\n      eq\n        /* \"#utility.yul\":8932:8933   */\n      0x00\n        /* \"#utility.yul\":8929:8930   */\n      dup5\n        /* \"#utility.yul\":8925:8934   */\n      slt\n        /* \"#utility.yul\":8921:9010   */\n      and\n        /* \"#utility.yul\":8918:9033   */\n      iszero\n      tag_211\n      jumpi\n        /* \"#utility.yul\":9013:9031   */\n      tag_212\n      tag_102\n      jump\t// in\n    tag_212:\n        /* \"#utility.yul\":8918:9033   */\n    tag_211:\n        /* \"#utility.yul\":9183:9184   */\n      dup3\n        /* \"#utility.yul\":9174:9181   */\n      dup3\n        /* \"#utility.yul\":9169:9185   */\n      sdiv\n        /* \"#utility.yul\":9166:9167   */\n      dup5\n        /* \"#utility.yul\":9163:9186   */\n      eq\n        /* \"#utility.yul\":9143:9144   */\n      dup4\n        /* \"#utility.yul\":9136:9145   */\n      iszero\n        /* \"#utility.yul\":9116:9200   */\n      or\n        /* \"#utility.yul\":9093:9233   */\n      tag_213\n      jumpi\n        /* \"#utility.yul\":9213:9231   */\n      tag_214\n      tag_102\n      jump\t// in\n    tag_214:\n        /* \"#utility.yul\":9093:9233   */\n    tag_213:\n        /* \"#utility.yul\":8731:9240   */\n      pop\n        /* \"#utility.yul\":8684:9240   */\n      swap3\n      swap2\n      pop\n      pop\n      jump\t// out\n\n    auxdata: 0xa2646970667358221220199343abb27204fc648491f2cc6e185c46830123e91175ff008879933d47eaea64736f6c63430008160033\n}\n",
				"bytecode": {
					"linkReferences": {},
					"object": "60a060405234801561000f575f80fd5b503373ffffffffffffffffffffffffffffffffffffffff1660808173ffffffffffffffffffffffffffffffffffffffff1681525050608051610b676100635f395f818161026c01526104ac0152610b675ff3fe60806040526004361061004d575f3560e01c8063213dbea2146100665780633ccfd60b14610090578063b60d4288146100a6578063cb78e6e1146100b0578063dba6335f146100ec5761005c565b3661005c5761005a610116565b005b610064610116565b005b348015610071575f80fd5b5061007a61025e565b6040516100879190610665565b60405180910390f35b34801561009b575f80fd5b506100a461026a565b005b6100ae610116565b005b3480156100bb575f80fd5b506100d660048036038101906100d191906106dc565b610495565b6040516100e39190610665565b60405180910390f35b3480156100f7575f80fd5b506101006104aa565b60405161010d9190610716565b60405180910390f35b5f349050674563918244f4000061012c346104ce565b101561016d576040517f08c379a000000000000000000000000000000000000000000000000000000000815260040161016490610789565b60405180910390fd5b5f3390505f81908060018154018082558091505060019003905f5260205f20015f9091909190916101000a81548173ffffffffffffffffffffffffffffffffffffffff021916908373ffffffffffffffffffffffffffffffffffffffff1602179055508160015f8373ffffffffffffffffffffffffffffffffffffffff1673ffffffffffffffffffffffffffffffffffffffff1681526020019081526020015f205461021991906107d4565b60015f8373ffffffffffffffffffffffffffffffffffffffff1673ffffffffffffffffffffffffffffffffffffffff1681526020019081526020015f20819055505050565b674563918244f4000081565b7f000000000000000000000000000000000000000000000000000000000000000073ffffffffffffffffffffffffffffffffffffffff163373ffffffffffffffffffffffffffffffffffffffff16146102ef576040517f30cd747100000000000000000000000000000000000000000000000000000000815260040160405180910390fd5b5f5b5f8054905081101561038b575f80828154811061031157610310610807565b5b905f5260205f20015f9054906101000a900473ffffffffffffffffffffffffffffffffffffffff1690505f60015f8373ffffffffffffffffffffffffffffffffffffffff1673ffffffffffffffffffffffffffffffffffffffff1681526020019081526020015f20819055505080806001019150506102f1565b505f67ffffffffffffffff8111156103a6576103a5610834565b5b6040519080825280602002602001820160405280156103d45781602001602082028036833780820191505090505b505f90805190602001906103e99291906105ab565b505f3373ffffffffffffffffffffffffffffffffffffffff164760405161040f9061088e565b5f6040518083038185875af1925050503d805f8114610449576040519150601f19603f3d011682016040523d82523d5f602084013e61044e565b606091505b5050905080610492576040517f08c379a0000000000000000000000000000000000000000000000000000000008152600401610489906108ec565b60405180910390fd5b50565b6001602052805f5260405f205f915090505481565b7f000000000000000000000000000000000000000000000000000000000000000081565b5f806104d8610506565b90505f670de0b6b3a764000082856104f0919061090a565b6104fa9190610978565b90508092505050919050565b5f8073694aa1769357215de4fac081bf1f309adc32530690505f8173ffffffffffffffffffffffffffffffffffffffff1663feaf968c6040518163ffffffff1660e01b815260040160a060405180830381865afa158015610569573d5f803e3d5ffd5b505050506040513d601f19601f8201168201806040525081019061058d9190610a44565b5050509150506402540be400816105a49190610abb565b9250505090565b828054828255905f5260205f20908101928215610621579160200282015b82811115610620578251825f6101000a81548173ffffffffffffffffffffffffffffffffffffffff021916908373ffffffffffffffffffffffffffffffffffffffff160217905550916020019190600101906105c9565b5b50905061062e9190610632565b5090565b5b80821115610649575f815f905550600101610633565b5090565b5f819050919050565b61065f8161064d565b82525050565b5f6020820190506106785f830184610656565b92915050565b5f80fd5b5f73ffffffffffffffffffffffffffffffffffffffff82169050919050565b5f6106ab82610682565b9050919050565b6106bb816106a1565b81146106c5575f80fd5b50565b5f813590506106d6816106b2565b92915050565b5f602082840312156106f1576106f061067e565b5b5f6106fe848285016106c8565b91505092915050565b610710816106a1565b82525050565b5f6020820190506107295f830184610707565b92915050565b5f82825260208201905092915050565b7f596f75206469646e27742073656e6420616e6f756768204554480000000000005f82015250565b5f610773601a8361072f565b915061077e8261073f565b602082019050919050565b5f6020820190508181035f8301526107a081610767565b9050919050565b7f4e487b71000000000000000000000000000000000000000000000000000000005f52601160045260245ffd5b5f6107de8261064d565b91506107e98361064d565b9250828201905080821115610801576108006107a7565b5b92915050565b7f4e487b71000000000000000000000000000000000000000000000000000000005f52603260045260245ffd5b7f4e487b71000000000000000000000000000000000000000000000000000000005f52604160045260245ffd5b5f81905092915050565b50565b5f6108795f83610861565b91506108848261086b565b5f82019050919050565b5f6108988261086e565b9150819050919050565b7f43616c6c206661696c65640000000000000000000000000000000000000000005f82015250565b5f6108d6600b8361072f565b91506108e1826108a2565b602082019050919050565b5f6020820190508181035f830152610903816108ca565b9050919050565b5f6109148261064d565b915061091f8361064d565b925082820261092d8161064d565b91508282048414831517610944576109436107a7565b5b5092915050565b7f4e487b71000000000000000000000000000000000000000000000000000000005f52601260045260245ffd5b5f6109828261064d565b915061098d8361064d565b92508261099d5761099c61094b565b5b828204905092915050565b5f69ffffffffffffffffffff82169050919050565b6109c6816109a8565b81146109d0575f80fd5b50565b5f815190506109e1816109bd565b92915050565b5f819050919050565b6109f9816109e7565b8114610a03575f80fd5b50565b5f81519050610a14816109f0565b92915050565b610a238161064d565b8114610a2d575f80fd5b50565b5f81519050610a3e81610a1a565b92915050565b5f805f805f60a08688031215610a5d57610a5c61067e565b5b5f610a6a888289016109d3565b9550506020610a7b88828901610a06565b9450506040610a8c88828901610a30565b9350506060610a9d88828901610a30565b9250506080610aae888289016109d3565b9150509295509295909350565b5f610ac5826109e7565b9150610ad0836109e7565b9250828202610ade816109e7565b91507f800000000000000000000000000000000000000000000000000000000000000084145f84121615610b1557610b146107a7565b5b8282058414831517610b2a57610b296107a7565b5b509291505056fea2646970667358221220199343abb27204fc648491f2cc6e185c46830123e91175ff008879933d47eaea64736f6c63430008160033",
					"opcodes": "PUSH1 0xA0 PUSH1 0x40 MSTORE CALLVALUE DUP1 ISZERO PUSH2 0xF JUMPI PUSH0 DUP1 REVERT JUMPDEST POP CALLER PUSH20 0xFFFFFFFFFFFFFFFFFFFFFFFFFFFFFFFFFFFFFFFF AND PUSH1 0x80 DUP2 PUSH20 0xFFFFFFFFFFFFFFFFFFFFFFFFFFFFFFFFFFFFFFFF AND DUP2 MSTORE POP POP PUSH1 0x80 MLOAD PUSH2 0xB67 PUSH2 0x63 PUSH0 CODECOPY PUSH0 DUP2 DUP2 PUSH2 0x26C ADD MSTORE PUSH2 0x4AC ADD MSTORE PUSH2 0xB67 PUSH0 RETURN INVALID PUSH1 0x80 PUSH1 0x40 MSTORE PUSH1 0x4 CALLDATASIZE LT PUSH2 0x4D JUMPI PUSH0 CALLDATALOAD PUSH1 0xE0 SHR DUP1 PUSH4 0x213DBEA2 EQ PUSH2 0x66 JUMPI DUP1 PUSH4 0x3CCFD60B EQ PUSH2 0x90 JUMPI DUP1 PUSH4 0xB60D4288 EQ PUSH2 0xA6 JUMPI DUP1 PUSH4 0xCB78E6E1 EQ PUSH2 0xB0 JUMPI DUP1 PUSH4 0xDBA6335F EQ PUSH2 0xEC JUMPI PUSH2 0x5C JUMP JUMPDEST CALLDATASIZE PUSH2 0x5C JUMPI PUSH2 0x5A PUSH2 0x116 JUMP JUMPDEST STOP JUMPDEST PUSH2 0x64 PUSH2 0x116 JUMP JUMPDEST STOP JUMPDEST CALLVALUE DUP1 ISZERO PUSH2 0x71 JUMPI PUSH0 DUP1 REVERT JUMPDEST POP PUSH2 0x7A PUSH2 0x25E JUMP JUMPDEST PUSH1 0x40 MLOAD PUSH2 0x87 SWAP2 SWAP1 PUSH2 0x665 JUMP JUMPDEST PUSH1 0x40 MLOAD DUP1 SWAP2 SUB SWAP1 RETURN JUMPDEST CALLVALUE DUP1 ISZERO PUSH2 0x9B JUMPI PUSH0 DUP1 REVERT JUMPDEST POP PUSH2 0xA4 PUSH2 0x26A JUMP JUMPDEST STOP JUMPDEST PUSH2 0xAE PUSH2 0x116 JUMP JUMPDEST STOP JUMPDEST CALLVALUE DUP1 ISZERO PUSH2 0xBB JUMPI PUSH0 DUP1 REVERT JUMPDEST POP PUSH2 0xD6 PUSH1 0x4 DUP1 CALLDATASIZE SUB DUP2 ADD SWAP1 PUSH2 0xD1 SWAP2 SWAP1 PUSH2 0x6DC JUMP JUMPDEST PUSH2 0x495 JUMP JUMPDEST PUSH1 0x40 MLOAD PUSH2 0xE3 SWAP2 SWAP1 PUSH2 0x665 JUMP JUMPDEST PUSH1 0x40 MLOAD DUP1 SWAP2 SUB SWAP1 RETURN JUMPDEST CALLVALUE DUP1 ISZERO PUSH2 0xF7 JUMPI PUSH0 DUP1 REVERT JUMPDEST POP PUSH2 0x100 PUSH2 0x4AA JUMP JUMPDEST PUSH1 0x40 MLOAD PUSH2 0x10D SWAP2 SWAP1 PUSH2 0x716 JUMP JUMPDEST PUSH1 0x40 MLOAD DUP1 SWAP2 SUB SWAP1 RETURN JUMPDEST PUSH0 CALLVALUE SWAP1 POP PUSH8 0x4563918244F40000 PUSH2 0x12C CALLVALUE PUSH2 0x4CE JUMP JUMPDEST LT ISZERO PUSH2 0x16D JUMPI PUSH1 0x40 MLOAD PUSH32 0x8C379A000000000000000000000000000000000000000000000000000000000 DUP2 MSTORE PUSH1 0x4 ADD PUSH2 0x164 SWAP1 PUSH2 0x789 JUMP JUMPDEST PUSH1 0x40 MLOAD DUP1 SWAP2 SUB SWAP1 REVERT JUMPDEST PUSH0 CALLER SWAP1 POP PUSH0 DUP2 SWAP1 DUP1 PUSH1 0x1 DUP2 SLOAD ADD DUP1 DUP3 SSTORE DUP1 SWAP2 POP POP PUSH1 0x1 SWAP1 SUB SWAP1 PUSH0 MSTORE PUSH1 0x20 PUSH0 KECCAK256 ADD PUSH0 SWAP1 SWAP2 SWAP1 SWAP2 SWAP1 SWAP2 PUSH2 0x100 EXP DUP2 SLOAD DUP2 PUSH20 0xFFFFFFFFFFFFFFFFFFFFFFFFFFFFFFFFFFFFFFFF MUL NOT AND SWAP1 DUP4 PUSH20 0xFFFFFFFFFFFFFFFFFFFFFFFFFFFFFFFFFFFFFFFF AND MUL OR SWAP1 SSTORE POP DUP2 PUSH1 0x1 PUSH0 DUP4 PUSH20 0xFFFFFFFFFFFFFFFFFFFFFFFFFFFFFFFFFFFFFFFF AND PUSH20 0xFFFFFFFFFFFFFFFFFFFFFFFFFFFFFFFFFFFFFFFF AND DUP2 MSTORE PUSH1 0x20 ADD SWAP1 DUP2 MSTORE PUSH1 0x20 ADD PUSH0 KECCAK256 SLOAD PUSH2 0x219 SWAP2 SWAP1 PUSH2 0x7D4 JUMP JUMPDEST PUSH1 0x1 PUSH0 DUP4 PUSH20 0xFFFFFFFFFFFFFFFFFFFFFFFFFFFFFFFFFFFFFFFF AND PUSH20 0xFFFFFFFFFFFFFFFFFFFFFFFFFFFFFFFFFFFFFFFF AND DUP2 MSTORE PUSH1 0x20 ADD SWAP1 DUP2 MSTORE PUSH1 0x20 ADD PUSH0 KECCAK256 DUP2 SWAP1 SSTORE POP POP POP JUMP JUMPDEST PUSH8 0x4563918244F40000 DUP2 JUMP JUMPDEST PUSH32 0x0 PUSH20 0xFFFFFFFFFFFFFFFFFFFFFFFFFFFFFFFFFFFFFFFF AND CALLER PUSH20 0xFFFFFFFFFFFFFFFFFFFFFFFFFFFFFFFFFFFFFFFF AND EQ PUSH2 0x2EF JUMPI PUSH1 0x40 MLOAD PUSH32 0x30CD747100000000000000000000000000000000000000000000000000000000 DUP2 MSTORE PUSH1 0x4 ADD PUSH1 0x40 MLOAD DUP1 SWAP2 SUB SWAP1 REVERT JUMPDEST PUSH0 JUMPDEST PUSH0 DUP1 SLOAD SWAP1 POP DUP2 LT ISZERO PUSH2 0x38B JUMPI PUSH0 DUP1 DUP3 DUP2 SLOAD DUP2 LT PUSH2 0x311 JUMPI PUSH2 0x310 PUSH2 0x807 JUMP JUMPDEST JUMPDEST SWAP1 PUSH0 MSTORE PUSH1 0x20 PUSH0 KECCAK256 ADD PUSH0 SWAP1 SLOAD SWAP1 PUSH2 0x100 EXP SWAP1 DIV PUSH20 0xFFFFFFFFFFFFFFFFFFFFFFFFFFFFFFFFFFFFFFFF AND SWAP1 POP PUSH0 PUSH1 0x1 PUSH0 DUP4 PUSH20 0xFFFFFFFFFFFFFFFFFFFFFFFFFFFFFFFFFFFFFFFF AND PUSH20 0xFFFFFFFFFFFFFFFFFFFFFFFFFFFFFFFFFFFFFFFF AND DUP2 MSTORE PUSH1 0x20 ADD SWAP1 DUP2 MSTORE PUSH1 0x20 ADD PUSH0 KECCAK256 DUP2 SWAP1 SSTORE POP POP DUP1 DUP1 PUSH1 0x1 ADD SWAP2 POP POP PUSH2 0x2F1 JUMP JUMPDEST POP PUSH0 PUSH8 0xFFFFFFFFFFFFFFFF DUP2 GT ISZERO PUSH2 0x3A6 JUMPI PUSH2 0x3A5 PUSH2 0x834 JUMP JUMPDEST JUMPDEST PUSH1 0x40 MLOAD SWAP1 DUP1 DUP3 MSTORE DUP1 PUSH1 0x20 MUL PUSH1 0x20 ADD DUP3 ADD PUSH1 0x40 MSTORE DUP1 ISZERO PUSH2 0x3D4 JUMPI DUP2 PUSH1 0x20 ADD PUSH1 0x20 DUP3 MUL DUP1 CALLDATASIZE DUP4 CALLDATACOPY DUP1 DUP3 ADD SWAP2 POP POP SWAP1 POP JUMPDEST POP PUSH0 SWAP1 DUP1 MLOAD SWAP1 PUSH1 0x20 ADD SWAP1 PUSH2 0x3E9 SWAP3 SWAP2 SWAP1 PUSH2 0x5AB JUMP JUMPDEST POP PUSH0 CALLER PUSH20 0xFFFFFFFFFFFFFFFFFFFFFFFFFFFFFFFFFFFFFFFF AND SELFBALANCE PUSH1 0x40 MLOAD PUSH2 0x40F SWAP1 PUSH2 0x88E JUMP JUMPDEST PUSH0 PUSH1 0x40 MLOAD DUP1 DUP4 SUB DUP2 DUP6 DUP8 GAS CALL SWAP3 POP POP POP RETURNDATASIZE DUP1 PUSH0 DUP2 EQ PUSH2 0x449 JUMPI PUSH1 0x40 MLOAD SWAP2 POP PUSH1 0x1F NOT PUSH1 0x3F RETURNDATASIZE ADD AND DUP3 ADD PUSH1 0x40 MSTORE RETURNDATASIZE DUP3 MSTORE RETURNDATASIZE PUSH0 PUSH1 0x20 DUP5 ADD RETURNDATACOPY PUSH2 0x44E JUMP JUMPDEST PUSH1 0x60 SWAP2 POP JUMPDEST POP POP SWAP1 POP DUP1 PUSH2 0x492 JUMPI PUSH1 0x40 MLOAD PUSH32 0x8C379A000000000000000000000000000000000000000000000000000000000 DUP2 MSTORE PUSH1 0x4 ADD PUSH2 0x489 SWAP1 PUSH2 0x8EC JUMP JUMPDEST PUSH1 0x40 MLOAD DUP1 SWAP2 SUB SWAP1 REVERT JUMPDEST POP JUMP JUMPDEST PUSH1 0x1 PUSH1 0x20 MSTORE DUP1 PUSH0 MSTORE PUSH1 0x40 PUSH0 KECCAK256 PUSH0 SWAP2 POP SWAP1 POP SLOAD DUP2 JUMP JUMPDEST PUSH32 0x0 DUP2 JUMP JUMPDEST PUSH0 DUP1 PUSH2 0x4D8 PUSH2 0x506 JUMP JUMPDEST SWAP1 POP PUSH0 PUSH8 0xDE0B6B3A7640000 DUP3 DUP6 PUSH2 0x4F0 SWAP2 SWAP1 PUSH2 0x90A JUMP JUMPDEST PUSH2 0x4FA SWAP2 SWAP1 PUSH2 0x978 JUMP JUMPDEST SWAP1 POP DUP1 SWAP3 POP POP POP SWAP2 SWAP1 POP JUMP JUMPDEST PUSH0 DUP1 PUSH20 0x694AA1769357215DE4FAC081BF1F309ADC325306 SWAP1 POP PUSH0 DUP2 PUSH20 0xFFFFFFFFFFFFFFFFFFFFFFFFFFFFFFFFFFFFFFFF AND PUSH4 0xFEAF968C PUSH1 0x40 MLOAD DUP2 PUSH4 0xFFFFFFFF AND PUSH1 0xE0 SHL DUP2 MSTORE PUSH1 0x4 ADD PUSH1 0xA0 PUSH1 0x40 MLOAD DUP1 DUP4 SUB DUP2 DUP7 GAS STATICCALL ISZERO DUP1 ISZERO PUSH2 0x569 JUMPI RETURNDATASIZE PUSH0 DUP1 RETURNDATACOPY RETURNDATASIZE PUSH0 REVERT JUMPDEST POP POP POP POP PUSH1 0x40 MLOAD RETURNDATASIZE PUSH1 0x1F NOT PUSH1 0x1F DUP3 ADD AND DUP3 ADD DUP1 PUSH1 0x40 MSTORE POP DUP2 ADD SWAP1 PUSH2 0x58D SWAP2 SWAP1 PUSH2 0xA44 JUMP JUMPDEST POP POP POP SWAP2 POP POP PUSH5 0x2540BE400 DUP2 PUSH2 0x5A4 SWAP2 SWAP1 PUSH2 0xABB JUMP JUMPDEST SWAP3 POP POP POP SWAP1 JUMP JUMPDEST DUP3 DUP1 SLOAD DUP3 DUP3 SSTORE SWAP1 PUSH0 MSTORE PUSH1 0x20 PUSH0 KECCAK256 SWAP1 DUP2 ADD SWAP3 DUP3 ISZERO PUSH2 0x621 JUMPI SWAP2 PUSH1 0x20 MUL DUP3 ADD JUMPDEST DUP3 DUP2 GT ISZERO PUSH2 0x620 JUMPI DUP3 MLOAD DUP3 PUSH0 PUSH2 0x100 EXP DUP2 SLOAD DUP2 PUSH20 0xFFFFFFFFFFFFFFFFFFFFFFFFFFFFFFFFFFFFFFFF MUL NOT AND SWAP1 DUP4 PUSH20 0xFFFFFFFFFFFFFFFFFFFFFFFFFFFFFFFFFFFFFFFF AND MUL OR SWAP1 SSTORE POP SWAP2 PUSH1 0x20 ADD SWAP2 SWAP1 PUSH1 0x1 ADD SWAP1 PUSH2 0x5C9 JUMP JUMPDEST JUMPDEST POP SWAP1 POP PUSH2 0x62E SWAP2 SWAP1 PUSH2 0x632 JUMP JUMPDEST POP SWAP1 JUMP JUMPDEST JUMPDEST DUP1 DUP3 GT ISZERO PUSH2 0x649 JUMPI PUSH0 DUP2 PUSH0 SWAP1 SSTORE POP PUSH1 0x1 ADD PUSH2 0x633 JUMP JUMPDEST POP SWAP1 JUMP JUMPDEST PUSH0 DUP2 SWAP1 POP SWAP2 SWAP1 POP JUMP JUMPDEST PUSH2 0x65F DUP2 PUSH2 0x64D JUMP JUMPDEST DUP3 MSTORE POP POP JUMP JUMPDEST PUSH0 PUSH1 0x20 DUP3 ADD SWAP1 POP PUSH2 0x678 PUSH0 DUP4 ADD DUP5 PUSH2 0x656 JUMP JUMPDEST SWAP3 SWAP2 POP POP JUMP JUMPDEST PUSH0 DUP1 REVERT JUMPDEST PUSH0 PUSH20 0xFFFFFFFFFFFFFFFFFFFFFFFFFFFFFFFFFFFFFFFF DUP3 AND SWAP1 POP SWAP2 SWAP1 POP JUMP JUMPDEST PUSH0 PUSH2 0x6AB DUP3 PUSH2 0x682 JUMP JUMPDEST SWAP1 POP SWAP2 SWAP1 POP JUMP JUMPDEST PUSH2 0x6BB DUP2 PUSH2 0x6A1 JUMP JUMPDEST DUP2 EQ PUSH2 0x6C5 JUMPI PUSH0 DUP1 REVERT JUMPDEST POP JUMP JUMPDEST PUSH0 DUP2 CALLDATALOAD SWAP1 POP PUSH2 0x6D6 DUP2 PUSH2 0x6B2 JUMP JUMPDEST SWAP3 SWAP2 POP POP JUMP JUMPDEST PUSH0 PUSH1 0x20 DUP3 DUP5 SUB SLT ISZERO PUSH2 0x6F1 JUMPI PUSH2 0x6F0 PUSH2 0x67E JUMP JUMPDEST JUMPDEST PUSH0 PUSH2 0x6FE DUP5 DUP3 DUP6 ADD PUSH2 0x6C8 JUMP JUMPDEST SWAP2 POP POP SWAP3 SWAP2 POP POP JUMP JUMPDEST PUSH2 0x710 DUP2 PUSH2 0x6A1 JUMP JUMPDEST DUP3 MSTORE POP POP JUMP JUMPDEST PUSH0 PUSH1 0x20 DUP3 ADD SWAP1 POP PUSH2 0x729 PUSH0 DUP4 ADD DUP5 PUSH2 0x707 JUMP JUMPDEST SWAP3 SWAP2 POP POP JUMP JUMPDEST PUSH0 DUP3 DUP3 MSTORE PUSH1 0x20 DUP3 ADD SWAP1 POP SWAP3 SWAP2 POP POP JUMP JUMPDEST PUSH32 0x596F75206469646E27742073656E6420616E6F75676820455448000000000000 PUSH0 DUP3 ADD MSTORE POP JUMP JUMPDEST PUSH0 PUSH2 0x773 PUSH1 0x1A DUP4 PUSH2 0x72F JUMP JUMPDEST SWAP2 POP PUSH2 0x77E DUP3 PUSH2 0x73F JUMP JUMPDEST PUSH1 0x20 DUP3 ADD SWAP1 POP SWAP2 SWAP1 POP JUMP JUMPDEST PUSH0 PUSH1 0x20 DUP3 ADD SWAP1 POP DUP2 DUP2 SUB PUSH0 DUP4 ADD MSTORE PUSH2 0x7A0 DUP2 PUSH2 0x767 JUMP JUMPDEST SWAP1 POP SWAP2 SWAP1 POP JUMP JUMPDEST PUSH32 0x4E487B7100000000000000000000000000000000000000000000000000000000 PUSH0 MSTORE PUSH1 0x11 PUSH1 0x4 MSTORE PUSH1 0x24 PUSH0 REVERT JUMPDEST PUSH0 PUSH2 0x7DE DUP3 PUSH2 0x64D JUMP JUMPDEST SWAP2 POP PUSH2 0x7E9 DUP4 PUSH2 0x64D JUMP JUMPDEST SWAP3 POP DUP3 DUP3 ADD SWAP1 POP DUP1 DUP3 GT ISZERO PUSH2 0x801 JUMPI PUSH2 0x800 PUSH2 0x7A7 JUMP JUMPDEST JUMPDEST SWAP3 SWAP2 POP POP JUMP JUMPDEST PUSH32 0x4E487B7100000000000000000000000000000000000000000000000000000000 PUSH0 MSTORE PUSH1 0x32 PUSH1 0x4 MSTORE PUSH1 0x24 PUSH0 REVERT JUMPDEST PUSH32 0x4E487B7100000000000000000000000000000000000000000000000000000000 PUSH0 MSTORE PUSH1 0x41 PUSH1 0x4 MSTORE PUSH1 0x24 PUSH0 REVERT JUMPDEST PUSH0 DUP2 SWAP1 POP SWAP3 SWAP2 POP POP JUMP JUMPDEST POP JUMP JUMPDEST PUSH0 PUSH2 0x879 PUSH0 DUP4 PUSH2 0x861 JUMP JUMPDEST SWAP2 POP PUSH2 0x884 DUP3 PUSH2 0x86B JUMP JUMPDEST PUSH0 DUP3 ADD SWAP1 POP SWAP2 SWAP1 POP JUMP JUMPDEST PUSH0 PUSH2 0x898 DUP3 PUSH2 0x86E JUMP JUMPDEST SWAP2 POP DUP2 SWAP1 POP SWAP2 SWAP1 POP JUMP JUMPDEST PUSH32 0x43616C6C206661696C6564000000000000000000000000000000000000000000 PUSH0 DUP3 ADD MSTORE POP JUMP JUMPDEST PUSH0 PUSH2 0x8D6 PUSH1 0xB DUP4 PUSH2 0x72F JUMP JUMPDEST SWAP2 POP PUSH2 0x8E1 DUP3 PUSH2 0x8A2 JUMP JUMPDEST PUSH1 0x20 DUP3 ADD SWAP1 POP SWAP2 SWAP1 POP JUMP JUMPDEST PUSH0 PUSH1 0x20 DUP3 ADD SWAP1 POP DUP2 DUP2 SUB PUSH0 DUP4 ADD MSTORE PUSH2 0x903 DUP2 PUSH2 0x8CA JUMP JUMPDEST SWAP1 POP SWAP2 SWAP1 POP JUMP JUMPDEST PUSH0 PUSH2 0x914 DUP3 PUSH2 0x64D JUMP JUMPDEST SWAP2 POP PUSH2 0x91F DUP4 PUSH2 0x64D JUMP JUMPDEST SWAP3 POP DUP3 DUP3 MUL PUSH2 0x92D DUP2 PUSH2 0x64D JUMP JUMPDEST SWAP2 POP DUP3 DUP3 DIV DUP5 EQ DUP4 ISZERO OR PUSH2 0x944 JUMPI PUSH2 0x943 PUSH2 0x7A7 JUMP JUMPDEST JUMPDEST POP SWAP3 SWAP2 POP POP JUMP JUMPDEST PUSH32 0x4E487B7100000000000000000000000000000000000000000000000000000000 PUSH0 MSTORE PUSH1 0x12 PUSH1 0x4 MSTORE PUSH1 0x24 PUSH0 REVERT JUMPDEST PUSH0 PUSH2 0x982 DUP3 PUSH2 0x64D JUMP JUMPDEST SWAP2 POP PUSH2 0x98D DUP4 PUSH2 0x64D JUMP JUMPDEST SWAP3 POP DUP3 PUSH2 0x99D JUMPI PUSH2 0x99C PUSH2 0x94B JUMP JUMPDEST JUMPDEST DUP3 DUP3 DIV SWAP1 POP SWAP3 SWAP2 POP POP JUMP JUMPDEST PUSH0 PUSH10 0xFFFFFFFFFFFFFFFFFFFF DUP3 AND SWAP1 POP SWAP2 SWAP1 POP JUMP JUMPDEST PUSH2 0x9C6 DUP2 PUSH2 0x9A8 JUMP JUMPDEST DUP2 EQ PUSH2 0x9D0 JUMPI PUSH0 DUP1 REVERT JUMPDEST POP JUMP JUMPDEST PUSH0 DUP2 MLOAD SWAP1 POP PUSH2 0x9E1 DUP2 PUSH2 0x9BD JUMP JUMPDEST SWAP3 SWAP2 POP POP JUMP JUMPDEST PUSH0 DUP2 SWAP1 POP SWAP2 SWAP1 POP JUMP JUMPDEST PUSH2 0x9F9 DUP2 PUSH2 0x9E7 JUMP JUMPDEST DUP2 EQ PUSH2 0xA03 JUMPI PUSH0 DUP1 REVERT JUMPDEST POP JUMP JUMPDEST PUSH0 DUP2 MLOAD SWAP1 POP PUSH2 0xA14 DUP2 PUSH2 0x9F0 JUMP JUMPDEST SWAP3 SWAP2 POP POP JUMP JUMPDEST PUSH2 0xA23 DUP2 PUSH2 0x64D JUMP JUMPDEST DUP2 EQ PUSH2 0xA2D JUMPI PUSH0 DUP1 REVERT JUMPDEST POP JUMP JUMPDEST PUSH0 DUP2 MLOAD SWAP1 POP PUSH2 0xA3E DUP2 PUSH2 0xA1A JUMP JUMPDEST SWAP3 SWAP2 POP POP JUMP JUMPDEST PUSH0 DUP1 PUSH0 DUP1 PUSH0 PUSH1 0xA0 DUP7 DUP9 SUB SLT ISZERO PUSH2 0xA5D JUMPI PUSH2 0xA5C PUSH2 0x67E JUMP JUMPDEST JUMPDEST PUSH0 PUSH2 0xA6A DUP9 DUP3 DUP10 ADD PUSH2 0x9D3 JUMP JUMPDEST SWAP6 POP POP PUSH1 0x20 PUSH2 0xA7B DUP9 DUP3 DUP10 ADD PUSH2 0xA06 JUMP JUMPDEST SWAP5 POP POP PUSH1 0x40 PUSH2 0xA8C DUP9 DUP3 DUP10 ADD PUSH2 0xA30 JUMP JUMPDEST SWAP4 POP POP PUSH1 0x60 PUSH2 0xA9D DUP9 DUP3 DUP10 ADD PUSH2 0xA30 JUMP JUMPDEST SWAP3 POP POP PUSH1 0x80 PUSH2 0xAAE DUP9 DUP3 DUP10 ADD PUSH2 0x9D3 JUMP JUMPDEST SWAP2 POP POP SWAP3 SWAP6 POP SWAP3 SWAP6 SWAP1 SWAP4 POP JUMP JUMPDEST PUSH0 PUSH2 0xAC5 DUP3 PUSH2 0x9E7 JUMP JUMPDEST SWAP2 POP PUSH2 0xAD0 DUP4 PUSH2 0x9E7 JUMP JUMPDEST SWAP3 POP DUP3 DUP3 MUL PUSH2 0xADE DUP2 PUSH2 0x9E7 JUMP JUMPDEST SWAP2 POP PUSH32 0x8000000000000000000000000000000000000000000000000000000000000000 DUP5 EQ PUSH0 DUP5 SLT AND ISZERO PUSH2 0xB15 JUMPI PUSH2 0xB14 PUSH2 0x7A7 JUMP JUMPDEST JUMPDEST DUP3 DUP3 SDIV DUP5 EQ DUP4 ISZERO OR PUSH2 0xB2A JUMPI PUSH2 0xB29 PUSH2 0x7A7 JUMP JUMPDEST JUMPDEST POP SWAP3 SWAP2 POP POP JUMP INVALID LOG2 PUSH5 0x6970667358 0x22 SLT KECCAK256 NOT SWAP4 NUMBER 0xAB 0xB2 PUSH19 0x4FC648491F2CC6E185C46830123E91175FF00 DUP9 PUSH26 0x933D47EAEA64736F6C6343000816003300000000000000000000 "
				},
				"gasEstimates": {
					"creation": {
						"codeDepositCost": "583800",
						"executionCost": "infinite",
						"totalCost": "infinite"
					},
					"external": {
						"": "infinite",
						"MIN_USD()": "303",
						"addressToAmoutFunded(address)": "2846",
						"fund()": "infinite",
						"i_owner()": "infinite",
						"withdraw()": "infinite"
					}
				},
				"methodIdentifiers": {
					"MIN_USD()": "213dbea2",
					"addressToAmoutFunded(address)": "cb78e6e1",
					"fund()": "b60d4288",
					"i_owner()": "dba6335f",
					"withdraw()": "3ccfd60b"
				}
			},
			"storageLayout": {
				"storage": [
					{
						"astId": 60,
						"contract": "FundMe.sol:FundMe",
						"label": "funders",
						"offset": 0,
						"slot": "0",
						"type": "t_array(t_address)dyn_storage"
					},
					{
						"astId": 64,
						"contract": "FundMe.sol:FundMe",
						"label": "addressToAmoutFunded",
						"offset": 0,
						"slot": "1",
						"type": "t_mapping(t_address,t_uint256)"
					}
				],
				"types": {
					"t_address": {
						"encoding": "inplace",
						"label": "address",
						"numberOfBytes": "20"
					},
					"t_array(t_address)dyn_storage": {
						"base": "t_address",
						"encoding": "dynamic_array",
						"label": "address[]",
						"numberOfBytes": "32"
					},
					"t_mapping(t_address,t_uint256)": {
						"encoding": "mapping",
						"key": "t_address",
						"label": "mapping(address => uint256)",
						"numberOfBytes": "32",
						"value": "t_uint256"
					},
					"t_uint256": {
						"encoding": "inplace",
						"label": "uint256",
						"numberOfBytes": "32"
					}
				}
			},
			"userdoc": {
				"kind": "user",
				"methods": {},
				"version": 1
			}
		}
	}
}